{
  "_format": "hh-sol-artifact-1",
  "contractName": "FeeDistributorReader",
  "sourceName": "contracts/FeeDistributorReader.sol",
  "abi": [
    {
      "inputs": [
        {
          "internalType": "address",
          "name": "_feeDistributor",
          "type": "address"
        },
        {
          "internalType": "address",
          "name": "_account",
          "type": "address"
        },
        {
          "internalType": "uint256",
          "name": "_weeks",
          "type": "uint256"
        }
      ],
      "name": "getUserClaimed",
      "outputs": [
        {
          "internalType": "bool[]",
          "name": "",
          "type": "bool[]"
        }
      ],
      "stateMutability": "view",
      "type": "function"
    }
  ],
  "bytecode": "0x608060405234801561001057600080fd5b5061058a806100206000396000f3fe608060405234801561001057600080fd5b506004361061002b5760003560e01c8063c1b2366414610030575b600080fd5b61004a60048036038101906100459190610245565b610060565b6040516100579190610362565b60405180910390f35b606060008490506000600190506000818561007b91906103b3565b67ffffffffffffffff8111156100945761009361040d565b5b6040519080825280602002602001820160405280156100c25781602001602082028036833780820191505090505b50905060005b8581101561019e578373ffffffffffffffffffffffffffffffffffffffff1663120aa87782896040518363ffffffff1660e01b815260040161010b92919061045a565b60206040518083038186803b15801561012357600080fd5b505afa158015610137573d6000803e3d6000fd5b505050506040513d601f19601f8201168201806040525081019061015b91906104af565b82848361016891906103b3565b81518110610179576101786104dc565b5b60200260200101901515908115158152505080806101969061050b565b9150506100c8565b508093505050509392505050565b600080fd5b600073ffffffffffffffffffffffffffffffffffffffff82169050919050565b60006101dc826101b1565b9050919050565b6101ec816101d1565b81146101f757600080fd5b50565b600081359050610209816101e3565b92915050565b6000819050919050565b6102228161020f565b811461022d57600080fd5b50565b60008135905061023f81610219565b92915050565b60008060006060848603121561025e5761025d6101ac565b5b600061026c868287016101fa565b935050602061027d868287016101fa565b925050604061028e86828701610230565b9150509250925092565b600081519050919050565b600082825260208201905092915050565b6000819050602082019050919050565b60008115159050919050565b6102d9816102c4565b82525050565b60006102eb83836102d0565b60208301905092915050565b6000602082019050919050565b600061030f82610298565b61031981856102a3565b9350610324836102b4565b8060005b8381101561035557815161033c88826102df565b9750610347836102f7565b925050600181019050610328565b5085935050505092915050565b6000602082019050818103600083015261037c8184610304565b905092915050565b7f4e487b7100000000000000000000000000000000000000000000000000000000600052601160045260246000fd5b60006103be8261020f565b91506103c98361020f565b9250817fffffffffffffffffffffffffffffffffffffffffffffffffffffffffffffffff048311821515161561040257610401610384565b5b828202905092915050565b7f4e487b7100000000000000000000000000000000000000000000000000000000600052604160045260246000fd5b6104458161020f565b82525050565b610454816101d1565b82525050565b600060408201905061046f600083018561043c565b61047c602083018461044b565b9392505050565b61048c816102c4565b811461049757600080fd5b50565b6000815190506104a981610483565b92915050565b6000602082840312156104c5576104c46101ac565b5b60006104d38482850161049a565b91505092915050565b7f4e487b7100000000000000000000000000000000000000000000000000000000600052603260045260246000fd5b60006105168261020f565b91507fffffffffffffffffffffffffffffffffffffffffffffffffffffffffffffffff82141561054957610548610384565b5b60018201905091905056fea26469706673582212200545bf96eebf40e59ad6eed3dfd002ce0b88cb144dc637364261fcfc7664f9fd64736f6c63430008090033",
  "linkReferences": {},
  "deployedLinkReferences": {}
}