{
  "_format": "hh-sol-artifact-1",
  "contractName": "FeeDistributor",
  "sourceName": "contracts/FeeDistributor.sol",
  "abi": [
    {
      "inputs": [
        {
          "internalType": "address",
          "name": "_token",
          "type": "address"
        }
      ],
      "stateMutability": "nonpayable",
      "type": "constructor"
    },
    {
      "anonymous": false,
      "inputs": [
        {
          "indexed": false,
          "internalType": "address",
          "name": "_recipient",
          "type": "address"
        },
        {
          "indexed": false,
          "internalType": "uint256",
          "name": "amount",
          "type": "uint256"
        }
      ],
      "name": "Claim",
      "type": "event"
    },
    {
      "anonymous": false,
      "inputs": [
        {
          "indexed": true,
          "internalType": "address",
          "name": "previousOwner",
          "type": "address"
        },
        {
          "indexed": true,
          "internalType": "address",
          "name": "newOwner",
          "type": "address"
        }
      ],
      "name": "OwnershipTransferred",
      "type": "event"
    },
    {
      "inputs": [],
      "name": "bail",
      "outputs": [],
      "stateMutability": "nonpayable",
      "type": "function"
    },
    {
      "inputs": [
        {
          "internalType": "uint256",
          "name": "",
          "type": "uint256"
        },
        {
          "internalType": "address",
          "name": "",
          "type": "address"
        }
      ],
      "name": "claimed",
      "outputs": [
        {
          "internalType": "bool",
          "name": "",
          "type": "bool"
        }
      ],
      "stateMutability": "view",
      "type": "function"
    },
    {
      "inputs": [],
      "name": "owner",
      "outputs": [
        {
          "internalType": "address",
          "name": "",
          "type": "address"
        }
      ],
      "stateMutability": "view",
      "type": "function"
    },
    {
      "inputs": [],
      "name": "renounceOwnership",
      "outputs": [],
      "stateMutability": "nonpayable",
      "type": "function"
    },
    {
      "inputs": [
        {
          "internalType": "uint256",
          "name": "",
          "type": "uint256"
        }
      ],
      "name": "roots",
      "outputs": [
        {
          "internalType": "bytes32",
          "name": "",
          "type": "bytes32"
        }
      ],
      "stateMutability": "view",
      "type": "function"
    },
    {
      "inputs": [
        {
          "internalType": "bytes32",
          "name": "_root",
          "type": "bytes32"
        },
        {
          "internalType": "uint256",
          "name": "week",
          "type": "uint256"
        }
      ],
      "name": "setMerkleSet",
      "outputs": [],
      "stateMutability": "nonpayable",
      "type": "function"
    },
    {
      "inputs": [],
      "name": "token",
      "outputs": [
        {
          "internalType": "contract IERC20",
          "name": "",
          "type": "address"
        }
      ],
      "stateMutability": "view",
      "type": "function"
    },
    {
      "inputs": [
        {
          "internalType": "address",
          "name": "newOwner",
          "type": "address"
        }
      ],
      "name": "transferOwnership",
      "outputs": [],
      "stateMutability": "nonpayable",
      "type": "function"
    },
    {
      "inputs": [
        {
          "internalType": "bytes32[]",
          "name": "proof",
          "type": "bytes32[]"
        },
        {
          "internalType": "uint256",
          "name": "amount",
          "type": "uint256"
        },
        {
          "internalType": "uint256",
          "name": "week",
          "type": "uint256"
        }
      ],
      "name": "withdraw",
      "outputs": [],
      "stateMutability": "nonpayable",
      "type": "function"
    }
  ],
  "bytecode": "0x60a06040523480156200001157600080fd5b506040516200179e3803806200179e83398181016040528101906200003791906200023b565b620000576200004b6200010560201b60201c565b6200010d60201b60201c565b600073ffffffffffffffffffffffffffffffffffffffff168173ffffffffffffffffffffffffffffffffffffffff161415620000ca576040517f08c379a0000000000000000000000000000000000000000000000000000000008152600401620000c190620002f4565b60405180910390fd5b8073ffffffffffffffffffffffffffffffffffffffff1660808173ffffffffffffffffffffffffffffffffffffffff16815250505062000316565b600033905090565b60008060009054906101000a900473ffffffffffffffffffffffffffffffffffffffff169050816000806101000a81548173ffffffffffffffffffffffffffffffffffffffff021916908373ffffffffffffffffffffffffffffffffffffffff1602179055508173ffffffffffffffffffffffffffffffffffffffff168173ffffffffffffffffffffffffffffffffffffffff167f8be0079c531659141344cd1fd0a4f28419497f9722a3daafe3b4186f6b6457e060405160405180910390a35050565b600080fd5b600073ffffffffffffffffffffffffffffffffffffffff82169050919050565b60006200020382620001d6565b9050919050565b6200021581620001f6565b81146200022157600080fd5b50565b60008151905062000235816200020a565b92915050565b600060208284031215620002545762000253620001d1565b5b6000620002648482850162000224565b91505092915050565b600082825260208201905092915050565b7f4665654469737472696275746f723a20496e76616c696420746f6b656e20616460008201527f6472657373000000000000000000000000000000000000000000000000000000602082015250565b6000620002dc6025836200026d565b9150620002e9826200027e565b604082019050919050565b600060208201905081810360008301526200030f81620002cd565b9050919050565b60805161145762000347600039600081816103e00152818161055801528181610605015261085601526114576000f3fe608060405234801561001057600080fd5b50600436106100935760003560e01c8063906597b911610066578063906597b91461010c578063c2b40ae414610116578063d6e1c48514610146578063f2fde38b14610162578063fc0c546a1461017e57610093565b8063120aa877146100985780636604fd25146100c8578063715018a6146100e45780638da5cb5b146100ee575b600080fd5b6100b260048036038101906100ad9190610b42565b61019c565b6040516100bf9190610b9d565b60405180910390f35b6100e260048036038101906100dd9190610c1d565b6101cb565b005b6100ec61050f565b005b6100f6610523565b6040516101039190610ca0565b60405180910390f35b61011461054c565b005b610130600480360381019061012b9190610cbb565b6106f6565b60405161013d9190610d01565b60405180910390f35b610160600480360381019061015b9190610d48565b61070e565b005b61017c60048036038101906101779190610d88565b6107d0565b005b610186610854565b6040516101939190610e14565b60405180910390f35b60026020528160005260406000206020528060005260406000206000915091509054906101000a900460ff1681565b6002600082815260200190815260200160002060003373ffffffffffffffffffffffffffffffffffffffff1673ffffffffffffffffffffffffffffffffffffffff16815260200190815260200160002060009054906101000a900460ff1615610269576040517f08c379a000000000000000000000000000000000000000000000000000000000815260040161026090610e8c565b60405180910390fd5b6000801b600160008381526020019081526020016000205414156102c2576040517f08c379a00000000000000000000000000000000000000000000000000000000081526004016102b990610ef8565b60405180910390fd5b6000600160008381526020019081526020016000205490506000610331868680806020026020016040519081016040528093929190818152602001838360200280828437600081840152601f19601f820116905080830192505050505050508361032c3388610878565b6108ab565b905080610373576040517f08c379a000000000000000000000000000000000000000000000000000000000815260040161036a90610f64565b60405180910390fd5b60016002600085815260200190815260200160002060003373ffffffffffffffffffffffffffffffffffffffff1673ffffffffffffffffffffffffffffffffffffffff16815260200190815260200160002060006101000a81548160ff02191690831515021790555060007f000000000000000000000000000000000000000000000000000000000000000073ffffffffffffffffffffffffffffffffffffffff1663a9059cbb33876040518363ffffffff1660e01b8152600401610439929190610f93565b602060405180830381600087803b15801561045357600080fd5b505af1158015610467573d6000803e3d6000fd5b505050506040513d601f19601f8201168201806040525081019061048b9190610fe8565b9050806104cd576040517f08c379a00000000000000000000000000000000000000000000000000000000081526004016104c490611087565b60405180910390fd5b7f47cee97cb7acd717b3c0aa1435d004cd5b3c8c57d70dbceb4e4458bbd60e39d433866040516104fe929190610f93565b60405180910390a150505050505050565b6105176108c2565b6105216000610940565b565b60008060009054906101000a900473ffffffffffffffffffffffffffffffffffffffff16905090565b6105546108c2565b60007f000000000000000000000000000000000000000000000000000000000000000073ffffffffffffffffffffffffffffffffffffffff166370a08231306040518263ffffffff1660e01b81526004016105af9190610ca0565b60206040518083038186803b1580156105c757600080fd5b505afa1580156105db573d6000803e3d6000fd5b505050506040513d601f19601f820116820180604052508101906105ff91906110bc565b905060007f000000000000000000000000000000000000000000000000000000000000000073ffffffffffffffffffffffffffffffffffffffff1663a9059cbb33846040518363ffffffff1660e01b815260040161065e929190610f93565b602060405180830381600087803b15801561067857600080fd5b505af115801561068c573d6000803e3d6000fd5b505050506040513d601f19601f820116820180604052508101906106b09190610fe8565b9050806106f2576040517f08c379a00000000000000000000000000000000000000000000000000000000081526004016106e990611087565b60405180910390fd5b5050565b60016020528060005260406000206000915090505481565b6107166108c2565b6000801b82141561075c576040517f08c379a00000000000000000000000000000000000000000000000000000000081526004016107539061115b565b60405180910390fd5b6000801b6001600083815260200190815260200160002054146107b4576040517f08c379a00000000000000000000000000000000000000000000000000000000081526004016107ab906111c7565b60405180910390fd5b8160016000838152602001908152602001600020819055505050565b6107d86108c2565b600073ffffffffffffffffffffffffffffffffffffffff168173ffffffffffffffffffffffffffffffffffffffff161415610848576040517f08c379a000000000000000000000000000000000000000000000000000000000815260040161083f90611259565b60405180910390fd5b61085181610940565b50565b7f000000000000000000000000000000000000000000000000000000000000000081565b6000828260405160200161088d9291906112e2565b60405160208183030381529060405280519060200120905092915050565b6000826108b88584610a04565b1490509392505050565b6108ca610a5a565b73ffffffffffffffffffffffffffffffffffffffff166108e8610523565b73ffffffffffffffffffffffffffffffffffffffff161461093e576040517f08c379a00000000000000000000000000000000000000000000000000000000081526004016109359061135a565b60405180910390fd5b565b60008060009054906101000a900473ffffffffffffffffffffffffffffffffffffffff169050816000806101000a81548173ffffffffffffffffffffffffffffffffffffffff021916908373ffffffffffffffffffffffffffffffffffffffff1602179055508173ffffffffffffffffffffffffffffffffffffffff168173ffffffffffffffffffffffffffffffffffffffff167f8be0079c531659141344cd1fd0a4f28419497f9722a3daafe3b4186f6b6457e060405160405180910390a35050565b60008082905060005b8451811015610a4f57610a3a82868381518110610a2d57610a2c61137a565b5b6020026020010151610a62565b91508080610a47906113d8565b915050610a0d565b508091505092915050565b600033905090565b6000818310610a7a57610a758284610a8d565b610a85565b610a848383610a8d565b5b905092915050565b600082600052816020526040600020905092915050565b600080fd5b600080fd5b6000819050919050565b610ac181610aae565b8114610acc57600080fd5b50565b600081359050610ade81610ab8565b92915050565b600073ffffffffffffffffffffffffffffffffffffffff82169050919050565b6000610b0f82610ae4565b9050919050565b610b1f81610b04565b8114610b2a57600080fd5b50565b600081359050610b3c81610b16565b92915050565b60008060408385031215610b5957610b58610aa4565b5b6000610b6785828601610acf565b9250506020610b7885828601610b2d565b9150509250929050565b60008115159050919050565b610b9781610b82565b82525050565b6000602082019050610bb26000830184610b8e565b92915050565b600080fd5b600080fd5b600080fd5b60008083601f840112610bdd57610bdc610bb8565b5b8235905067ffffffffffffffff811115610bfa57610bf9610bbd565b5b602083019150836020820283011115610c1657610c15610bc2565b5b9250929050565b60008060008060608587031215610c3757610c36610aa4565b5b600085013567ffffffffffffffff811115610c5557610c54610aa9565b5b610c6187828801610bc7565b94509450506020610c7487828801610acf565b9250506040610c8587828801610acf565b91505092959194509250565b610c9a81610b04565b82525050565b6000602082019050610cb56000830184610c91565b92915050565b600060208284031215610cd157610cd0610aa4565b5b6000610cdf84828501610acf565b91505092915050565b6000819050919050565b610cfb81610ce8565b82525050565b6000602082019050610d166000830184610cf2565b92915050565b610d2581610ce8565b8114610d3057600080fd5b50565b600081359050610d4281610d1c565b92915050565b60008060408385031215610d5f57610d5e610aa4565b5b6000610d6d85828601610d33565b9250506020610d7e85828601610acf565b9150509250929050565b600060208284031215610d9e57610d9d610aa4565b5b6000610dac84828501610b2d565b91505092915050565b6000819050919050565b6000610dda610dd5610dd084610ae4565b610db5565b610ae4565b9050919050565b6000610dec82610dbf565b9050919050565b6000610dfe82610de1565b9050919050565b610e0e81610df3565b82525050565b6000602082019050610e296000830184610e05565b92915050565b600082825260208201905092915050565b7f4665654469737472696275746f723a20416c726561647920636c61696d656400600082015250565b6000610e76601f83610e2f565b9150610e8182610e40565b602082019050919050565b60006020820190508181036000830152610ea581610e69565b9050919050565b7f4665654469737472696275746f723a20526f6f74206e6f742073657400000000600082015250565b6000610ee2601c83610e2f565b9150610eed82610eac565b602082019050919050565b60006020820190508181036000830152610f1181610ed5565b9050919050565b7f4665654469737472696275746f723a20496e76616c69642070726f6f66000000600082015250565b6000610f4e601d83610e2f565b9150610f5982610f18565b602082019050919050565b60006020820190508181036000830152610f7d81610f41565b9050919050565b610f8d81610aae565b82525050565b6000604082019050610fa86000830185610c91565b610fb56020830184610f84565b9392505050565b610fc581610b82565b8114610fd057600080fd5b50565b600081519050610fe281610fbc565b92915050565b600060208284031215610ffe57610ffd610aa4565b5b600061100c84828501610fd3565b91505092915050565b7f4665654469737472696275746f723a204552433230207472616e73666572206660008201527f61696c6564000000000000000000000000000000000000000000000000000000602082015250565b6000611071602583610e2f565b915061107c82611015565b604082019050919050565b600060208201905081810360008301526110a081611064565b9050919050565b6000815190506110b681610ab8565b92915050565b6000602082840312156110d2576110d1610aa4565b5b60006110e0848285016110a7565b91505092915050565b7f4665654469737472696275746f723a20496e76616c6964206d65726b6c65207260008201527f6f6f740000000000000000000000000000000000000000000000000000000000602082015250565b6000611145602383610e2f565b9150611150826110e9565b604082019050919050565b6000602082019050818103600083015261117481611138565b9050919050565b7f4665654469737472696275746f723a20526f6f7420616c726561647920736574600082015250565b60006111b1602083610e2f565b91506111bc8261117b565b602082019050919050565b600060208201905081810360008301526111e0816111a4565b9050919050565b7f4f776e61626c653a206e6577206f776e657220697320746865207a65726f206160008201527f6464726573730000000000000000000000000000000000000000000000000000602082015250565b6000611243602683610e2f565b915061124e826111e7565b604082019050919050565b6000602082019050818103600083015261127281611236565b9050919050565b60008160601b9050919050565b600061129182611279565b9050919050565b60006112a382611286565b9050919050565b6112bb6112b682610b04565b611298565b82525050565b6000819050919050565b6112dc6112d782610aae565b6112c1565b82525050565b60006112ee82856112aa565b6014820191506112fe82846112cb565b6020820191508190509392505050565b7f4f776e61626c653a2063616c6c6572206973206e6f7420746865206f776e6572600082015250565b6000611344602083610e2f565b915061134f8261130e565b602082019050919050565b6000602082019050818103600083015261137381611337565b9050919050565b7f4e487b7100000000000000000000000000000000000000000000000000000000600052603260045260246000fd5b7f4e487b7100000000000000000000000000000000000000000000000000000000600052601160045260246000fd5b60006113e382610aae565b91507fffffffffffffffffffffffffffffffffffffffffffffffffffffffffffffffff821415611416576114156113a9565b5b60018201905091905056fea2646970667358221220a9ceb7fd352f949ee6ff0390381648c09253803e271638651c8191e363a547cd64736f6c63430008090033",
  "linkReferences": {},
  "deployedLinkReferences": {}
}