{
  "abi": [
    {
      "inputs": [
        {
          "internalType": "address",
          "name": "_myc",
          "type": "address"
        },
        {
          "internalType": "address",
          "name": "_gov",
          "type": "address"
        },
        {
          "internalType": "uint8",
          "name": "_decimals",
          "type": "uint8"
        },
        {
          "internalType": "uint256",
          "name": "_cycleLength",
          "type": "uint256"
        },
        {
          "internalType": "uint256",
          "name": "_firstCycleStart",
          "type": "uint256"
        },
        {
          "internalType": "uint256",
          "name": "_preCycleTimelock",
          "type": "uint256"
        },
        {
          "internalType": "uint256",
          "name": "_depositCap",
          "type": "uint256"
        }
      ],
      "stateMutability": "nonpayable",
      "type": "constructor"
    },
    {
      "anonymous": false,
      "inputs": [
        {
          "indexed": true,
          "internalType": "address",
          "name": "owner",
          "type": "address"
        },
        {
          "indexed": true,
          "internalType": "address",
          "name": "spender",
          "type": "address"
        },
        {
          "indexed": false,
          "internalType": "uint256",
          "name": "amount",
          "type": "uint256"
        }
      ],
      "name": "Approval",
      "type": "event"
    },
    {
      "anonymous": false,
      "inputs": [],
      "name": "CancelGovTransfer",
      "type": "event"
    },
    {
      "anonymous": false,
      "inputs": [
        {
          "indexed": false,
          "internalType": "address",
          "name": "claimant",
          "type": "address"
        },
        {
          "indexed": false,
          "internalType": "bool",
          "name": "asMyc",
          "type": "bool"
        },
        {
          "indexed": false,
          "internalType": "uint256",
          "name": "rewards",
          "type": "uint256"
        }
      ],
      "name": "Claimed",
      "type": "event"
    },
    {
      "anonymous": false,
      "inputs": [
        {
          "indexed": false,
          "internalType": "address",
          "name": "user",
          "type": "address"
        },
        {
          "indexed": false,
          "internalType": "uint256",
          "name": "ethAmount",
          "type": "uint256"
        },
        {
          "indexed": false,
          "internalType": "uint256",
          "name": "mycAmount",
          "type": "uint256"
        }
      ],
      "name": "Compound",
      "type": "event"
    },
    {
      "anonymous": false,
      "inputs": [
        {
          "indexed": false,
          "internalType": "address",
          "name": "depositor",
          "type": "address"
        },
        {
          "indexed": false,
          "internalType": "uint256",
          "name": "amount",
          "type": "uint256"
        }
      ],
      "name": "Deposit",
      "type": "event"
    },
    {
      "anonymous": false,
      "inputs": [
        {
          "indexed": false,
          "internalType": "address",
          "name": "oldGov",
          "type": "address"
        },
        {
          "indexed": false,
          "internalType": "address",
          "name": "newGov",
          "type": "address"
        }
      ],
      "name": "NewGov",
      "type": "event"
    },
    {
      "anonymous": false,
      "inputs": [
        {
          "indexed": false,
          "internalType": "bool",
          "name": "paused",
          "type": "bool"
        }
      ],
      "name": "Pause",
      "type": "event"
    },
    {
      "anonymous": false,
      "inputs": [
        {
          "indexed": false,
          "internalType": "address",
          "name": "redeemor",
          "type": "address"
        },
        {
          "indexed": false,
          "internalType": "uint256",
          "name": "amount",
          "type": "uint256"
        }
      ],
      "name": "Redeem",
      "type": "event"
    },
    {
      "anonymous": false,
      "inputs": [
        {
          "indexed": false,
          "internalType": "uint256",
          "name": "oldCycleLength",
          "type": "uint256"
        },
        {
          "indexed": false,
          "internalType": "uint256",
          "name": "newCycleLength",
          "type": "uint256"
        }
      ],
      "name": "SetCycleLength",
      "type": "event"
    },
    {
      "anonymous": false,
      "inputs": [
        {
          "indexed": false,
          "internalType": "uint256",
          "name": "depositCap",
          "type": "uint256"
        },
        {
          "indexed": false,
          "internalType": "uint256",
          "name": "newDepositCap",
          "type": "uint256"
        }
      ],
      "name": "SetDepositCap",
      "type": "event"
    },
    {
      "anonymous": false,
      "inputs": [
        {
          "indexed": false,
          "internalType": "address",
          "name": "oldMycBuyer",
          "type": "address"
        },
        {
          "indexed": false,
          "internalType": "address",
          "name": "newMycBuyer",
          "type": "address"
        }
      ],
      "name": "SetMycBuyer",
      "type": "event"
    },
    {
      "anonymous": false,
      "inputs": [
        {
          "indexed": false,
          "internalType": "bool",
          "name": "_pausedTransferMode",
          "type": "bool"
        }
      ],
      "name": "SetPausedTransferMode",
      "type": "event"
    },
    {
      "anonymous": false,
      "inputs": [
        {
          "indexed": false,
          "internalType": "uint256",
          "name": "oldPreCycleTimelock",
          "type": "uint256"
        },
        {
          "indexed": false,
          "internalType": "uint256",
          "name": "preCycleTimelock",
          "type": "uint256"
        }
      ],
      "name": "SetPreCycleTimelock",
      "type": "event"
    },
    {
      "anonymous": false,
      "inputs": [
        {
          "indexed": false,
          "internalType": "address",
          "name": "user",
          "type": "address"
        },
        {
          "indexed": false,
          "internalType": "bool",
          "name": "autoCompound",
          "type": "bool"
        }
      ],
      "name": "SetUserAutoCompound",
      "type": "event"
    },
    {
      "anonymous": false,
      "inputs": [
        {
          "indexed": false,
          "internalType": "address",
          "name": "newGov",
          "type": "address"
        }
      ],
      "name": "SignalSetGov",
      "type": "event"
    },
    {
      "anonymous": false,
      "inputs": [
        {
          "indexed": false,
          "internalType": "uint256",
          "name": "cycleStartTime",
          "type": "uint256"
        }
      ],
      "name": "StartCycle",
      "type": "event"
    },
    {
      "anonymous": false,
      "inputs": [
        {
          "indexed": true,
          "internalType": "address",
          "name": "from",
          "type": "address"
        },
        {
          "indexed": true,
          "internalType": "address",
          "name": "to",
          "type": "address"
        },
        {
          "indexed": false,
          "internalType": "uint256",
          "name": "amount",
          "type": "uint256"
        }
      ],
      "name": "Transfer",
      "type": "event"
    },
    {
      "inputs": [],
      "name": "DOMAIN_SEPARATOR",
      "outputs": [
        {
          "internalType": "bytes32",
          "name": "",
          "type": "bytes32"
        }
      ],
      "stateMutability": "view",
      "type": "function"
    },
    {
      "inputs": [
        {
          "internalType": "address",
          "name": "",
          "type": "address"
        },
        {
          "internalType": "address",
          "name": "",
          "type": "address"
        }
      ],
      "name": "allowance",
      "outputs": [
        {
          "internalType": "uint256",
          "name": "",
          "type": "uint256"
        }
      ],
      "stateMutability": "view",
      "type": "function"
    },
    {
      "inputs": [],
      "name": "amountDeployed",
      "outputs": [
        {
          "internalType": "uint256",
          "name": "",
          "type": "uint256"
        }
      ],
      "stateMutability": "view",
      "type": "function"
    },
    {
      "inputs": [
        {
          "internalType": "address",
          "name": "spender",
          "type": "address"
        },
        {
          "internalType": "uint256",
          "name": "amount",
          "type": "uint256"
        }
      ],
      "name": "approve",
      "outputs": [
        {
          "internalType": "bool",
          "name": "",
          "type": "bool"
        }
      ],
      "stateMutability": "nonpayable",
      "type": "function"
    },
    {
      "inputs": [],
      "name": "asset",
      "outputs": [
        {
          "internalType": "contract ERC20",
          "name": "",
          "type": "address"
        }
      ],
      "stateMutability": "view",
      "type": "function"
    },
    {
      "inputs": [
        {
          "internalType": "address",
          "name": "",
          "type": "address"
        }
      ],
      "name": "balanceOf",
      "outputs": [
        {
          "internalType": "uint256",
          "name": "",
          "type": "uint256"
        }
      ],
      "stateMutability": "view",
      "type": "function"
    },
    {
      "inputs": [],
      "name": "cancelGovTransfer",
      "outputs": [],
      "stateMutability": "nonpayable",
      "type": "function"
    },
    {
      "inputs": [
        {
          "internalType": "bool",
          "name": "asMyc",
          "type": "bool"
        },
        {
          "internalType": "bytes",
          "name": "data",
          "type": "bytes"
        }
      ],
      "name": "claim",
      "outputs": [],
      "stateMutability": "nonpayable",
      "type": "function"
    },
    {
      "inputs": [],
      "name": "claimGov",
      "outputs": [],
      "stateMutability": "nonpayable",
      "type": "function"
    },
    {
      "inputs": [
        {
          "internalType": "address",
          "name": "user",
          "type": "address"
        },
        {
          "internalType": "bytes",
          "name": "data",
          "type": "bytes"
        }
      ],
      "name": "compound",
      "outputs": [],
      "stateMutability": "nonpayable",
      "type": "function"
    },
    {
      "inputs": [
        {
          "internalType": "uint256",
          "name": "_shares",
          "type": "uint256"
        },
        {
          "internalType": "uint256",
          "name": "_totalAssets",
          "type": "uint256"
        },
        {
          "internalType": "uint256",
          "name": "_totalSupply",
          "type": "uint256"
        }
      ],
      "name": "convertToAssets",
      "outputs": [
        {
          "internalType": "uint256",
          "name": "",
          "type": "uint256"
        }
      ],
      "stateMutability": "view",
      "type": "function"
    },
    {
      "inputs": [
        {
          "internalType": "uint256",
          "name": "_assets",
          "type": "uint256"
        },
        {
          "internalType": "uint256",
          "name": "_totalAssets",
          "type": "uint256"
        },
        {
          "internalType": "uint256",
          "name": "_totalSupply",
          "type": "uint256"
        }
      ],
      "name": "convertToShares",
      "outputs": [
        {
          "internalType": "uint256",
          "name": "",
          "type": "uint256"
        }
      ],
      "stateMutability": "view",
      "type": "function"
    },
    {
      "inputs": [],
      "name": "cycle",
      "outputs": [
        {
          "internalType": "uint256",
          "name": "",
          "type": "uint256"
        }
      ],
      "stateMutability": "view",
      "type": "function"
    },
    {
      "inputs": [
        {
          "internalType": "uint256",
          "name": "",
          "type": "uint256"
        }
      ],
      "name": "cycleCumulativeEthRewards",
      "outputs": [
        {
          "internalType": "uint256",
          "name": "",
          "type": "uint256"
        }
      ],
      "stateMutability": "view",
      "type": "function"
    },
    {
      "inputs": [],
      "name": "cycleLength",
      "outputs": [
        {
          "internalType": "uint256",
          "name": "",
          "type": "uint256"
        }
      ],
      "stateMutability": "view",
      "type": "function"
    },
    {
      "inputs": [
        {
          "internalType": "uint256",
          "name": "",
          "type": "uint256"
        }
      ],
      "name": "cycleSharesAndAssets",
      "outputs": [
        {
          "internalType": "uint256",
          "name": "_totalSupply",
          "type": "uint256"
        },
        {
          "internalType": "uint256",
          "name": "_totalAssets",
          "type": "uint256"
        }
      ],
      "stateMutability": "view",
      "type": "function"
    },
    {
      "inputs": [],
      "name": "cycleStartTime",
      "outputs": [
        {
          "internalType": "uint256",
          "name": "",
          "type": "uint256"
        }
      ],
      "stateMutability": "view",
      "type": "function"
    },
    {
      "inputs": [],
      "name": "decimals",
      "outputs": [
        {
          "internalType": "uint8",
          "name": "",
          "type": "uint8"
        }
      ],
      "stateMutability": "view",
      "type": "function"
    },
    {
      "inputs": [
        {
          "internalType": "uint256",
          "name": "assets",
          "type": "uint256"
        },
        {
          "internalType": "address",
          "name": "receiver",
          "type": "address"
        }
      ],
      "name": "deposit",
      "outputs": [],
      "stateMutability": "nonpayable",
      "type": "function"
    },
    {
      "inputs": [],
      "name": "depositCap",
      "outputs": [
        {
          "internalType": "uint256",
          "name": "",
          "type": "uint256"
        }
      ],
      "stateMutability": "view",
      "type": "function"
    },
    {
      "inputs": [],
      "name": "dust",
      "outputs": [
        {
          "internalType": "uint256",
          "name": "",
          "type": "uint256"
        }
      ],
      "stateMutability": "view",
      "type": "function"
    },
    {
      "inputs": [
        {
          "internalType": "address",
          "name": "user",
          "type": "address"
        }
      ],
      "name": "getClaimableAmount",
      "outputs": [
        {
          "internalType": "uint256",
          "name": "",
          "type": "uint256"
        }
      ],
      "stateMutability": "view",
      "type": "function"
    },
    {
      "inputs": [],
      "name": "gov",
      "outputs": [
        {
          "internalType": "address",
          "name": "",
          "type": "address"
        }
      ],
      "stateMutability": "view",
      "type": "function"
    },
    {
      "inputs": [],
      "name": "inPausedTransferMode",
      "outputs": [
        {
          "internalType": "bool",
          "name": "",
          "type": "bool"
        }
      ],
      "stateMutability": "view",
      "type": "function"
    },
    {
      "inputs": [
        {
          "internalType": "address",
          "name": "",
          "type": "address"
        }
      ],
      "name": "latestPendingDeposit",
      "outputs": [
        {
          "internalType": "uint256",
          "name": "",
          "type": "uint256"
        }
      ],
      "stateMutability": "view",
      "type": "function"
    },
    {
      "inputs": [
        {
          "internalType": "address",
          "name": "",
          "type": "address"
        }
      ],
      "name": "latestPendingRedeem",
      "outputs": [
        {
          "internalType": "uint256",
          "name": "",
          "type": "uint256"
        }
      ],
      "stateMutability": "view",
      "type": "function"
    },
    {
      "inputs": [
        {
          "internalType": "address",
          "name": "",
          "type": "address"
        }
      ],
      "name": "maxDeposit",
      "outputs": [
        {
          "internalType": "uint256",
          "name": "",
          "type": "uint256"
        }
      ],
      "stateMutability": "pure",
      "type": "function"
    },
    {
      "inputs": [
        {
          "internalType": "address",
          "name": "owner",
          "type": "address"
        }
      ],
      "name": "maxRedeem",
      "outputs": [
        {
          "internalType": "uint256",
          "name": "",
          "type": "uint256"
        }
      ],
      "stateMutability": "view",
      "type": "function"
    },
    {
      "inputs": [],
      "name": "mycBuyer",
      "outputs": [
        {
          "internalType": "address",
          "name": "",
          "type": "address"
        }
      ],
      "stateMutability": "view",
      "type": "function"
    },
    {
      "inputs": [],
      "name": "name",
      "outputs": [
        {
          "internalType": "string",
          "name": "",
          "type": "string"
        }
      ],
      "stateMutability": "view",
      "type": "function"
    },
    {
      "inputs": [
        {
          "internalType": "uint256",
          "name": "mycLostLastCycle",
          "type": "uint256"
        },
        {
          "internalType": "uint256",
          "name": "amountToWithdraw",
          "type": "uint256"
        }
      ],
      "name": "newCycle",
      "outputs": [],
      "stateMutability": "payable",
      "type": "function"
    },
    {
      "inputs": [
        {
          "internalType": "address",
          "name": "",
          "type": "address"
        }
      ],
      "name": "nonces",
      "outputs": [
        {
          "internalType": "uint256",
          "name": "",
          "type": "uint256"
        }
      ],
      "stateMutability": "view",
      "type": "function"
    },
    {
      "inputs": [],
      "name": "paused",
      "outputs": [
        {
          "internalType": "bool",
          "name": "",
          "type": "bool"
        }
      ],
      "stateMutability": "view",
      "type": "function"
    },
    {
      "inputs": [],
      "name": "pendingDeposits",
      "outputs": [
        {
          "internalType": "uint256",
          "name": "",
          "type": "uint256"
        }
      ],
      "stateMutability": "view",
      "type": "function"
    },
    {
      "inputs": [],
      "name": "pendingNewGov",
      "outputs": [
        {
          "internalType": "address",
          "name": "",
          "type": "address"
        }
      ],
      "stateMutability": "view",
      "type": "function"
    },
    {
      "inputs": [],
      "name": "pendingRedeems",
      "outputs": [
        {
          "internalType": "uint256",
          "name": "",
          "type": "uint256"
        }
      ],
      "stateMutability": "view",
      "type": "function"
    },
    {
      "inputs": [
        {
          "internalType": "address",
          "name": "owner",
          "type": "address"
        },
        {
          "internalType": "address",
          "name": "spender",
          "type": "address"
        },
        {
          "internalType": "uint256",
          "name": "value",
          "type": "uint256"
        },
        {
          "internalType": "uint256",
          "name": "deadline",
          "type": "uint256"
        },
        {
          "internalType": "uint8",
          "name": "v",
          "type": "uint8"
        },
        {
          "internalType": "bytes32",
          "name": "r",
          "type": "bytes32"
        },
        {
          "internalType": "bytes32",
          "name": "s",
          "type": "bytes32"
        }
      ],
      "name": "permit",
      "outputs": [],
      "stateMutability": "nonpayable",
      "type": "function"
    },
    {
      "inputs": [],
      "name": "preCycleTimelock",
      "outputs": [
        {
          "internalType": "uint256",
          "name": "",
          "type": "uint256"
        }
      ],
      "stateMutability": "view",
      "type": "function"
    },
    {
      "inputs": [
        {
          "internalType": "uint256",
          "name": "assets",
          "type": "uint256"
        }
      ],
      "name": "previewDeposit",
      "outputs": [
        {
          "internalType": "uint256",
          "name": "",
          "type": "uint256"
        }
      ],
      "stateMutability": "view",
      "type": "function"
    },
    {
      "inputs": [
        {
          "internalType": "uint256",
          "name": "shares",
          "type": "uint256"
        }
      ],
      "name": "previewRedeem",
      "outputs": [
        {
          "internalType": "uint256",
          "name": "",
          "type": "uint256"
        }
      ],
      "stateMutability": "view",
      "type": "function"
    },
    {
      "inputs": [
        {
          "internalType": "uint256",
          "name": "shares",
          "type": "uint256"
        },
        {
          "internalType": "address",
          "name": "receiver",
          "type": "address"
        },
        {
          "internalType": "address",
          "name": "owner",
          "type": "address"
        }
      ],
      "name": "redeem",
      "outputs": [],
      "stateMutability": "nonpayable",
      "type": "function"
    },
    {
      "inputs": [
        {
          "internalType": "uint256",
          "name": "amount",
          "type": "uint256"
        }
      ],
      "name": "returnMyc",
      "outputs": [],
      "stateMutability": "nonpayable",
      "type": "function"
    },
    {
      "inputs": [
        {
          "internalType": "uint256",
          "name": "newCycleLength",
          "type": "uint256"
        }
      ],
      "name": "setCycleLength",
      "outputs": [],
      "stateMutability": "nonpayable",
      "type": "function"
    },
    {
      "inputs": [
        {
          "internalType": "uint256",
          "name": "newDepositCap",
          "type": "uint256"
        }
      ],
      "name": "setDepositCap",
      "outputs": [],
      "stateMutability": "nonpayable",
      "type": "function"
    },
    {
      "inputs": [
        {
          "internalType": "bool",
          "name": "_pausedTransferMode",
          "type": "bool"
        }
      ],
      "name": "setInPausedTransferMode",
      "outputs": [],
      "stateMutability": "nonpayable",
      "type": "function"
    },
    {
      "inputs": [
        {
          "internalType": "address",
          "name": "_mycBuyer",
          "type": "address"
        }
      ],
      "name": "setMycBuyer",
      "outputs": [],
      "stateMutability": "nonpayable",
      "type": "function"
    },
    {
      "inputs": [
        {
          "internalType": "bool",
          "name": "_paused",
          "type": "bool"
        }
      ],
      "name": "setPaused",
      "outputs": [],
      "stateMutability": "nonpayable",
      "type": "function"
    },
    {
      "inputs": [
        {
          "internalType": "uint256",
          "name": "newPreCycleTimelock",
          "type": "uint256"
        }
      ],
      "name": "setPreCycleTimelock",
      "outputs": [],
      "stateMutability": "nonpayable",
      "type": "function"
    },
    {
      "inputs": [
        {
          "internalType": "bool",
          "name": "autoCompound",
          "type": "bool"
        }
      ],
      "name": "setUserAutoCompound",
      "outputs": [],
      "stateMutability": "nonpayable",
      "type": "function"
    },
    {
      "inputs": [
        {
          "internalType": "address",
          "name": "_gov",
          "type": "address"
        }
      ],
      "name": "signalSetGov",
      "outputs": [],
      "stateMutability": "nonpayable",
      "type": "function"
    },
    {
      "inputs": [],
      "name": "symbol",
      "outputs": [
        {
          "internalType": "string",
          "name": "",
          "type": "string"
        }
      ],
      "stateMutability": "view",
      "type": "function"
    },
    {
      "inputs": [],
      "name": "totalAssets",
      "outputs": [
        {
          "internalType": "uint256",
          "name": "",
          "type": "uint256"
        }
      ],
      "stateMutability": "view",
      "type": "function"
    },
    {
      "inputs": [],
      "name": "totalSupply",
      "outputs": [
        {
          "internalType": "uint256",
          "name": "",
          "type": "uint256"
        }
      ],
      "stateMutability": "view",
      "type": "function"
    },
    {
      "inputs": [
        {
          "internalType": "address",
          "name": "to",
          "type": "address"
        },
        {
          "internalType": "uint256",
          "name": "amount",
          "type": "uint256"
        }
      ],
      "name": "transfer",
      "outputs": [
        {
          "internalType": "bool",
          "name": "",
          "type": "bool"
        }
      ],
      "stateMutability": "nonpayable",
      "type": "function"
    },
    {
      "inputs": [
        {
          "internalType": "address",
          "name": "from",
          "type": "address"
        },
        {
          "internalType": "address",
          "name": "to",
          "type": "address"
        },
        {
          "internalType": "uint256",
          "name": "amount",
          "type": "uint256"
        }
      ],
      "name": "transferFrom",
      "outputs": [
        {
          "internalType": "bool",
          "name": "",
          "type": "bool"
        }
      ],
      "stateMutability": "nonpayable",
      "type": "function"
    },
    {
      "inputs": [
        {
          "internalType": "address",
          "name": "user",
          "type": "address"
        }
      ],
      "name": "trueBalanceOf",
      "outputs": [
        {
          "internalType": "uint256",
          "name": "",
          "type": "uint256"
        }
      ],
      "stateMutability": "view",
      "type": "function"
    },
    {
      "inputs": [
        {
          "internalType": "address",
          "name": "user",
          "type": "address"
        }
      ],
      "name": "updateUser",
      "outputs": [],
      "stateMutability": "nonpayable",
      "type": "function"
    },
    {
      "inputs": [
        {
          "internalType": "address",
          "name": "",
          "type": "address"
        }
      ],
      "name": "userAutoCompound",
      "outputs": [
        {
          "internalType": "bool",
          "name": "",
          "type": "bool"
        }
      ],
      "stateMutability": "view",
      "type": "function"
    },
    {
      "inputs": [
        {
          "internalType": "address",
          "name": "",
          "type": "address"
        }
      ],
      "name": "userCumulativeEthRewards",
      "outputs": [
        {
          "internalType": "uint256",
          "name": "",
          "type": "uint256"
        }
      ],
      "stateMutability": "view",
      "type": "function"
    },
    {
      "inputs": [
        {
          "internalType": "address",
          "name": "",
          "type": "address"
        }
      ],
      "name": "userEthRewardsClaimed",
      "outputs": [
        {
          "internalType": "uint256",
          "name": "",
          "type": "uint256"
        }
      ],
      "stateMutability": "view",
      "type": "function"
    },
    {
      "inputs": [
        {
          "internalType": "address",
          "name": "",
          "type": "address"
        }
      ],
      "name": "userLastUpdated",
      "outputs": [
        {
          "internalType": "uint256",
          "name": "",
          "type": "uint256"
        }
      ],
      "stateMutability": "view",
      "type": "function"
    },
    {
      "inputs": [
        {
          "internalType": "address",
          "name": "",
          "type": "address"
        }
      ],
      "name": "userPendingDeposits",
      "outputs": [
        {
          "internalType": "uint256",
          "name": "",
          "type": "uint256"
        }
      ],
      "stateMutability": "view",
      "type": "function"
    },
    {
      "inputs": [
        {
          "internalType": "address",
          "name": "",
          "type": "address"
        }
      ],
      "name": "userPendingRedeems",
      "outputs": [
        {
          "internalType": "uint256",
          "name": "",
          "type": "uint256"
        }
      ],
      "stateMutability": "view",
      "type": "function"
    },
    {
      "inputs": [
        {
          "internalType": "uint256",
          "name": "amount",
          "type": "uint256"
        }
      ],
      "name": "withdrawEth",
      "outputs": [],
      "stateMutability": "nonpayable",
      "type": "function"
    },
    {
      "inputs": [
        {
          "internalType": "address",
          "name": "token",
          "type": "address"
        },
        {
          "internalType": "uint256",
          "name": "amount",
          "type": "uint256"
        }
      ],
      "name": "withdrawToken",
      "outputs": [],
      "stateMutability": "nonpayable",
      "type": "function"
    }
  ],
  "bytecode": {
    "object": "0x6101006040526006805460ff60a81b1916600160a81b1790556001600a553480156200002a57600080fd5b5060405162003a8a38038062003a8a8339810160408190526200004d91620003b8565b604051806040016040528060078152602001666c656e744d594360c81b815250604051806040016040528060048152602001636c4d594360e01b8152508682600090816200009c9190620004ce565b506001620000ab8382620004ce565b5060ff81166080524660a052620000c1620002ed565b60c0525050506001600160a01b03871660e08190526040805163313ce56760e01b8152905160ff8816929163313ce5679160048083019260209291908290030181865afa15801562000117573d6000803e3d6000fd5b505050506040513d601f19601f820116820180604052508101906200013d91906200059a565b60ff1614620001925760405162461bcd60e51b815260206004820152601460248201527f4d69736d61746368696e6720646563696d616c73000000000000000000000000604482015260640160405180910390fd5b600780546001600160a01b0319166001600160a01b0388169081179091556009859055600b849055600c839055601b829055604080516000815260208101929092527f1f14cfc03e486d23acee577b07bc0b3b23f4888c91fcdba5e0fef5a2549d5523910160405180910390a16040805160008152602081018690527fe6df33a3a375cdf67b809f4502e9e63952a194da6a74da2137142ab3d7612349910160405180910390a16040518381527fb49c272d1d7a82990548b1e00479488c9a98e7b38824f0e941622b95a82f82da9060200160405180910390a16040805160008152602081018490527f3dfd1b46ffb6bf2700625ddeb7bdc1d92e6b9c49e3690b82115872bf5cdada5a910160405180910390a16040805160008152602081018390527f956e7aa988106f059c11ed7903de5532fa0581099295db11514cb99180560a66910160405180910390a1505050505050506200063d565b60007f8b73c3c69bb8fe3d512ecc4cf759cc79239f7b179b0ffacaa9a75d522b39400f6000604051620003219190620005bf565b6040805191829003822060208301939093528101919091527fc89efdaa54c0f20c7adf612882df0950f5a951637e0307cdcb4c672f298b8bc660608201524660808201523060a082015260c00160405160208183030381529060405280519060200120905090565b80516001600160a01b0381168114620003a157600080fd5b919050565b805160ff81168114620003a157600080fd5b600080600080600080600060e0888a031215620003d457600080fd5b620003df8862000389565b9650620003ef6020890162000389565b9550620003ff60408901620003a6565b9450606088015193506080880151925060a0880151915060c0880151905092959891949750929550565b634e487b7160e01b600052604160045260246000fd5b600181811c908216806200045457607f821691505b6020821081036200047557634e487b7160e01b600052602260045260246000fd5b50919050565b601f821115620004c957600081815260208120601f850160051c81016020861015620004a45750805b601f850160051c820191505b81811015620004c557828155600101620004b0565b5050505b505050565b81516001600160401b03811115620004ea57620004ea62000429565b6200050281620004fb84546200043f565b846200047b565b602080601f8311600181146200053a5760008415620005215750858301515b600019600386901b1c1916600185901b178555620004c5565b600085815260208120601f198616915b828110156200056b578886015182559484019460019091019084016200054a565b50858210156200058a5787850151600019600388901b60f8161c191681555b5050505050600190811b01905550565b600060208284031215620005ad57600080fd5b620005b882620003a6565b9392505050565b6000808354620005cf816200043f565b60018281168015620005ea5760018114620006005762000631565b60ff198416875282151583028701945062000631565b8760005260208060002060005b85811015620006285781548a8201529084019082016200060d565b50505082870194505b50929695505050505050565b60805160a05160c05160e0516133db620006af6000396000818161066d01528181610f3e015281816113680152818161169401528181611703015281816121130152818161240b0152818161251c01526129d00152600061104f0152600061101a015260006105cf01526133db6000f3fe6080604052600436106103ce5760003560e01c80637e17d395116101fd578063cc92db1711610118578063e12f3a61116100ab578063ed03b3361161007a578063ed03b33614610bec578063ef8b30f714610c0c578063f264525c14610c2c578063fad9aba314610c59578063fdebc89b14610c6f57600080fd5b8063e12f3a6114610b69578063e6519f6814610b89578063ea52c74014610ba9578063eac471a014610bd657600080fd5b8063d761f7a8116100e7578063d761f7a814610ace578063d905777e14610afb578063dbd5edc714610b1b578063dd62ed3e14610b3157600080fd5b8063cc92db1714610a34578063cf2ba8f314610a61578063d0e3845314610a81578063d505accf14610aae57600080fd5b80639e281a9811610190578063b5a7790a1161015f578063b5a7790a146109b4578063ba087652146109d4578063c311d049146109f4578063c50cb15614610a1457600080fd5b80639e281a9814610949578063a8e4f4ff14610969578063a9059cbb1461097f578063a925859c1461099f57600080fd5b806386651203116101cc57806386651203146108de5780639119c067146108fe57806395d89b41146109145780639788ad711461092957600080fd5b80637e17d3951461085e5780637ecebe001461087e5780638442f52f146108ab5780638494b0c2146108cb57600080fd5b806336c4f166116102ed5780635c975abb1161028057806369a477371161024f57806369a47737146107d05780636a597c4f146107f15780636e553f651461081157806370a082311461083157600080fd5b80635c975abb146107575780635ddd646c146107785780636190c9d5146107a557806364371ae2146107bb57600080fd5b8063402d267d116102bc578063402d267d146106cf57806344d5f787146106f15780634cdad506146107215780635c074f441461074157600080fd5b806336c4f1661461062e57806338d52e0f1461065b5780633c0befa91461068f5780633d84ceca146106af57600080fd5b806317460a2e116103655780632f8bc0ef116103345780632f8bc0ef1461059d578063313ce567146105bd578063335e536c146106035780633644e5151461061957600080fd5b806317460a2e1461053157806318160ddd1461054757806323b872dd1461055d578063279eb0241461057d57600080fd5b80631138e15c116103a15780631138e15c1461046e578063118d4d9b146104b757806312d43a51146104ef57806316c38b3c1461050f57600080fd5b806301e1d114146103d357806306fdde03146103fc578063095ea7b31461041e5780630f0d7ff21461044e575b600080fd5b3480156103df57600080fd5b506103e960165481565b6040519081526020015b60405180910390f35b34801561040857600080fd5b50610411610c9c565b6040516103f39190612ea3565b34801561042a57600080fd5b5061043e610439366004612ed2565b610d2a565b60405190151581526020016103f3565b34801561045a57600080fd5b506103e9610469366004612efc565b610d97565b34801561047a57600080fd5b506104a2610489366004612f17565b6011602052600090815260409020805460019091015482565b604080519283526020830191909152016103f3565b3480156104c357600080fd5b506008546104d7906001600160a01b031681565b6040516001600160a01b0390911681526020016103f3565b3480156104fb57600080fd5b506007546104d7906001600160a01b031681565b34801561051b57600080fd5b5061052f61052a366004612f3e565b610dd2565b005b34801561053d57600080fd5b506103e960175481565b34801561055357600080fd5b506103e960025481565b34801561056957600080fd5b5061043e610578366004612f5b565b610e5d565b34801561058957600080fd5b506006546104d7906001600160a01b031681565b3480156105a957600080fd5b5061052f6105b836600461303a565b610ed9565b3480156105c957600080fd5b506105f17f000000000000000000000000000000000000000000000000000000000000000081565b60405160ff90911681526020016103f3565b34801561060f57600080fd5b506103e9600b5481565b34801561062557600080fd5b506103e9611016565b34801561063a57600080fd5b506103e9610649366004612efc565b600e6020526000908152604090205481565b34801561066757600080fd5b506104d77f000000000000000000000000000000000000000000000000000000000000000081565b34801561069b57600080fd5b5061052f6106aa366004612f17565b611071565b3480156106bb57600080fd5b5061052f6106ca366004612f17565b6110dc565b3480156106db57600080fd5b506103e96106ea366004612efc565b5060001990565b3480156106fd57600080fd5b5061043e61070c366004612efc565b601c6020526000908152604090205460ff1681565b34801561072d57600080fd5b506103e961073c366004612f17565b61118a565b34801561074d57600080fd5b506103e960185481565b34801561076357600080fd5b5060065461043e90600160a01b900460ff1681565b34801561078457600080fd5b506103e9610793366004612efc565b60106020526000908152604090205481565b3480156107b157600080fd5b506103e9600a5481565b3480156107c757600080fd5b5061052f61119f565b3480156107dc57600080fd5b5060065461043e90600160a81b900460ff1681565b3480156107fd57600080fd5b5061052f61080c366004612efc565b611265565b34801561081d57600080fd5b5061052f61082c36600461308a565b6112f8565b34801561083d57600080fd5b506103e961084c366004612efc565b60036020526000908152604090205481565b34801561086a57600080fd5b5061052f610879366004612f17565b611331565b34801561088a57600080fd5b506103e9610899366004612efc565b60056020526000908152604090205481565b3480156108b757600080fd5b5061052f6108c6366004612f3e565b6113aa565b61052f6108d93660046130b6565b611421565b3480156108ea57600080fd5b5061052f6108f9366004612f17565b6117ca565b34801561090a57600080fd5b506103e960195481565b34801561092057600080fd5b50610411611835565b34801561093557600080fd5b5061052f6109443660046130d8565b611842565b34801561095557600080fd5b5061052f610964366004612ed2565b611959565b34801561097557600080fd5b506103e9600c5481565b34801561098b57600080fd5b5061043e61099a366004612ed2565b611997565b3480156109ab57600080fd5b5061052f611a11565b3480156109c057600080fd5b5061052f6109cf366004612efc565b611a76565b3480156109e057600080fd5b5061052f6109ef3660046130f4565b611aee565b348015610a0057600080fd5b5061052f610a0f366004612f17565b611d0b565b348015610a2057600080fd5b506103e9610a2f366004613130565b611d4f565b348015610a4057600080fd5b506103e9610a4f366004612efc565b600d6020526000908152604090205481565b348015610a6d57600080fd5b5061052f610a7c366004612f3e565b611d6f565b348015610a8d57600080fd5b506103e9610a9c366004612efc565b60146020526000908152604090205481565b348015610aba57600080fd5b5061052f610ac936600461315c565b611dc2565b348015610ada57600080fd5b506103e9610ae9366004612f17565b60156020526000908152604090205481565b348015610b0757600080fd5b506103e9610b16366004612efc565b612006565b348015610b2757600080fd5b506103e9601b5481565b348015610b3d57600080fd5b506103e9610b4c3660046131cf565b600460209081526000928352604080842090915290825290205481565b348015610b7557600080fd5b506103e9610b84366004612efc565b612011565b348015610b9557600080fd5b506103e9610ba4366004613130565b61205a565b348015610bb557600080fd5b506103e9610bc4366004612efc565b600f6020526000908152604090205481565b348015610be257600080fd5b506103e960095481565b348015610bf857600080fd5b5061052f610c07366004612efc565b61206d565b348015610c1857600080fd5b506103e9610c27366004612f17565b61218e565b348015610c3857600080fd5b506103e9610c47366004612efc565b60126020526000908152604090205481565b348015610c6557600080fd5b506103e9601a5481565b348015610c7b57600080fd5b506103e9610c8a366004612efc565b60136020526000908152604090205481565b60008054610ca9906131f9565b80601f0160208091040260200160405190810160405280929190818152602001828054610cd5906131f9565b8015610d225780601f10610cf757610100808354040283529160200191610d22565b820191906000526020600020905b815481529060010190602001808311610d0557829003601f168201915b505050505081565b3360008181526004602090815260408083206001600160a01b038716808552925280832085905551919290917f8c5be1e5ebec7d5bd14f71427d1e84f3dd0314c0f7b2291e5b200ac8c7c3b92590610d859086815260200190565b60405180910390a35060015b92915050565b600080610da3836121a3565b506001600160a01b038416600090815260036020526040902054909150610dcb908290613249565b9392505050565b6007546001600160a01b03163314610e055760405162461bcd60e51b8152600401610dfc9061325c565b60405180910390fd5b60068054821515600160a01b0260ff60a01b199091161790556040517f9422424b175dda897495a07b091ef74a3ef715cf6d866fc972954c1c7f45930490610e5290831515815260200190565b60405180910390a150565b600654600090600160a81b900460ff1615610eb15760405162461bcd60e51b8152602060048201526014602482015273506175736564207472616e73666572206d6f646560601b6044820152606401610dfc565b610eba8461206d565b610ec38361206d565b6000610ed08585856122be565b95945050505050565b600654600160a01b900460ff1615610f035760405162461bcd60e51b8152600401610dfc9061327d565b610f0c3361206d565b60008215610fb957610f1e338361239e565b5060405163a9059cbb60e01b8152336004820152602481018290529091507f00000000000000000000000000000000000000000000000000000000000000006001600160a01b03169063a9059cbb906044016020604051808303816000875af1158015610f8f573d6000803e3d6000fd5b505050506040513d601f19601f82011682018060405250810190610fb3919061329d565b50610fce565b610fc23361262f565b9050610fce3382612683565b6040805133815284151560208201529081018290527fde7382b4a0346dc5680e562522cef9e22d7597329cfcbe4852da453d00a2fbc9906060015b60405180910390a1505050565b60007f0000000000000000000000000000000000000000000000000000000000000000461461104c576110476127a1565b905090565b507f000000000000000000000000000000000000000000000000000000000000000090565b6007546001600160a01b0316331461109b5760405162461bcd60e51b8152600401610dfc9061325c565b600c5460408051918252602082018390527f3dfd1b46ffb6bf2700625ddeb7bdc1d92e6b9c49e3690b82115872bf5cdada5a910160405180910390a1600c55565b6007546001600160a01b031633146111065760405162461bcd60e51b8152600401610dfc9061325c565b600081116111495760405162461bcd60e51b815260206004820152601060248201526f06379636c654c656e677468203d3d20360841b6044820152606401610dfc565b60095460408051918252602082018390527fe6df33a3a375cdf67b809f4502e9e63952a194da6a74da2137142ab3d7612349910160405180910390a1600955565b6000806002549050610dcb836016548361205a565b6008546001600160a01b031633146111f95760405162461bcd60e51b815260206004820152601b60248201527f6d73672e73656e64657220213d2070656e64696e674e6577476f7600000000006044820152606401610dfc565b600754604080516001600160a01b0390921682523360208301527f1f14cfc03e486d23acee577b07bc0b3b23f4888c91fcdba5e0fef5a2549d5523910160405180910390a160088054600780546001600160a01b03199081166001600160a01b03841617909155169055565b6007546001600160a01b0316331461128f5760405162461bcd60e51b8152600401610dfc9061325c565b600654604080516001600160a01b03928316815291831660208301527fde4bcb16a1f56fb46ae88757b36ef03c00f0169eae93e59d4f0cadfdb11dec33910160405180910390a1600680546001600160a01b0319166001600160a01b0392909216919091179055565b600654600160a01b900460ff16156113225760405162461bcd60e51b8152600401610dfc9061327d565b61132d82338361283b565b5050565b6007546001600160a01b0316331461135b5760405162461bcd60e51b8152600401610dfc9061325c565b6113906001600160a01b037f0000000000000000000000000000000000000000000000000000000000000000163330846129f4565b80601760008282546113a291906132ba565b909155505050565b6007546001600160a01b031633146113d45760405162461bcd60e51b8152600401610dfc9061325c565b60068054821515600160a81b0260ff60a81b199091161790556040517fcbac1b5d30dbfe30fb65f3b052910e0dbdcf9218995b7d50d256f87429a3549b90610e5290831515815260200190565b6007546001600160a01b0316331461144b5760405162461bcd60e51b8152600401610dfc9061325c565b600c54600954600b5461145e9190613249565b61146891906132ba565b42116114b65760405162461bcd60e51b815260206004820152601860248201527f5374617274696e67206379636c6520746f6f206561726c7900000000000000006044820152606401610dfc565b42600b556019546002546000036114e257600a5460009081526015602052604081205547601a5561159c565b6000611508826002546114f59190613249565b601a546115029034613249565b90612a7e565b9050600081601560006001600a5461152091906132ba565b8152602001908152602001600020546115399190613249565b600a54600090815260156020526040902081905560025490915061156990611562908590613249565b8290612a93565b47111561159357611581836002546115629190613249565b61158b90476132ba565b601a55611599565b6000601a555b50505b82601660008282546115ae91906132ba565b925050819055506040518060400160405280826002546115ce9190613249565b8152601654602091820152600a546000908152601182526040812083518155929091015160019092019190915561160482612aa8565b905061161b3061161660185485612ac8565b612ae8565b80601854111561164f578060185461163391906132ba565b601660008282546116449190613249565b9091555061167d9050565b80601854101561167d5760185461166690826132ba565b6016600082825461167791906132ba565b90915550505b600060198190556018556116bb6001600160a01b037f0000000000000000000000000000000000000000000000000000000000000000163385612b42565b82601760008282546116cd9190613249565b925050819055506001600a60008282546116e79190613249565b90915550506040516370a0823160e01b815230600482015281907f00000000000000000000000000000000000000000000000000000000000000006001600160a01b0316906370a0823190602401602060405180830381865afa158015611752573d6000803e3d6000fd5b505050506040513d601f19601f8201168201806040525081019061177691906132cd565b10156117c45760405162461bcd60e51b815260206004820152601f60248201527f4d594320676976656e206973206c657373207468616e207265717569726564006044820152606401610dfc565b50505050565b6007546001600160a01b031633146117f45760405162461bcd60e51b8152600401610dfc9061325c565b601b5460408051918252602082018390527f956e7aa988106f059c11ed7903de5532fa0581099295db11514cb99180560a66910160405180910390a1601b55565b60018054610ca9906131f9565b600654600160a01b900460ff161561186c5760405162461bcd60e51b8152600401610dfc9061327d565b6001600160a01b03821633146118e4576001600160a01b0382166000908152601c602052604090205460ff166118e45760405162461bcd60e51b815260206004820152601960248201527f55736572206e6f74206175746f2d636f6d706f756e64696e67000000000000006044820152606401610dfc565b6118ed8261206d565b6000806118fa848461239e565b9150915061190982308661283b565b604080516001600160a01b0386168152602081018390529081018390527f0e311a2c6dbfb0153ec3a8a5bdca09070b3e5f60768fdc10a20453f38d1868739060600160405180910390a150505050565b6007546001600160a01b031633146119835760405162461bcd60e51b8152600401610dfc9061325c565b61132d6001600160a01b0383163383612b42565b600654600090600160a81b900460ff16156119eb5760405162461bcd60e51b8152602060048201526014602482015273506175736564207472616e73666572206d6f646560601b6044820152606401610dfc565b6119f43361206d565b6119fd8361206d565b6000611a098484612bba565b949350505050565b6007546001600160a01b03163314611a3b5760405162461bcd60e51b8152600401610dfc9061325c565b600880546001600160a01b03191690556040517f6338686c9437b10e096f7dc6ea97668e9d97a256c71ef4899f7f3b566c88565a90600090a1565b6007546001600160a01b03163314611aa05760405162461bcd60e51b8152600401610dfc9061325c565b600880546001600160a01b0319166001600160a01b0383169081179091556040519081527f4a2e50ac65bdaebcb38b37de55d990566b49a3020db9af0526b63a42f311820a90602001610e52565b600654600160a01b900460ff1615611b185760405162461bcd60e51b8152600401610dfc9061327d565b6001600160a01b0382163314611b695760405162461bcd60e51b81526020600482015260166024820152753932b1b2b4bb32b910109e9036b9b39739b2b73232b960511b6044820152606401610dfc565b6001600160a01b0381163314611bb75760405162461bcd60e51b815260206004820152601360248201527237bbb732b910109e9036b9b39739b2b73232b960691b6044820152606401610dfc565b611bc03361206d565b33600090815260036020526040902054831115611c145760405162461bcd60e51b81526020600482015260126024820152714e6f7420656e6f7567682062616c616e636560701b6044820152606401610dfc565b600c54600954600b54611c279190613249565b611c3191906132ba565b421115611c795760405162461bcd60e51b815260206004820152601660248201527514995919595b481c995c5d595cdd1cc81b1bd8dad95960521b6044820152606401610dfc565b600a543360009081526010602052604081209190915560198054859290611ca1908490613249565b9091555050336000908152600e602052604081208054859290611cc5908490613249565b90915550611cd590503384612c20565b60408051338152602081018590527f222838db2794d11532d940e8dec38ae307ed0b63cd97c233322e221f998767a69101611009565b6007546001600160a01b03163314611d355760405162461bcd60e51b8152600401610dfc9061325c565b47811115611d4257600080fd5b611d4c3382612683565b50565b60008115611d6757611d62848385612c82565b611a09565b509192915050565b336000818152601c6020908152604091829020805460ff19168515159081179091558251938452908301527f335abaad2e9c560da40e7c187aedbff0b204c1505ce03944900ccc1e0c4cb58e9101610e52565b42841015611e125760405162461bcd60e51b815260206004820152601760248201527f5045524d49545f444541444c494e455f455850495245440000000000000000006044820152606401610dfc565b60006001611e1e611016565b6001600160a01b038a811660008181526005602090815260409182902080546001810190915582517f6e71edae12b1b97f4d1f60370fef10105fa2faae0126114a169c64845d6126c98184015280840194909452938d166060840152608083018c905260a083019390935260c08083018b90528151808403909101815260e08301909152805192019190912061190160f01b6101008301526101028201929092526101228101919091526101420160408051601f198184030181528282528051602091820120600084529083018083525260ff871690820152606081018590526080810184905260a0016020604051602081039080840390855afa158015611f2a573d6000803e3d6000fd5b5050604051601f1901519150506001600160a01b03811615801590611f605750876001600160a01b0316816001600160a01b0316145b611f9d5760405162461bcd60e51b815260206004820152600e60248201526d24a72b20a624a22fa9a4a3a722a960911b6044820152606401610dfc565b6001600160a01b0390811660009081526004602090815260408083208a8516808552908352928190208990555188815291928a16917f8c5be1e5ebec7d5bd14f71427d1e84f3dd0314c0f7b2291e5b200ac8c7c3b925910160405180910390a350505050505050565b6000610d9182610d97565b60008061201d83612ca1565b6001600160a01b038416600090815260136020908152604080832054601290925282205492935090916120509084613249565b611a0991906132ba565b60008115611d6757611d62848484612c82565b600654600160a01b900460ff16156120975760405162461bcd60e51b8152600401610dfc9061327d565b6000806120a3836121a3565b909250905081156120e0576001600160a01b0383166000908152600f60209081526040808320839055600d9091528120556120de8383612db4565b505b801561213a576001600160a01b038084166000908152601060209081526040808320839055600e90915281205561213a907f0000000000000000000000000000000000000000000000000000000000000000168483612b42565b600061214584612ca1565b600a546001600160a01b0386166000908152601460209081526040808320939093556012905290812080549293508392909190612183908490613249565b909155505050505050565b6000806002549050610dcb8360165483611d4f565b6001600160a01b0381166000908152600f6020526040812054600a5482919082908190831080156121d45750600083115b1561222e57600083815260116020908152604080832081518083018352815481526001909101548184019081526001600160a01b038b168552600d909352908320549151815191939261222992909190611d4f565b935050505b6001600160a01b038616600090815260106020526040902054600a54811080156122585750600081115b156122b257600081815260116020908152604080832081518083018352815481526001909101548184019081526001600160a01b038c168552600e90935290832054915181519193926122ad9290919061205a565b935050505b50909590945092505050565b6001600160a01b0383166000908152600460209081526040808320338452909152812054600019811461231a576122f583826132ba565b6001600160a01b03861660009081526004602090815260408083203384529091529020555b6001600160a01b038516600090815260036020526040812080548592906123429084906132ba565b90915550506001600160a01b03808516600081815260036020526040908190208054870190555190918716906000805160206133868339815191529061238b9087815260200190565b60405180910390a3506001949350505050565b60008060006123ac8561262f565b9050600081116123f35760405162461bcd60e51b8152602060048201526012602482015271139bc81c995dd85c991cc818db185a5b595960721b6044820152606401610dfc565b6040516370a0823160e01b81523060048201526000907f00000000000000000000000000000000000000000000000000000000000000006001600160a01b0316906370a0823190602401602060405180830381865afa15801561245a573d6000803e3d6000fd5b505050506040513d601f19601f8201168201806040525081019061247e91906132cd565b600654604051630f2ccb1760e01b81529192506000916001600160a01b0390911690630f2ccb179085906124b6908a90600401612ea3565b60206040518083038185885af11580156124d4573d6000803e3d6000fd5b50505050506040513d601f19601f820116820180604052508101906124f991906132cd565b6040516370a0823160e01b81523060048201529091506000906001600160a01b037f000000000000000000000000000000000000000000000000000000000000000016906370a0823190602401602060405180830381865afa158015612563573d6000803e3d6000fd5b505050506040513d601f19601f8201168201806040525081019061258791906132cd565b9050600082116125ca5760405162461bcd60e51b815260206004820152600e60248201526d06d7963416d6f756e74203d3d20360941b6044820152606401610dfc565b816125d584836132ba565b146126225760405162461bcd60e51b815260206004820152601b60248201527f6275794d7963206f757470757420646f65736e2774206d6174636800000000006044820152606401610dfc565b5096919550909350505050565b6001600160a01b03811660009081526013602090815260408083205460129092528220548261265e83836132ba565b6001600160a01b03909516600090815260136020526040902091909155509192915050565b804710156126d35760405162461bcd60e51b815260206004820152601d60248201527f416464726573733a20696e73756666696369656e742062616c616e63650000006044820152606401610dfc565b6000826001600160a01b03168260405160006040518083038185875af1925050503d8060008114612720576040519150601f19603f3d011682016040523d82523d6000602084013e612725565b606091505b505090508061279c5760405162461bcd60e51b815260206004820152603a60248201527f416464726573733a20756e61626c6520746f2073656e642076616c75652c207260448201527f6563697069656e74206d617920686176652072657665727465640000000000006064820152608401610dfc565b505050565b60007f8b73c3c69bb8fe3d512ecc4cf759cc79239f7b179b0ffacaa9a75d522b39400f60006040516127d391906132e6565b6040805191829003822060208301939093528101919091527fc89efdaa54c0f20c7adf612882df0950f5a951637e0307cdcb4c672f298b8bc660608201524660808201523060a082015260c00160405160208183030381529060405280519060200120905090565b600083116128795760405162461bcd60e51b815260206004820152600b60248201526a0617373657473203d3d20360ac1b6044820152606401610dfc565b600c54600954600b5461288c9190613249565b61289691906132ba565b42106128e45760405162461bcd60e51b815260206004820152601760248201527f4465706f736974207265717565737473206c6f636b65640000000000000000006044820152606401610dfc565b601b54836018546016546128f89190613249565b6129029190613249565b11156129475760405162461bcd60e51b815260206004820152601460248201527311195c1bdcda5d0818d85c08195e18d95959195960621b6044820152606401610dfc565b6129508161206d565b600a546001600160a01b0382166000908152600f602052604081209190915560188054859290612981908490613249565b90915550506001600160a01b0381166000908152600d6020526040812080548592906129ae908490613249565b90915550506001600160a01b038216301461279c5761279c6001600160a01b037f0000000000000000000000000000000000000000000000000000000000000000168330865b60006040516323b872dd60e01b81528460048201528360248201528260448201526020600060648360008a5af13d15601f3d1160016000511416171691505080612a775760405162461bcd60e51b81526020600482015260146024820152731514905394d1915497d19493d357d1905253115160621b6044820152606401610dfc565b5050505050565b6000610dcb83670de0b6b3a764000084612c82565b6000610dcb8383670de0b6b3a7640000612e1a565b60008082600254612ab99190613249565b9050610dcb836016548361205a565b60008082600254612ad99190613249565b9050611a098460165483611d4f565b8060026000828254612afa9190613249565b90915550506001600160a01b03821660008181526003602090815260408083208054860190555184815260008051602061338683398151915291015b60405180910390a35050565b600060405163a9059cbb60e01b8152836004820152826024820152602060006044836000895af13d15601f3d11600160005114161716915050806117c45760405162461bcd60e51b815260206004820152600f60248201526e1514905394d1915497d19052531151608a1b6044820152606401610dfc565b33600090815260036020526040812080548391908390612bdb9084906132ba565b90915550506001600160a01b0383166000818152600360205260409081902080548501905551339060008051602061338683398151915290610d859086815260200190565b6001600160a01b03821660009081526003602052604081208054839290612c489084906132ba565b90915550506002805482900390556040518181526000906001600160a01b0384169060008051602061338683398151915290602001612b36565b828202811515841585830485141716612c9a57600080fd5b0492915050565b6001600160a01b038116600090815260146020526040812054600a54811580612cc957508082145b15612cd8575060009392505050565b6001600160a01b0384166000908152600e6020526040812054612d4a90612cfe87610d97565b612d089190613249565b60156000612d176001886132ba565b8152602001908152602001600020546015600087815260200190815260200160002054612d4491906132ba565b90612e48565b612d549082613249565b9050612d616001836132ba565b831015611a0957612daa612d7486610d97565b600085815260156020819052604082205491612d916001886132ba565b815260200190815260200160002054612d4491906132ba565b610ed09082613249565b30600090815260036020526040812080548391908390612dd59084906132ba565b90915550506001600160a01b0383166000818152600360205260409081902080548501905551309060008051602061338683398151915290610d859086815260200190565b828202811515841585830485141716612e3257600080fd5b6001826001830304018115150290509392505050565b6000610dcb8383670de0b6b3a7640000612c82565b6000815180845260005b81811015612e8357602081850181015186830182015201612e67565b506000602082860101526020601f19601f83011685010191505092915050565b602081526000610dcb6020830184612e5d565b80356001600160a01b0381168114612ecd57600080fd5b919050565b60008060408385031215612ee557600080fd5b612eee83612eb6565b946020939093013593505050565b600060208284031215612f0e57600080fd5b610dcb82612eb6565b600060208284031215612f2957600080fd5b5035919050565b8015158114611d4c57600080fd5b600060208284031215612f5057600080fd5b8135610dcb81612f30565b600080600060608486031215612f7057600080fd5b612f7984612eb6565b9250612f8760208501612eb6565b9150604084013590509250925092565b634e487b7160e01b600052604160045260246000fd5b600082601f830112612fbe57600080fd5b813567ffffffffffffffff80821115612fd957612fd9612f97565b604051601f8301601f19908116603f0116810190828211818310171561300157613001612f97565b8160405283815286602085880101111561301a57600080fd5b836020870160208301376000602085830101528094505050505092915050565b6000806040838503121561304d57600080fd5b823561305881612f30565b9150602083013567ffffffffffffffff81111561307457600080fd5b61308085828601612fad565b9150509250929050565b6000806040838503121561309d57600080fd5b823591506130ad60208401612eb6565b90509250929050565b600080604083850312156130c957600080fd5b50508035926020909101359150565b600080604083850312156130eb57600080fd5b61305883612eb6565b60008060006060848603121561310957600080fd5b8335925061311960208501612eb6565b915061312760408501612eb6565b90509250925092565b60008060006060848603121561314557600080fd5b505081359360208301359350604090920135919050565b600080600080600080600060e0888a03121561317757600080fd5b61318088612eb6565b965061318e60208901612eb6565b95506040880135945060608801359350608088013560ff811681146131b257600080fd5b9699959850939692959460a0840135945060c09093013592915050565b600080604083850312156131e257600080fd5b6131eb83612eb6565b91506130ad60208401612eb6565b600181811c9082168061320d57607f821691505b60208210810361322d57634e487b7160e01b600052602260045260246000fd5b50919050565b634e487b7160e01b600052601160045260246000fd5b80820180821115610d9157610d91613233565b60208082526007908201526637b7363ca3b7bb60c91b604082015260600190565b6020808252600690820152651c185d5cd95960d21b604082015260600190565b6000602082840312156132af57600080fd5b8151610dcb81612f30565b81810381811115610d9157610d91613233565b6000602082840312156132df57600080fd5b5051919050565b600080835481600182811c91508083168061330257607f831692505b6020808410820361332157634e487b7160e01b86526022600452602486fd5b818015613335576001811461334a57613377565b60ff1986168952841515850289019650613377565b60008a81526020902060005b8681101561336f5781548b820152908501908301613356565b505084890196505b50949897505050505050505056feddf252ad1be2c89b69c2b068fc378daa952ba7f163c4a11628f55a4df523b3efa2646970667358221220104afd09a97610da71b59cfdebd7d79cc3ee330a3f460998ef6ed78311f894f064736f6c63430008100033",
    "linkReferences": {}
  },
  "methodIdentifiers": {
    "DOMAIN_SEPARATOR()": "3644e515",
    "allowance(address,address)": "dd62ed3e",
    "amountDeployed()": "17460a2e",
    "approve(address,uint256)": "095ea7b3",
    "asset()": "38d52e0f",
    "balanceOf(address)": "70a08231",
    "cancelGovTransfer()": "a925859c",
    "claim(bool,bytes)": "2f8bc0ef",
    "claimGov()": "64371ae2",
    "compound(address,bytes)": "9788ad71",
    "convertToAssets(uint256,uint256,uint256)": "e6519f68",
    "convertToShares(uint256,uint256,uint256)": "c50cb156",
    "cycle()": "6190c9d5",
    "cycleCumulativeEthRewards(uint256)": "d761f7a8",
    "cycleLength()": "eac471a0",
    "cycleSharesAndAssets(uint256)": "1138e15c",
    "cycleStartTime()": "335e536c",
    "decimals()": "313ce567",
    "deposit(uint256,address)": "6e553f65",
    "depositCap()": "dbd5edc7",
    "dust()": "fad9aba3",
    "getClaimableAmount(address)": "e12f3a61",
    "gov()": "12d43a51",
    "inPausedTransferMode()": "69a47737",
    "latestPendingDeposit(address)": "ea52c740",
    "latestPendingRedeem(address)": "5ddd646c",
    "maxDeposit(address)": "402d267d",
    "maxRedeem(address)": "d905777e",
    "mycBuyer()": "279eb024",
    "name()": "06fdde03",
    "newCycle(uint256,uint256)": "8494b0c2",
    "nonces(address)": "7ecebe00",
    "paused()": "5c975abb",
    "pendingDeposits()": "5c074f44",
    "pendingNewGov()": "118d4d9b",
    "pendingRedeems()": "9119c067",
    "permit(address,address,uint256,uint256,uint8,bytes32,bytes32)": "d505accf",
    "preCycleTimelock()": "a8e4f4ff",
    "previewDeposit(uint256)": "ef8b30f7",
    "previewRedeem(uint256)": "4cdad506",
    "redeem(uint256,address,address)": "ba087652",
    "returnMyc(uint256)": "7e17d395",
    "setCycleLength(uint256)": "3d84ceca",
    "setDepositCap(uint256)": "86651203",
    "setInPausedTransferMode(bool)": "8442f52f",
    "setMycBuyer(address)": "6a597c4f",
    "setPaused(bool)": "16c38b3c",
    "setPreCycleTimelock(uint256)": "3c0befa9",
    "setUserAutoCompound(bool)": "cf2ba8f3",
    "signalSetGov(address)": "b5a7790a",
    "symbol()": "95d89b41",
    "totalAssets()": "01e1d114",
    "totalSupply()": "18160ddd",
    "transfer(address,uint256)": "a9059cbb",
    "transferFrom(address,address,uint256)": "23b872dd",
    "trueBalanceOf(address)": "0f0d7ff2",
    "updateUser(address)": "ed03b336",
    "userAutoCompound(address)": "44d5f787",
    "userCumulativeEthRewards(address)": "f264525c",
    "userEthRewardsClaimed(address)": "fdebc89b",
    "userLastUpdated(address)": "d0e38453",
    "userPendingDeposits(address)": "cc92db17",
    "userPendingRedeems(address)": "36c4f166",
    "withdrawEth(uint256)": "c311d049",
    "withdrawToken(address,uint256)": "9e281a98"
  },
  "id": 12
}