{
  "_format": "hh-sol-artifact-1",
  "contractName": "MerkleDistributorReader",
  "sourceName": "contracts/MerkleDistributorReader.sol",
  "abi": [
    {
      "inputs": [
        {
          "internalType": "address",
          "name": "_feeDistributor",
          "type": "address"
        },
        {
          "internalType": "address",
          "name": "_account",
          "type": "address"
        },
        {
          "internalType": "uint256",
          "name": "_rounds",
          "type": "uint256"
        }
      ],
      "name": "getUserClaimed",
      "outputs": [
        {
          "internalType": "bool[]",
          "name": "",
          "type": "bool[]"
        }
      ],
      "stateMutability": "view",
      "type": "function"
    }
  ],
  "bytecode": "0x608060405234801561001057600080fd5b50610513806100206000396000f3fe608060405234801561001057600080fd5b506004361061002b5760003560e01c8063c1b2366414610030575b600080fd5b61004a60048036038101906100459190610228565b610060565b6040516100579190610345565b60405180910390f35b6060600084905060008367ffffffffffffffff81111561008357610082610367565b5b6040519080825280602002602001820160405280156100b15781602001602082028036833780820191505090505b50905060005b84811015610182578273ffffffffffffffffffffffffffffffffffffffff1663120aa87782886040518363ffffffff1660e01b81526004016100fa9291906103b4565b60206040518083038186803b15801561011257600080fd5b505afa158015610126573d6000803e3d6000fd5b505050506040513d601f19601f8201168201806040525081019061014a9190610409565b82828151811061015d5761015c610436565b5b602002602001019015159081151581525050808061017a90610494565b9150506100b7565b5080925050509392505050565b600080fd5b600073ffffffffffffffffffffffffffffffffffffffff82169050919050565b60006101bf82610194565b9050919050565b6101cf816101b4565b81146101da57600080fd5b50565b6000813590506101ec816101c6565b92915050565b6000819050919050565b610205816101f2565b811461021057600080fd5b50565b600081359050610222816101fc565b92915050565b6000806000606084860312156102415761024061018f565b5b600061024f868287016101dd565b9350506020610260868287016101dd565b925050604061027186828701610213565b9150509250925092565b600081519050919050565b600082825260208201905092915050565b6000819050602082019050919050565b60008115159050919050565b6102bc816102a7565b82525050565b60006102ce83836102b3565b60208301905092915050565b6000602082019050919050565b60006102f28261027b565b6102fc8185610286565b935061030783610297565b8060005b8381101561033857815161031f88826102c2565b975061032a836102da565b92505060018101905061030b565b5085935050505092915050565b6000602082019050818103600083015261035f81846102e7565b905092915050565b7f4e487b7100000000000000000000000000000000000000000000000000000000600052604160045260246000fd5b61039f816101f2565b82525050565b6103ae816101b4565b82525050565b60006040820190506103c96000830185610396565b6103d660208301846103a5565b9392505050565b6103e6816102a7565b81146103f157600080fd5b50565b600081519050610403816103dd565b92915050565b60006020828403121561041f5761041e61018f565b5b600061042d848285016103f4565b91505092915050565b7f4e487b7100000000000000000000000000000000000000000000000000000000600052603260045260246000fd5b7f4e487b7100000000000000000000000000000000000000000000000000000000600052601160045260246000fd5b600061049f826101f2565b91507fffffffffffffffffffffffffffffffffffffffffffffffffffffffffffffffff8214156104d2576104d1610465565b5b60018201905091905056fea2646970667358221220aeda6ff0b15f3a86e3a0e498b201a818f39f84ad31982c05da3d0715227f4c0e64736f6c63430008090033",
  "linkReferences": {},
  "deployedLinkReferences": {}
}