{
  "_format": "hh-sol-artifact-1",
  "contractName": "OrderBook",
  "sourceName": "contracts/core/OrderBook.sol",
  "abi": [
    {
      "inputs": [],
      "stateMutability": "nonpayable",
      "type": "constructor"
    },
    {
      "anonymous": false,
      "inputs": [
        {
          "indexed": true,
          "internalType": "address",
          "name": "account",
          "type": "address"
        },
        {
          "indexed": false,
          "internalType": "uint256",
          "name": "orderIndex",
          "type": "uint256"
        },
        {
          "indexed": false,
          "internalType": "address",
          "name": "collateralToken",
          "type": "address"
        },
        {
          "indexed": false,
          "internalType": "uint256",
          "name": "collateralDelta",
          "type": "uint256"
        },
        {
          "indexed": false,
          "internalType": "address",
          "name": "indexToken",
          "type": "address"
        },
        {
          "indexed": false,
          "internalType": "uint256",
          "name": "sizeDelta",
          "type": "uint256"
        },
        {
          "indexed": false,
          "internalType": "bool",
          "name": "isLong",
          "type": "bool"
        },
        {
          "indexed": false,
          "internalType": "uint256",
          "name": "triggerPrice",
          "type": "uint256"
        },
        {
          "indexed": false,
          "internalType": "bool",
          "name": "triggerAboveThreshold",
          "type": "bool"
        },
        {
          "indexed": false,
          "internalType": "uint256",
          "name": "executionFee",
          "type": "uint256"
        }
      ],
      "name": "CancelDecreaseOrder",
      "type": "event"
    },
    {
      "anonymous": false,
      "inputs": [
        {
          "indexed": true,
          "internalType": "address",
          "name": "account",
          "type": "address"
        },
        {
          "indexed": false,
          "internalType": "uint256",
          "name": "orderIndex",
          "type": "uint256"
        },
        {
          "indexed": false,
          "internalType": "address",
          "name": "purchaseToken",
          "type": "address"
        },
        {
          "indexed": false,
          "internalType": "uint256",
          "name": "purchaseTokenAmount",
          "type": "uint256"
        },
        {
          "indexed": false,
          "internalType": "address",
          "name": "collateralToken",
          "type": "address"
        },
        {
          "indexed": false,
          "internalType": "address",
          "name": "indexToken",
          "type": "address"
        },
        {
          "indexed": false,
          "internalType": "uint256",
          "name": "sizeDelta",
          "type": "uint256"
        },
        {
          "indexed": false,
          "internalType": "bool",
          "name": "isLong",
          "type": "bool"
        },
        {
          "indexed": false,
          "internalType": "uint256",
          "name": "triggerPrice",
          "type": "uint256"
        },
        {
          "indexed": false,
          "internalType": "bool",
          "name": "triggerAboveThreshold",
          "type": "bool"
        },
        {
          "indexed": false,
          "internalType": "uint256",
          "name": "executionFee",
          "type": "uint256"
        }
      ],
      "name": "CancelIncreaseOrder",
      "type": "event"
    },
    {
      "anonymous": false,
      "inputs": [
        {
          "indexed": true,
          "internalType": "address",
          "name": "account",
          "type": "address"
        },
        {
          "indexed": false,
          "internalType": "uint256",
          "name": "orderIndex",
          "type": "uint256"
        },
        {
          "indexed": false,
          "internalType": "address[]",
          "name": "path",
          "type": "address[]"
        },
        {
          "indexed": false,
          "internalType": "uint256",
          "name": "amountIn",
          "type": "uint256"
        },
        {
          "indexed": false,
          "internalType": "uint256",
          "name": "minOut",
          "type": "uint256"
        },
        {
          "indexed": false,
          "internalType": "uint256",
          "name": "triggerRatio",
          "type": "uint256"
        },
        {
          "indexed": false,
          "internalType": "bool",
          "name": "triggerAboveThreshold",
          "type": "bool"
        },
        {
          "indexed": false,
          "internalType": "bool",
          "name": "shouldUnwrap",
          "type": "bool"
        },
        {
          "indexed": false,
          "internalType": "uint256",
          "name": "executionFee",
          "type": "uint256"
        }
      ],
      "name": "CancelSwapOrder",
      "type": "event"
    },
    {
      "anonymous": false,
      "inputs": [
        {
          "indexed": true,
          "internalType": "address",
          "name": "account",
          "type": "address"
        },
        {
          "indexed": false,
          "internalType": "uint256",
          "name": "orderIndex",
          "type": "uint256"
        },
        {
          "indexed": false,
          "internalType": "address",
          "name": "collateralToken",
          "type": "address"
        },
        {
          "indexed": false,
          "internalType": "uint256",
          "name": "collateralDelta",
          "type": "uint256"
        },
        {
          "indexed": false,
          "internalType": "address",
          "name": "indexToken",
          "type": "address"
        },
        {
          "indexed": false,
          "internalType": "uint256",
          "name": "sizeDelta",
          "type": "uint256"
        },
        {
          "indexed": false,
          "internalType": "bool",
          "name": "isLong",
          "type": "bool"
        },
        {
          "indexed": false,
          "internalType": "uint256",
          "name": "triggerPrice",
          "type": "uint256"
        },
        {
          "indexed": false,
          "internalType": "bool",
          "name": "triggerAboveThreshold",
          "type": "bool"
        },
        {
          "indexed": false,
          "internalType": "uint256",
          "name": "executionFee",
          "type": "uint256"
        }
      ],
      "name": "CreateDecreaseOrder",
      "type": "event"
    },
    {
      "anonymous": false,
      "inputs": [
        {
          "indexed": true,
          "internalType": "address",
          "name": "account",
          "type": "address"
        },
        {
          "indexed": false,
          "internalType": "uint256",
          "name": "orderIndex",
          "type": "uint256"
        },
        {
          "indexed": false,
          "internalType": "address",
          "name": "purchaseToken",
          "type": "address"
        },
        {
          "indexed": false,
          "internalType": "uint256",
          "name": "purchaseTokenAmount",
          "type": "uint256"
        },
        {
          "indexed": false,
          "internalType": "address",
          "name": "collateralToken",
          "type": "address"
        },
        {
          "indexed": false,
          "internalType": "address",
          "name": "indexToken",
          "type": "address"
        },
        {
          "indexed": false,
          "internalType": "uint256",
          "name": "sizeDelta",
          "type": "uint256"
        },
        {
          "indexed": false,
          "internalType": "bool",
          "name": "isLong",
          "type": "bool"
        },
        {
          "indexed": false,
          "internalType": "uint256",
          "name": "triggerPrice",
          "type": "uint256"
        },
        {
          "indexed": false,
          "internalType": "bool",
          "name": "triggerAboveThreshold",
          "type": "bool"
        },
        {
          "indexed": false,
          "internalType": "uint256",
          "name": "executionFee",
          "type": "uint256"
        }
      ],
      "name": "CreateIncreaseOrder",
      "type": "event"
    },
    {
      "anonymous": false,
      "inputs": [
        {
          "indexed": true,
          "internalType": "address",
          "name": "account",
          "type": "address"
        },
        {
          "indexed": false,
          "internalType": "uint256",
          "name": "orderIndex",
          "type": "uint256"
        },
        {
          "indexed": false,
          "internalType": "address[]",
          "name": "path",
          "type": "address[]"
        },
        {
          "indexed": false,
          "internalType": "uint256",
          "name": "amountIn",
          "type": "uint256"
        },
        {
          "indexed": false,
          "internalType": "uint256",
          "name": "minOut",
          "type": "uint256"
        },
        {
          "indexed": false,
          "internalType": "uint256",
          "name": "triggerRatio",
          "type": "uint256"
        },
        {
          "indexed": false,
          "internalType": "bool",
          "name": "triggerAboveThreshold",
          "type": "bool"
        },
        {
          "indexed": false,
          "internalType": "bool",
          "name": "shouldUnwrap",
          "type": "bool"
        },
        {
          "indexed": false,
          "internalType": "uint256",
          "name": "executionFee",
          "type": "uint256"
        }
      ],
      "name": "CreateSwapOrder",
      "type": "event"
    },
    {
      "anonymous": false,
      "inputs": [
        {
          "indexed": true,
          "internalType": "address",
          "name": "account",
          "type": "address"
        },
        {
          "indexed": false,
          "internalType": "uint256",
          "name": "orderIndex",
          "type": "uint256"
        },
        {
          "indexed": false,
          "internalType": "address",
          "name": "collateralToken",
          "type": "address"
        },
        {
          "indexed": false,
          "internalType": "uint256",
          "name": "collateralDelta",
          "type": "uint256"
        },
        {
          "indexed": false,
          "internalType": "address",
          "name": "indexToken",
          "type": "address"
        },
        {
          "indexed": false,
          "internalType": "uint256",
          "name": "sizeDelta",
          "type": "uint256"
        },
        {
          "indexed": false,
          "internalType": "bool",
          "name": "isLong",
          "type": "bool"
        },
        {
          "indexed": false,
          "internalType": "uint256",
          "name": "triggerPrice",
          "type": "uint256"
        },
        {
          "indexed": false,
          "internalType": "bool",
          "name": "triggerAboveThreshold",
          "type": "bool"
        },
        {
          "indexed": false,
          "internalType": "uint256",
          "name": "executionFee",
          "type": "uint256"
        },
        {
          "indexed": false,
          "internalType": "uint256",
          "name": "executionPrice",
          "type": "uint256"
        }
      ],
      "name": "ExecuteDecreaseOrder",
      "type": "event"
    },
    {
      "anonymous": false,
      "inputs": [
        {
          "indexed": true,
          "internalType": "address",
          "name": "account",
          "type": "address"
        },
        {
          "indexed": false,
          "internalType": "uint256",
          "name": "orderIndex",
          "type": "uint256"
        },
        {
          "indexed": false,
          "internalType": "address",
          "name": "purchaseToken",
          "type": "address"
        },
        {
          "indexed": false,
          "internalType": "uint256",
          "name": "purchaseTokenAmount",
          "type": "uint256"
        },
        {
          "indexed": false,
          "internalType": "address",
          "name": "collateralToken",
          "type": "address"
        },
        {
          "indexed": false,
          "internalType": "address",
          "name": "indexToken",
          "type": "address"
        },
        {
          "indexed": false,
          "internalType": "uint256",
          "name": "sizeDelta",
          "type": "uint256"
        },
        {
          "indexed": false,
          "internalType": "bool",
          "name": "isLong",
          "type": "bool"
        },
        {
          "indexed": false,
          "internalType": "uint256",
          "name": "triggerPrice",
          "type": "uint256"
        },
        {
          "indexed": false,
          "internalType": "bool",
          "name": "triggerAboveThreshold",
          "type": "bool"
        },
        {
          "indexed": false,
          "internalType": "uint256",
          "name": "executionFee",
          "type": "uint256"
        },
        {
          "indexed": false,
          "internalType": "uint256",
          "name": "executionPrice",
          "type": "uint256"
        }
      ],
      "name": "ExecuteIncreaseOrder",
      "type": "event"
    },
    {
      "anonymous": false,
      "inputs": [
        {
          "indexed": true,
          "internalType": "address",
          "name": "account",
          "type": "address"
        },
        {
          "indexed": false,
          "internalType": "uint256",
          "name": "orderIndex",
          "type": "uint256"
        },
        {
          "indexed": false,
          "internalType": "address[]",
          "name": "path",
          "type": "address[]"
        },
        {
          "indexed": false,
          "internalType": "uint256",
          "name": "amountIn",
          "type": "uint256"
        },
        {
          "indexed": false,
          "internalType": "uint256",
          "name": "minOut",
          "type": "uint256"
        },
        {
          "indexed": false,
          "internalType": "uint256",
          "name": "amountOut",
          "type": "uint256"
        },
        {
          "indexed": false,
          "internalType": "uint256",
          "name": "triggerRatio",
          "type": "uint256"
        },
        {
          "indexed": false,
          "internalType": "bool",
          "name": "triggerAboveThreshold",
          "type": "bool"
        },
        {
          "indexed": false,
          "internalType": "bool",
          "name": "shouldUnwrap",
          "type": "bool"
        },
        {
          "indexed": false,
          "internalType": "uint256",
          "name": "executionFee",
          "type": "uint256"
        }
      ],
      "name": "ExecuteSwapOrder",
      "type": "event"
    },
    {
      "anonymous": false,
      "inputs": [
        {
          "indexed": false,
          "internalType": "address",
          "name": "router",
          "type": "address"
        },
        {
          "indexed": false,
          "internalType": "address",
          "name": "vault",
          "type": "address"
        },
        {
          "indexed": false,
          "internalType": "address",
          "name": "weth",
          "type": "address"
        },
        {
          "indexed": false,
          "internalType": "address",
          "name": "usdg",
          "type": "address"
        },
        {
          "indexed": false,
          "internalType": "address",
          "name": "positionManager",
          "type": "address"
        },
        {
          "indexed": false,
          "internalType": "uint256",
          "name": "minExecutionFee",
          "type": "uint256"
        },
        {
          "indexed": false,
          "internalType": "uint256",
          "name": "minPurchaseTokenAmountUsd",
          "type": "uint256"
        }
      ],
      "name": "Initialize",
      "type": "event"
    },
    {
      "anonymous": false,
      "inputs": [
        {
          "indexed": true,
          "internalType": "address",
          "name": "account",
          "type": "address"
        },
        {
          "indexed": false,
          "internalType": "uint256",
          "name": "orderIndex",
          "type": "uint256"
        },
        {
          "indexed": false,
          "internalType": "address",
          "name": "collateralToken",
          "type": "address"
        },
        {
          "indexed": false,
          "internalType": "uint256",
          "name": "collateralDelta",
          "type": "uint256"
        },
        {
          "indexed": false,
          "internalType": "address",
          "name": "indexToken",
          "type": "address"
        },
        {
          "indexed": false,
          "internalType": "uint256",
          "name": "sizeDelta",
          "type": "uint256"
        },
        {
          "indexed": false,
          "internalType": "bool",
          "name": "isLong",
          "type": "bool"
        },
        {
          "indexed": false,
          "internalType": "uint256",
          "name": "triggerPrice",
          "type": "uint256"
        },
        {
          "indexed": false,
          "internalType": "bool",
          "name": "triggerAboveThreshold",
          "type": "bool"
        }
      ],
      "name": "UpdateDecreaseOrder",
      "type": "event"
    },
    {
      "anonymous": false,
      "inputs": [
        {
          "indexed": false,
          "internalType": "address",
          "name": "gov",
          "type": "address"
        }
      ],
      "name": "UpdateGov",
      "type": "event"
    },
    {
      "anonymous": false,
      "inputs": [
        {
          "indexed": true,
          "internalType": "address",
          "name": "account",
          "type": "address"
        },
        {
          "indexed": false,
          "internalType": "uint256",
          "name": "orderIndex",
          "type": "uint256"
        },
        {
          "indexed": false,
          "internalType": "address",
          "name": "collateralToken",
          "type": "address"
        },
        {
          "indexed": false,
          "internalType": "address",
          "name": "indexToken",
          "type": "address"
        },
        {
          "indexed": false,
          "internalType": "bool",
          "name": "isLong",
          "type": "bool"
        },
        {
          "indexed": false,
          "internalType": "uint256",
          "name": "sizeDelta",
          "type": "uint256"
        },
        {
          "indexed": false,
          "internalType": "uint256",
          "name": "triggerPrice",
          "type": "uint256"
        },
        {
          "indexed": false,
          "internalType": "bool",
          "name": "triggerAboveThreshold",
          "type": "bool"
        }
      ],
      "name": "UpdateIncreaseOrder",
      "type": "event"
    },
    {
      "anonymous": false,
      "inputs": [
        {
          "indexed": false,
          "internalType": "uint256",
          "name": "minExecutionFee",
          "type": "uint256"
        }
      ],
      "name": "UpdateMinExecutionFee",
      "type": "event"
    },
    {
      "anonymous": false,
      "inputs": [
        {
          "indexed": false,
          "internalType": "uint256",
          "name": "minPurchaseTokenAmountUsd",
          "type": "uint256"
        }
      ],
      "name": "UpdateMinPurchaseTokenAmountUsd",
      "type": "event"
    },
    {
      "anonymous": false,
      "inputs": [
        {
          "indexed": true,
          "internalType": "address",
          "name": "account",
          "type": "address"
        },
        {
          "indexed": false,
          "internalType": "uint256",
          "name": "orderIndex",
          "type": "uint256"
        },
        {
          "indexed": false,
          "internalType": "address[]",
          "name": "path",
          "type": "address[]"
        },
        {
          "indexed": false,
          "internalType": "uint256",
          "name": "amountIn",
          "type": "uint256"
        },
        {
          "indexed": false,
          "internalType": "uint256",
          "name": "minOut",
          "type": "uint256"
        },
        {
          "indexed": false,
          "internalType": "uint256",
          "name": "triggerRatio",
          "type": "uint256"
        },
        {
          "indexed": false,
          "internalType": "bool",
          "name": "triggerAboveThreshold",
          "type": "bool"
        },
        {
          "indexed": false,
          "internalType": "bool",
          "name": "shouldUnwrap",
          "type": "bool"
        },
        {
          "indexed": false,
          "internalType": "uint256",
          "name": "executionFee",
          "type": "uint256"
        }
      ],
      "name": "UpdateSwapOrder",
      "type": "event"
    },
    {
      "inputs": [],
      "name": "PRICE_PRECISION",
      "outputs": [
        {
          "internalType": "uint256",
          "name": "",
          "type": "uint256"
        }
      ],
      "stateMutability": "view",
      "type": "function"
    },
    {
      "inputs": [],
      "name": "USDG_PRECISION",
      "outputs": [
        {
          "internalType": "uint256",
          "name": "",
          "type": "uint256"
        }
      ],
      "stateMutability": "view",
      "type": "function"
    },
    {
      "inputs": [
        {
          "internalType": "uint256",
          "name": "_orderIndex",
          "type": "uint256"
        }
      ],
      "name": "cancelDecreaseOrder",
      "outputs": [],
      "stateMutability": "nonpayable",
      "type": "function"
    },
    {
      "inputs": [
        {
          "internalType": "uint256",
          "name": "_orderIndex",
          "type": "uint256"
        }
      ],
      "name": "cancelIncreaseOrder",
      "outputs": [],
      "stateMutability": "nonpayable",
      "type": "function"
    },
    {
      "inputs": [
        {
          "internalType": "uint256[]",
          "name": "_swapOrderIndexes",
          "type": "uint256[]"
        },
        {
          "internalType": "uint256[]",
          "name": "_increaseOrderIndexes",
          "type": "uint256[]"
        },
        {
          "internalType": "uint256[]",
          "name": "_decreaseOrderIndexes",
          "type": "uint256[]"
        }
      ],
      "name": "cancelMultiple",
      "outputs": [],
      "stateMutability": "nonpayable",
      "type": "function"
    },
    {
      "inputs": [
        {
          "internalType": "uint256",
          "name": "_orderIndex",
          "type": "uint256"
        }
      ],
      "name": "cancelSwapOrder",
      "outputs": [],
      "stateMutability": "nonpayable",
      "type": "function"
    },
    {
      "inputs": [
        {
          "internalType": "address",
          "name": "_indexToken",
          "type": "address"
        },
        {
          "internalType": "uint256",
          "name": "_sizeDelta",
          "type": "uint256"
        },
        {
          "internalType": "address",
          "name": "_collateralToken",
          "type": "address"
        },
        {
          "internalType": "uint256",
          "name": "_collateralDelta",
          "type": "uint256"
        },
        {
          "internalType": "bool",
          "name": "_isLong",
          "type": "bool"
        },
        {
          "internalType": "uint256",
          "name": "_triggerPrice",
          "type": "uint256"
        },
        {
          "internalType": "bool",
          "name": "_triggerAboveThreshold",
          "type": "bool"
        }
      ],
      "name": "createDecreaseOrder",
      "outputs": [],
      "stateMutability": "payable",
      "type": "function"
    },
    {
      "inputs": [
        {
          "internalType": "address[]",
          "name": "_path",
          "type": "address[]"
        },
        {
          "internalType": "uint256",
          "name": "_amountIn",
          "type": "uint256"
        },
        {
          "internalType": "address",
          "name": "_indexToken",
          "type": "address"
        },
        {
          "internalType": "uint256",
          "name": "_minOut",
          "type": "uint256"
        },
        {
          "internalType": "uint256",
          "name": "_sizeDelta",
          "type": "uint256"
        },
        {
          "internalType": "address",
          "name": "_collateralToken",
          "type": "address"
        },
        {
          "internalType": "bool",
          "name": "_isLong",
          "type": "bool"
        },
        {
          "internalType": "uint256",
          "name": "_triggerPrice",
          "type": "uint256"
        },
        {
          "internalType": "bool",
          "name": "_triggerAboveThreshold",
          "type": "bool"
        },
        {
          "internalType": "uint256",
          "name": "_executionFee",
          "type": "uint256"
        },
        {
          "internalType": "bool",
          "name": "_shouldWrap",
          "type": "bool"
        }
      ],
      "name": "createIncreaseOrder",
      "outputs": [],
      "stateMutability": "payable",
      "type": "function"
    },
    {
      "inputs": [
        {
          "internalType": "address[]",
          "name": "_path",
          "type": "address[]"
        },
        {
          "internalType": "uint256",
          "name": "_amountIn",
          "type": "uint256"
        },
        {
          "internalType": "uint256",
          "name": "_minOut",
          "type": "uint256"
        },
        {
          "internalType": "uint256",
          "name": "_triggerRatio",
          "type": "uint256"
        },
        {
          "internalType": "bool",
          "name": "_triggerAboveThreshold",
          "type": "bool"
        },
        {
          "internalType": "uint256",
          "name": "_executionFee",
          "type": "uint256"
        },
        {
          "internalType": "bool",
          "name": "_shouldWrap",
          "type": "bool"
        },
        {
          "internalType": "bool",
          "name": "_shouldUnwrap",
          "type": "bool"
        }
      ],
      "name": "createSwapOrder",
      "outputs": [],
      "stateMutability": "payable",
      "type": "function"
    },
    {
      "inputs": [
        {
          "internalType": "address",
          "name": "",
          "type": "address"
        },
        {
          "internalType": "uint256",
          "name": "",
          "type": "uint256"
        }
      ],
      "name": "decreaseOrders",
      "outputs": [
        {
          "internalType": "address",
          "name": "account",
          "type": "address"
        },
        {
          "internalType": "address",
          "name": "collateralToken",
          "type": "address"
        },
        {
          "internalType": "uint256",
          "name": "collateralDelta",
          "type": "uint256"
        },
        {
          "internalType": "address",
          "name": "indexToken",
          "type": "address"
        },
        {
          "internalType": "uint256",
          "name": "sizeDelta",
          "type": "uint256"
        },
        {
          "internalType": "bool",
          "name": "isLong",
          "type": "bool"
        },
        {
          "internalType": "uint256",
          "name": "triggerPrice",
          "type": "uint256"
        },
        {
          "internalType": "bool",
          "name": "triggerAboveThreshold",
          "type": "bool"
        },
        {
          "internalType": "uint256",
          "name": "executionFee",
          "type": "uint256"
        }
      ],
      "stateMutability": "view",
      "type": "function"
    },
    {
      "inputs": [
        {
          "internalType": "address",
          "name": "",
          "type": "address"
        }
      ],
      "name": "decreaseOrdersIndex",
      "outputs": [
        {
          "internalType": "uint256",
          "name": "",
          "type": "uint256"
        }
      ],
      "stateMutability": "view",
      "type": "function"
    },
    {
      "inputs": [
        {
          "internalType": "address",
          "name": "_address",
          "type": "address"
        },
        {
          "internalType": "uint256",
          "name": "_orderIndex",
          "type": "uint256"
        },
        {
          "internalType": "address payable",
          "name": "_feeReceiver",
          "type": "address"
        }
      ],
      "name": "executeDecreaseOrder",
      "outputs": [],
      "stateMutability": "nonpayable",
      "type": "function"
    },
    {
      "inputs": [
        {
          "internalType": "address",
          "name": "_address",
          "type": "address"
        },
        {
          "internalType": "uint256",
          "name": "_orderIndex",
          "type": "uint256"
        },
        {
          "internalType": "address payable",
          "name": "_feeReceiver",
          "type": "address"
        }
      ],
      "name": "executeIncreaseOrder",
      "outputs": [],
      "stateMutability": "nonpayable",
      "type": "function"
    },
    {
      "inputs": [
        {
          "internalType": "address",
          "name": "_account",
          "type": "address"
        },
        {
          "internalType": "uint256",
          "name": "_orderIndex",
          "type": "uint256"
        },
        {
          "internalType": "address payable",
          "name": "_feeReceiver",
          "type": "address"
        }
      ],
      "name": "executeSwapOrder",
      "outputs": [],
      "stateMutability": "nonpayable",
      "type": "function"
    },
    {
      "inputs": [
        {
          "internalType": "address",
          "name": "_account",
          "type": "address"
        },
        {
          "internalType": "uint256",
          "name": "_orderIndex",
          "type": "uint256"
        }
      ],
      "name": "getDecreaseOrder",
      "outputs": [
        {
          "internalType": "address",
          "name": "collateralToken",
          "type": "address"
        },
        {
          "internalType": "uint256",
          "name": "collateralDelta",
          "type": "uint256"
        },
        {
          "internalType": "address",
          "name": "indexToken",
          "type": "address"
        },
        {
          "internalType": "uint256",
          "name": "sizeDelta",
          "type": "uint256"
        },
        {
          "internalType": "bool",
          "name": "isLong",
          "type": "bool"
        },
        {
          "internalType": "uint256",
          "name": "triggerPrice",
          "type": "uint256"
        },
        {
          "internalType": "bool",
          "name": "triggerAboveThreshold",
          "type": "bool"
        },
        {
          "internalType": "uint256",
          "name": "executionFee",
          "type": "uint256"
        }
      ],
      "stateMutability": "view",
      "type": "function"
    },
    {
      "inputs": [
        {
          "internalType": "address",
          "name": "_account",
          "type": "address"
        },
        {
          "internalType": "uint256",
          "name": "_orderIndex",
          "type": "uint256"
        }
      ],
      "name": "getIncreaseOrder",
      "outputs": [
        {
          "internalType": "address",
          "name": "purchaseToken",
          "type": "address"
        },
        {
          "internalType": "uint256",
          "name": "purchaseTokenAmount",
          "type": "uint256"
        },
        {
          "internalType": "address",
          "name": "collateralToken",
          "type": "address"
        },
        {
          "internalType": "address",
          "name": "indexToken",
          "type": "address"
        },
        {
          "internalType": "uint256",
          "name": "sizeDelta",
          "type": "uint256"
        },
        {
          "internalType": "bool",
          "name": "isLong",
          "type": "bool"
        },
        {
          "internalType": "uint256",
          "name": "triggerPrice",
          "type": "uint256"
        },
        {
          "internalType": "bool",
          "name": "triggerAboveThreshold",
          "type": "bool"
        },
        {
          "internalType": "uint256",
          "name": "executionFee",
          "type": "uint256"
        }
      ],
      "stateMutability": "view",
      "type": "function"
    },
    {
      "inputs": [
        {
          "internalType": "address",
          "name": "_account",
          "type": "address"
        },
        {
          "internalType": "uint256",
          "name": "_orderIndex",
          "type": "uint256"
        }
      ],
      "name": "getSwapOrder",
      "outputs": [
        {
          "internalType": "address",
          "name": "path0",
          "type": "address"
        },
        {
          "internalType": "address",
          "name": "path1",
          "type": "address"
        },
        {
          "internalType": "address",
          "name": "path2",
          "type": "address"
        },
        {
          "internalType": "uint256",
          "name": "amountIn",
          "type": "uint256"
        },
        {
          "internalType": "uint256",
          "name": "minOut",
          "type": "uint256"
        },
        {
          "internalType": "uint256",
          "name": "triggerRatio",
          "type": "uint256"
        },
        {
          "internalType": "bool",
          "name": "triggerAboveThreshold",
          "type": "bool"
        },
        {
          "internalType": "bool",
          "name": "shouldUnwrap",
          "type": "bool"
        },
        {
          "internalType": "uint256",
          "name": "executionFee",
          "type": "uint256"
        }
      ],
      "stateMutability": "view",
      "type": "function"
    },
    {
      "inputs": [
        {
          "internalType": "address",
          "name": "_otherToken",
          "type": "address"
        }
      ],
      "name": "getUsdgMinPrice",
      "outputs": [
        {
          "internalType": "uint256",
          "name": "",
          "type": "uint256"
        }
      ],
      "stateMutability": "view",
      "type": "function"
    },
    {
      "inputs": [],
      "name": "gov",
      "outputs": [
        {
          "internalType": "address",
          "name": "",
          "type": "address"
        }
      ],
      "stateMutability": "view",
      "type": "function"
    },
    {
      "inputs": [
        {
          "internalType": "address",
          "name": "",
          "type": "address"
        },
        {
          "internalType": "uint256",
          "name": "",
          "type": "uint256"
        }
      ],
      "name": "increaseOrders",
      "outputs": [
        {
          "internalType": "address",
          "name": "account",
          "type": "address"
        },
        {
          "internalType": "address",
          "name": "purchaseToken",
          "type": "address"
        },
        {
          "internalType": "uint256",
          "name": "purchaseTokenAmount",
          "type": "uint256"
        },
        {
          "internalType": "address",
          "name": "collateralToken",
          "type": "address"
        },
        {
          "internalType": "address",
          "name": "indexToken",
          "type": "address"
        },
        {
          "internalType": "uint256",
          "name": "sizeDelta",
          "type": "uint256"
        },
        {
          "internalType": "bool",
          "name": "isLong",
          "type": "bool"
        },
        {
          "internalType": "uint256",
          "name": "triggerPrice",
          "type": "uint256"
        },
        {
          "internalType": "bool",
          "name": "triggerAboveThreshold",
          "type": "bool"
        },
        {
          "internalType": "uint256",
          "name": "executionFee",
          "type": "uint256"
        }
      ],
      "stateMutability": "view",
      "type": "function"
    },
    {
      "inputs": [
        {
          "internalType": "address",
          "name": "",
          "type": "address"
        }
      ],
      "name": "increaseOrdersIndex",
      "outputs": [
        {
          "internalType": "uint256",
          "name": "",
          "type": "uint256"
        }
      ],
      "stateMutability": "view",
      "type": "function"
    },
    {
      "inputs": [
        {
          "internalType": "address",
          "name": "_router",
          "type": "address"
        },
        {
          "internalType": "address",
          "name": "_vault",
          "type": "address"
        },
        {
          "internalType": "address",
          "name": "_weth",
          "type": "address"
        },
        {
          "internalType": "address",
          "name": "_usdg",
          "type": "address"
        },
        {
          "internalType": "address",
          "name": "_positionManager",
          "type": "address"
        },
        {
          "internalType": "uint256",
          "name": "_minExecutionFee",
          "type": "uint256"
        },
        {
          "internalType": "uint256",
          "name": "_minPurchaseTokenAmountUsd",
          "type": "uint256"
        }
      ],
      "name": "initialize",
      "outputs": [],
      "stateMutability": "nonpayable",
      "type": "function"
    },
    {
      "inputs": [],
      "name": "isInitialized",
      "outputs": [
        {
          "internalType": "bool",
          "name": "",
          "type": "bool"
        }
      ],
      "stateMutability": "view",
      "type": "function"
    },
    {
      "inputs": [],
      "name": "minExecutionFee",
      "outputs": [
        {
          "internalType": "uint256",
          "name": "",
          "type": "uint256"
        }
      ],
      "stateMutability": "view",
      "type": "function"
    },
    {
      "inputs": [],
      "name": "minPurchaseTokenAmountUsd",
      "outputs": [
        {
          "internalType": "uint256",
          "name": "",
          "type": "uint256"
        }
      ],
      "stateMutability": "view",
      "type": "function"
    },
    {
      "inputs": [],
      "name": "positionManager",
      "outputs": [
        {
          "internalType": "address",
          "name": "",
          "type": "address"
        }
      ],
      "stateMutability": "view",
      "type": "function"
    },
    {
      "inputs": [],
      "name": "router",
      "outputs": [
        {
          "internalType": "address",
          "name": "",
          "type": "address"
        }
      ],
      "stateMutability": "view",
      "type": "function"
    },
    {
      "inputs": [
        {
          "internalType": "address",
          "name": "_gov",
          "type": "address"
        }
      ],
      "name": "setGov",
      "outputs": [],
      "stateMutability": "nonpayable",
      "type": "function"
    },
    {
      "inputs": [
        {
          "internalType": "uint256",
          "name": "_minExecutionFee",
          "type": "uint256"
        }
      ],
      "name": "setMinExecutionFee",
      "outputs": [],
      "stateMutability": "nonpayable",
      "type": "function"
    },
    {
      "inputs": [
        {
          "internalType": "uint256",
          "name": "_minPurchaseTokenAmountUsd",
          "type": "uint256"
        }
      ],
      "name": "setMinPurchaseTokenAmountUsd",
      "outputs": [],
      "stateMutability": "nonpayable",
      "type": "function"
    },
    {
      "inputs": [
        {
          "internalType": "address",
          "name": "_positionManager",
          "type": "address"
        }
      ],
      "name": "setPositionManager",
      "outputs": [],
      "stateMutability": "nonpayable",
      "type": "function"
    },
    {
      "inputs": [
        {
          "internalType": "address",
          "name": "",
          "type": "address"
        },
        {
          "internalType": "uint256",
          "name": "",
          "type": "uint256"
        }
      ],
      "name": "swapOrders",
      "outputs": [
        {
          "internalType": "address",
          "name": "account",
          "type": "address"
        },
        {
          "internalType": "uint256",
          "name": "amountIn",
          "type": "uint256"
        },
        {
          "internalType": "uint256",
          "name": "minOut",
          "type": "uint256"
        },
        {
          "internalType": "uint256",
          "name": "triggerRatio",
          "type": "uint256"
        },
        {
          "internalType": "bool",
          "name": "triggerAboveThreshold",
          "type": "bool"
        },
        {
          "internalType": "bool",
          "name": "shouldUnwrap",
          "type": "bool"
        },
        {
          "internalType": "uint256",
          "name": "executionFee",
          "type": "uint256"
        }
      ],
      "stateMutability": "view",
      "type": "function"
    },
    {
      "inputs": [
        {
          "internalType": "address",
          "name": "",
          "type": "address"
        }
      ],
      "name": "swapOrdersIndex",
      "outputs": [
        {
          "internalType": "uint256",
          "name": "",
          "type": "uint256"
        }
      ],
      "stateMutability": "view",
      "type": "function"
    },
    {
      "inputs": [
        {
          "internalType": "uint256",
          "name": "_orderIndex",
          "type": "uint256"
        },
        {
          "internalType": "uint256",
          "name": "_collateralDelta",
          "type": "uint256"
        },
        {
          "internalType": "uint256",
          "name": "_sizeDelta",
          "type": "uint256"
        },
        {
          "internalType": "uint256",
          "name": "_triggerPrice",
          "type": "uint256"
        },
        {
          "internalType": "bool",
          "name": "_triggerAboveThreshold",
          "type": "bool"
        }
      ],
      "name": "updateDecreaseOrder",
      "outputs": [],
      "stateMutability": "nonpayable",
      "type": "function"
    },
    {
      "inputs": [
        {
          "internalType": "uint256",
          "name": "_orderIndex",
          "type": "uint256"
        },
        {
          "internalType": "uint256",
          "name": "_sizeDelta",
          "type": "uint256"
        },
        {
          "internalType": "uint256",
          "name": "_triggerPrice",
          "type": "uint256"
        },
        {
          "internalType": "bool",
          "name": "_triggerAboveThreshold",
          "type": "bool"
        }
      ],
      "name": "updateIncreaseOrder",
      "outputs": [],
      "stateMutability": "nonpayable",
      "type": "function"
    },
    {
      "inputs": [
        {
          "internalType": "uint256",
          "name": "_orderIndex",
          "type": "uint256"
        },
        {
          "internalType": "uint256",
          "name": "_minOut",
          "type": "uint256"
        },
        {
          "internalType": "uint256",
          "name": "_triggerRatio",
          "type": "uint256"
        },
        {
          "internalType": "bool",
          "name": "_triggerAboveThreshold",
          "type": "bool"
        }
      ],
      "name": "updateSwapOrder",
      "outputs": [],
      "stateMutability": "nonpayable",
      "type": "function"
    },
    {
      "inputs": [],
      "name": "usdg",
      "outputs": [
        {
          "internalType": "address",
          "name": "",
          "type": "address"
        }
      ],
      "stateMutability": "view",
      "type": "function"
    },
    {
      "inputs": [
        {
          "internalType": "bool",
          "name": "_triggerAboveThreshold",
          "type": "bool"
        },
        {
          "internalType": "uint256",
          "name": "_triggerPrice",
          "type": "uint256"
        },
        {
          "internalType": "address",
          "name": "_indexToken",
          "type": "address"
        },
        {
          "internalType": "bool",
          "name": "_maximizePrice",
          "type": "bool"
        },
        {
          "internalType": "bool",
          "name": "_raise",
          "type": "bool"
        }
      ],
      "name": "validatePositionOrderPrice",
      "outputs": [
        {
          "internalType": "uint256",
          "name": "",
          "type": "uint256"
        },
        {
          "internalType": "bool",
          "name": "",
          "type": "bool"
        }
      ],
      "stateMutability": "view",
      "type": "function"
    },
    {
      "inputs": [
        {
          "internalType": "address[]",
          "name": "_path",
          "type": "address[]"
        },
        {
          "internalType": "uint256",
          "name": "_triggerRatio",
          "type": "uint256"
        }
      ],
      "name": "validateSwapOrderPriceWithTriggerAboveThreshold",
      "outputs": [
        {
          "internalType": "bool",
          "name": "",
          "type": "bool"
        }
      ],
      "stateMutability": "view",
      "type": "function"
    },
    {
      "inputs": [],
      "name": "vault",
      "outputs": [
        {
          "internalType": "address",
          "name": "",
          "type": "address"
        }
      ],
      "stateMutability": "view",
      "type": "function"
    },
    {
      "inputs": [],
      "name": "weth",
      "outputs": [
        {
          "internalType": "address",
          "name": "",
          "type": "address"
        }
      ],
      "stateMutability": "view",
      "type": "function"
    },
    {
      "stateMutability": "payable",
      "type": "receive"
    }
  ],
  "bytecode": "0x6080604052600f805460ff1916905534801561001a57600080fd5b506001600055600780546001600160a01b0319163317905561588580620000426000396000f3fe6080604052600436106101d95760003560e01c8062cf066b14610240578063026032ee1461028557806307c7edc3146103105780630d5cc9381461035357806311d9444a1461037d57806312d43a51146103c0578063269ae6c2146103f15780632b7d6290146104bc578063392e53cd1461055c5780633fc8cef31461058557806347e0bbd01461059a5780634a686d67146105c45780634c54f0b0146105d95780635760f2e31461064357806363ae210314610676578063791b98bc1461068b57806379221fa2146106a0578063807c56001461071f5780638de10c2e146108d157806395082d25146108e65780639983ee1b146108fb5780639e23de5c146109395780639e71b0f01461096c578063a397ea5414610996578063aec22455146109da578063b142a4b014610a0d578063b33f952714610af7578063c16cde8a14610b56578063c4a1821b14610ba6578063c86b0f7d14610c56578063cfad57a214610c94578063d0d40cd614610cc7578063d38ab51914610d5a578063d3bab1d114610d9d578063d566d0ca14610e31578063f2d2e01b14610e64578063f5b91b7b14610ef8578063f882ac0714610f0d578063f887ea4014610f37578063fbfa77cf14610f4c578063fc2cee6214610f615761023b565b3661023b576008546001600160a01b03163314610239576040805162461bcd60e51b815260206004820152601960248201527827b93232b92137b7b59d1034b73b30b634b21039b2b73232b960391b604482015290519081900360640190fd5b005b600080fd5b34801561024c57600080fd5b506102736004803603602081101561026357600080fd5b50356001600160a01b0316610f8b565b60408051918252519081900360200190f35b34801561029157600080fd5b506102be600480360360408110156102a857600080fd5b506001600160a01b038135169060200135610f9d565b604080516001600160a01b03998a168152602081019890985295909716868601526060860193909352901515608085015260a0840152151560c083015260e08201929092529051908190036101000190f35b34801561031c57600080fd5b506102396004803603606081101561033357600080fd5b506001600160a01b03813581169160208101359160409091013516611070565b34801561035f57600080fd5b506102396004803603602081101561037657600080fd5b50356114c8565b34801561038957600080fd5b50610239600480360360608110156103a057600080fd5b506001600160a01b03813581169160208101359160409091013516611550565b3480156103cc57600080fd5b506103d561194c565b604080516001600160a01b039092168252519081900360200190f35b610239600480360361010081101561040857600080fd5b810190602081018135600160201b81111561042257600080fd5b82018360208201111561043457600080fd5b803590602001918460208302840111600160201b8311171561045557600080fd5b91908080602002602001604051908101604052809392919081815260200183836020028082843760009201919091525092955050823593505050602081013590604081013590606081013515159060808101359060a081013515159060c00135151561195b565b3480156104c857600080fd5b506104f5600480360360408110156104df57600080fd5b506001600160a01b038135169060200135611ce4565b604080516001600160a01b039b8c168152998b1660208b015289810198909852958916606089015293909716608087015260a0860191909152151560c085015260e08401949094529215156101008301526101208201929092529051908190036101400190f35b34801561056857600080fd5b50610571611d56565b604080519115158252519081900360200190f35b34801561059157600080fd5b506103d5611d5f565b3480156105a657600080fd5b50610239600480360360208110156105bd57600080fd5b5035611d6e565b3480156105d057600080fd5b50610273612078565b3480156105e557600080fd5b5061062a600480360360a08110156105fc57600080fd5b5080351515906020810135906001600160a01b03604082013516906060810135151590608001351515612084565b6040805192835290151560208301528051918290030190f35b34801561064f57600080fd5b506102396004803603602081101561066657600080fd5b50356001600160a01b03166121ed565b34801561068257600080fd5b5061027361225c565b34801561069757600080fd5b506103d5612262565b3480156106ac57600080fd5b506106d9600480360360408110156106c357600080fd5b506001600160a01b038135169060200135612271565b604080516001600160a01b039098168852602088019690965286860194909452606086019290925215156080850152151560a084015260c0830152519081900360e00190f35b34801561072b57600080fd5b506102396004803603606081101561074257600080fd5b810190602081018135600160201b81111561075c57600080fd5b82018360208201111561076e57600080fd5b803590602001918460208302840111600160201b8311171561078f57600080fd5b9190808060200260200160405190810160405280939291908181526020018383602002808284376000920191909152509295949360208101935035915050600160201b8111156107de57600080fd5b8201836020820111156107f057600080fd5b803590602001918460208302840111600160201b8311171561081157600080fd5b9190808060200260200160405190810160405280939291908181526020018383602002808284376000920191909152509295949360208101935035915050600160201b81111561086057600080fd5b82018360208201111561087257600080fd5b803590602001918460208302840111600160201b8311171561089357600080fd5b9190808060200260200160405190810160405280939291908181526020018383602002808284376000920191909152509295506122c5945050505050565b3480156108dd57600080fd5b5061027361235d565b3480156108f257600080fd5b50610273612363565b34801561090757600080fd5b506102396004803603608081101561091e57600080fd5b50803590602081013590604081013590606001351515612373565b34801561094557600080fd5b506102736004803603602081101561095c57600080fd5b50356001600160a01b03166124cb565b34801561097857600080fd5b506102396004803603602081101561098f57600080fd5b5035612675565b3480156109a257600080fd5b50610239600480360360a08110156109b957600080fd5b508035906020810135906040810135906060810135906080013515156128e7565b3480156109e657600080fd5b50610273600480360360208110156109fd57600080fd5b50356001600160a01b0316612a4f565b6102396004803603610160811015610a2457600080fd5b810190602081018135600160201b811115610a3e57600080fd5b820183602082011115610a5057600080fd5b803590602001918460208302840111600160201b83111715610a7157600080fd5b9190808060200260200160405190810160405280939291908181526020018383602002808284376000920191909152509295505082359350506001600160a01b036020830135811692604081013592506060810135916080820135169060a081013515159060c08101359060e08101351515906101008101359061012001351515612a61565b348015610b0357600080fd5b50610239600480360360e0811015610b1a57600080fd5b506001600160a01b0381358116916020810135821691604082013581169160608101358216916080820135169060a08101359060c00135612e63565b610239600480360360e0811015610b6c57600080fd5b506001600160a01b03813581169160208101359160408201351690606081013590608081013515159060a08101359060c001351515612fde565b348015610bb257600080fd5b5061057160048036036040811015610bc957600080fd5b810190602081018135600160201b811115610be357600080fd5b820183602082011115610bf557600080fd5b803590602001918460208302840111600160201b83111715610c1657600080fd5b919080806020026020016040519081016040528093929190818152602001838360200280828437600092019190915250929550509135925061308f915050565b348015610c6257600080fd5b5061023960048036036080811015610c7957600080fd5b508035906020810135906040810135906060013515156132a6565b348015610ca057600080fd5b5061023960048036036020811015610cb757600080fd5b50356001600160a01b031661346f565b348015610cd357600080fd5b50610d0060048036036040811015610cea57600080fd5b506001600160a01b038135169060200135613510565b604080516001600160a01b039a8b168152988a1660208a015296909816878701526060870194909452608086019290925260a0850152151560c0840152151560e08301526101008201929092529051908190036101200190f35b348015610d6657600080fd5b5061023960048036036060811015610d7d57600080fd5b506001600160a01b038135811691602081013591604090910135166136cd565b348015610da957600080fd5b50610dd660048036036040811015610dc057600080fd5b506001600160a01b038135169060200135613e21565b604080516001600160a01b039a8b1681526020810199909952968916888801529490971660608701526080860192909252151560a085015260c084015292151560e08301526101008201929092529051908190036101200190f35b348015610e3d57600080fd5b5061027360048036036020811015610e5457600080fd5b50356001600160a01b0316613f07565b348015610e7057600080fd5b50610e9d60048036036040811015610e8757600080fd5b506001600160a01b038135169060200135613f19565b604080516001600160a01b039a8b168152988a1660208a0152888101979097529490971660608701526080860192909252151560a085015260c084015292151560e08301526101008201929092529051908190036101200190f35b348015610f0457600080fd5b506103d5613f83565b348015610f1957600080fd5b5061023960048036036020811015610f3057600080fd5b5035613f92565b348015610f4357600080fd5b506103d56142cf565b348015610f5857600080fd5b506103d56142de565b348015610f6d57600080fd5b5061023960048036036020811015610f8457600080fd5b50356142ed565b60066020526000908152604090205481565b600080600080600080600080610fb1615428565b505050506001600160a01b03968716600090815260036020818152604080842099845298815291889020885161012081018a5281548b16815260018201548b1693810184905260028201549981018a9052918101549099166060820181905260048a01546080830181905260058b015460ff908116151560a0850181905260068d015460c0860181905260078e0154909216151560e086018190526008909d0154610100909501859052949c9a9b929a91995093975092955093509150565b600260005414156110b6576040805162461bcd60e51b815260206004820152601f60248201526000805160206155f5833981519152604482015290519081900360640190fd5b6002600055600c546001600160a01b03163314611108576040805162461bcd60e51b8152602060048201526014602482015260008051602061565c833981519152604482015290519081900360640190fd5b611110615474565b6001600160a01b0380851660009081526005602090815260408083208784528252918290208251610100810184528154909416845260018101805484518185028101850190955280855291938584019390929083018282801561119c57602002820191906000526020600020905b81546001600160a01b0316815260019091019060200180831161117e575b5050509183525050600282015460208201526003820154604082015260048201546060820152600582015460ff8082161515608084015261010090910416151560a082015260069091015460c09091015280519091506001600160a01b031661123a576040805162461bcd60e51b815260206004820152601d60248201526000805160206155d5833981519152604482015290519081900360640190fd5b8060a0015115611291576112568160200151826080015161308f565b6112915760405162461bcd60e51b815260040180806020018281038252602681526020018061578e6026913960400191505060405180910390fd5b6001600160a01b0384166000908152600560209081526040808320868452909152812080546001600160a01b0319168155906112d060018301826154c6565b50600060028201819055600382018190556004820181905560058201805461ffff191690556006909101819055600b54604083015160208401518051611343946001600160a01b03909416939061132357fe5b60200260200101516001600160a01b03166143759092919063ffffffff16565b600854602082015180516000926001600160a01b03169190600019810190811061136957fe5b60200260200101516001600160a01b031614801561138857508160c001515b156113b5576113a082602001518360600151306143cc565b90506113b08183600001516144fb565b6113cf565b6113cc8260200151836060015184600001516143cc565b90505b6113dd8260e00151846144fb565b846001600160a01b03167f7e1fe496989eea92b738a562dbf9c0ae6aa6fcf3f1ef09e95ee4f7603721706b858460200151856040015186606001518688608001518960a001518a60c001518b60e00151604051808a8152602001806020018981526020018881526020018781526020018681526020018515158152602001841515815260200183815260200182810382528a818151815260200191508051906020019060200280838360005b838110156114a1578181015183820152602001611489565b505050509050019a505050505050505050505060405180910390a250506001600055505050565b6007546001600160a01b03163314611515576040805162461bcd60e51b8152602060048201526014602482015260008051602061565c833981519152604482015290519081900360640190fd5b600e8190556040805182815290517fe46d9daf6d25f7615efa1d0183b90ac6759d85014b598e409aadf0fd918d59a69181900360200190a150565b60026000541415611596576040805162461bcd60e51b815260206004820152601f60248201526000805160206155f5833981519152604482015290519081900360640190fd5b6002600055600c546001600160a01b031633146115e8576040805162461bcd60e51b8152602060048201526014602482015260008051602061565c833981519152604482015290519081900360640190fd5b6115f0615428565b506001600160a01b03808416600090815260036020818152604080842087855282529283902083516101208101855281548616808252600183015487169382019390935260028201549481019490945291820154909316606083015260048101546080830152600581015460ff908116151560a0840152600682015460c0840152600782015416151560e083015260080154610100820152906116c8576040805162461bcd60e51b815260206004820152601d60248201526000805160206155d5833981519152604482015290519081900360640190fd5b60006116e98260e001518360c0015184606001518560a00151156001612084565b506001600160a01b0380871660009081526003602081815260408084208a8552825280842080546001600160a01b0319908116825560018201805482169055600282018690559381018054909416909355600480840185905560058401805460ff199081169091556006850186905560078501805490911690556008909301849055600a5488518984015160608b01518b85015160808d015160a08e01518751632662166b60e01b8152958c1699860199909952928a16602485015290891660448401526064830152608482015293151560a48501523060c4850152905195965092949290931692632662166b9260e48084019382900301818787803b1580156117f257600080fd5b505af1158015611806573d6000803e3d6000fd5b505050506040513d602081101561181c57600080fd5b505160085460208501519192506001600160a01b039182169116141561184f5761184a8184600001516144fb565b61186c565b8251602084015161186c916001600160a01b039091169083614375565b61187b836101000151856144fb565b82600001516001600160a01b03167f9a382661d6573da86db000471303be6f0b2b1bb66089b08e3c16a85d7b6e94f88685602001518660400151876060015188608001518960a001518a60c001518b60e001518c61010001518c604051808b81526020018a6001600160a01b03168152602001898152602001886001600160a01b03168152602001878152602001861515815260200185815260200184151581526020018381526020018281526020019a505050505050505050505060405180910390a25050600160005550505050565b6007546001600160a01b031681565b600260005414156119a1576040805162461bcd60e51b815260206004820152601f60248201526000805160206155f5833981519152604482015290519081900360640190fd5b60026000819055885114806119b7575087516003145b6119f6576040805162461bcd60e51b815260206004820152601f60248201526000805160206157d8833981519152604482015290519081900360640190fd5b87600189510381518110611a0657fe5b60200260200101516001600160a01b031688600081518110611a2457fe5b60200260200101516001600160a01b03161415611a83576040805162461bcd60e51b815260206004820152601860248201527709ee4c8cae484deded67440d2dcecc2d8d2c840bee0c2e8d60431b604482015290519081900360640190fd5b60008711611ad7576040805162461bcd60e51b815260206004820152601c60248201527b27b93232b92137b7b59d1034b73b30b634b2102fb0b6b7bab73a24b760211b604482015290519081900360640190fd5b600d54831015611b185760405162461bcd60e51b81526004018080602001828103825260258152602001806157226025913960400191505060405180910390fd5b611b20614578565b8115611bdb5760085488516001600160a01b03909116908990600090611b4257fe5b60200260200101516001600160a01b031614611b8f5760405162461bcd60e51b81526004018080602001828103825260258152602001806156fd6025913960400191505060405180910390fd5b611b9983886145ea565b3414611bd65760405162461bcd60e51b81526004018080602001828103825260268152602001806157686026913960400191505060405180910390fd5b611cc5565b823414611c195760405162461bcd60e51b815260040180806020018281038252602e815260200180615822602e913960400191505060405180910390fd5b600a5488516001600160a01b0390911690631b827878908a90600090611c3b57fe5b602002602001015133308b6040518563ffffffff1660e01b815260040180856001600160a01b03168152602001846001600160a01b03168152602001836001600160a01b03168152602001828152602001945050505050600060405180830381600087803b158015611cac57600080fd5b505af1158015611cc0573d6000803e3d6000fd5b505050505b611cd5338989898989878a614642565b50506001600055505050505050565b6001602081815260009384526040808520909152918352912080549181015460028201546003830154600484015460058501546006860154600787015460088801546009909801546001600160a01b03998a1699978816989697958616969490951694929360ff92831693919216908a565b600f5460ff1681565b6008546001600160a01b031681565b60026000541415611db4576040805162461bcd60e51b815260206004820152601f60248201526000805160206155f5833981519152604482015290519081900360640190fd5b6002600055611dc16154e7565b5033600090815260016020818152604080842085855282529283902083516101408101855281546001600160a01b039081168083529483015481169382019390935260028201549481019490945260038101548216606085015260048101549091166080840152600581015460a0840152600681015460ff908116151560c0850152600782015460e0850152600882015416151561010084015260090154610120830152611ea4576040805162461bcd60e51b815260206004820152601d60248201526000805160206155d5833981519152604482015290519081900360640190fd5b3360009081526001602081815260408084208685528252832080546001600160a01b0319908116825592810180548416905560028101849055600381018054841690556004810180549093169092556005820183905560068201805460ff19908116909155600783018490556008808401805490921690915560099092019290925554908201516001600160a01b0390811691161415611f6857611f63611f5d82604001518361012001516145ea90919063ffffffff16565b336144fb565b611f9d565b611f8e33826040015183602001516001600160a01b03166143759092919063ffffffff16565b611f9d816101200151336144fb565b80600001516001600160a01b03167fd500f34e0ec655b7614ae42e1d9c666d5e4dde909a1297829f8c5ecf00805d328383602001518460400151856060015186608001518760a001518860c001518960e001518a61010001518b6101200151604051808b81526020018a6001600160a01b03168152602001898152602001886001600160a01b03168152602001876001600160a01b03168152602001868152602001851515815260200184815260200183151581526020018281526020019a505050505050505050505060405180910390a250506001600055565b670de0b6b3a764000081565b60008060008461210c57600b54604080516340d3096b60e11b81526001600160a01b038981166004830152915191909216916381a612d6916024808301926020929190829003018186803b1580156120db57600080fd5b505afa1580156120ef573d6000803e3d6000fd5b505050506040513d602081101561210557600080fd5b5051612186565b600b5460408051637092736960e11b81526001600160a01b0389811660048301529151919092169163e124e6d2916024808301926020929190829003018186803b15801561215957600080fd5b505afa15801561216d573d6000803e3d6000fd5b505050506040513d602081101561218357600080fd5b50515b90506000886121975787821061219b565b8782115b905084156121df57806121df5760405162461bcd60e51b815260040180806020018281038252602681526020018061578e6026913960400191505060405180910390fd5b909890975095505050505050565b6007546001600160a01b0316331461223a576040805162461bcd60e51b8152602060048201526014602482015260008051602061565c833981519152604482015290519081900360640190fd5b600c80546001600160a01b0319166001600160a01b0392909216919091179055565b600d5481565b600c546001600160a01b031681565b600560208181526000938452604080852090915291835291208054600282015460038301546004840154948401546006909401546001600160a01b03909316949193909260ff808316926101009004169087565b60005b83518110156122f5576122ed8482815181106122e057fe5b6020026020010151613f92565b6001016122c8565b5060005b82518110156123265761231e83828151811061231157fe5b6020026020010151611d6e565b6001016122f9565b5060005b81518110156123575761234f82828151811061234257fe5b6020026020010151612675565b60010161232a565b50505050565b600e5481565b68327cb2734119d3b7a9601e1b81565b600260005414156123b9576040805162461bcd60e51b815260206004820152601f60248201526000805160206155f5833981519152604482015290519081900360640190fd5b60026000908155338152600160209081526040808320878452909152902080546001600160a01b0316612421576040805162461bcd60e51b815260206004820152601d60248201526000805160206155d5833981519152604482015290519081900360640190fd5b6007810183905560088101805483151560ff19909116811790915560058201859055600382015460048301546006840154604080518a81526001600160a01b039485166020820152929093168284015260ff16151560608201526080810187905260a0810186905260c08101929092525133917f0a0360dd5c354235bbf8d386ba3b24ef8134088e0785677de1504df219d9149a919081900360e00190a250506001600055505050565b600b5460408051632c668ec160e01b81526001600160a01b038481166004830152670de0b6b3a76400006024830152915160009384931691632c668ec1916044808301926020929190829003018186803b15801561252857600080fd5b505afa15801561253c573d6000803e3d6000fd5b505050506040513d602081101561255257600080fd5b5051600b54604080516340d3096b60e11b81526001600160a01b038781166004830152915193945060009391909216916381a612d6916024808301926020929190829003018186803b1580156125a757600080fd5b505afa1580156125bb573d6000803e3d6000fd5b505050506040513d60208110156125d157600080fd5b5051600b54604080516323b95ceb60e21b81526001600160a01b03888116600483015291519394506000939190921691638ee573ac916024808301926020929190829003018186803b15801561262657600080fd5b505afa15801561263a573d6000803e3d6000fd5b505050506040513d602081101561265057600080fd5b5051905061266c600a82900a6126668585614851565b906148aa565b95945050505050565b600260005414156126bb576040805162461bcd60e51b815260206004820152601f60248201526000805160206155f5833981519152604482015290519081900360640190fd5b60026000556126c8615428565b5033600090815260036020818152604080842085855282529283902083516101208101855281546001600160a01b03908116808352600184015482169483019490945260028301549582019590955292810154909316606083015260048301546080830152600583015460ff908116151560a0840152600684015460c0840152600784015416151560e0830152600890920154610100820152906127a1576040805162461bcd60e51b815260206004820152601d60248201526000805160206155d5833981519152604482015290519081900360640190fd5b336000818152600360208181526040808420878552909152822080546001600160a01b03199081168255600182018054821690556002820184905591810180549092169091556004810182905560058101805460ff1990811690915560068201839055600782018054909116905560080155610100820151612822916144fb565b80600001516001600160a01b03167f1154174c82984656b028c8021671988f60a346497e56fe02554761184f82a0758383602001518460400151856060015186608001518760a001518860c001518960e001518a6101000151604051808a8152602001896001600160a01b03168152602001888152602001876001600160a01b0316815260200186815260200185151581526020018481526020018315158152602001828152602001995050505050505050505060405180910390a250506001600055565b6002600054141561292d576040805162461bcd60e51b815260206004820152601f60248201526000805160206155f5833981519152604482015290519081900360640190fd5b60026000908155338152600360209081526040808320888452909152902080546001600160a01b0316612995576040805162461bcd60e51b815260206004820152601d60248201526000805160206155d5833981519152604482015290519081900360640190fd5b6006810183905560078101805483151560ff1990911681179091556004820185905560028201869055600182015460038301546005840154604080518b81526001600160a01b0394851660208201528082018b90529290931660608301526080820188905260ff16151560a082015260c0810186905260e08101929092525133917f75781255bc71c83f89f29e5a2599f2c174a562d2cd8f2e818a47f132e728049891908190036101000190a25050600160005550505050565b60026020526000908152604090205481565b60026000541415612aa7576040805162461bcd60e51b815260206004820152601f60248201526000805160206155f5833981519152604482015290519081900360640190fd5b6002600055612ab4614578565b600d54821015612af55760405162461bcd60e51b81526004018080602001828103825260258152602001806157226025913960400191505060405180910390fd5b8015612bb0576008548b516001600160a01b03909116908c90600090612b1757fe5b60200260200101516001600160a01b031614612b645760405162461bcd60e51b81526004018080602001828103825260258152602001806156fd6025913960400191505060405180910390fd5b612b6e828b6145ea565b3414612bab5760405162461bcd60e51b81526004018080602001828103825260268152602001806157686026913960400191505060405180910390fd5b612c9a565b813414612bee5760405162461bcd60e51b815260040180806020018281038252602e815260200180615822602e913960400191505060405180910390fd5b600a548b516001600160a01b0390911690631b827878908d90600090612c1057fe5b602002602001015133308e6040518563ffffffff1660e01b815260040180856001600160a01b03168152602001846001600160a01b03168152602001836001600160a01b03168152602001828152602001945050505050600060405180830381600087803b158015612c8157600080fd5b505af1158015612c95573d6000803e3d6000fd5b505050505b60008b60018d510381518110612cac57fe5b60200260200101519050600060018d511115612d7157816001600160a01b03168d600081518110612cd957fe5b60200260200101516001600160a01b03161415612d38576040805162461bcd60e51b815260206004820152601860248201527709ee4c8cae484deded67440d2dcecc2d8d2c840bee0c2e8d60431b604482015290519081900360640190fd5b612d5f600b60009054906101000a90046001600160a01b03168d8f60008151811061132357fe5b612d6a8d8b306143cc565b9050612d74565b508a5b600b5460408051630a48d5a960e01b81526001600160a01b0385811660048301526024820185905291516000939290921691630a48d5a991604480820192602092909190829003018186803b158015612dcc57600080fd5b505afa158015612de0573d6000803e3d6000fd5b505050506040513d6020811015612df657600080fd5b5051600e54909150811015612e3c5760405162461bcd60e51b815260040180806020018281038252602281526020018061563a6022913960400191505060405180910390fd5b50612e4f3383838b8f8e8d8d8d8d6148e9565b505060016000555050505050505050505050565b6007546001600160a01b03163314612eb0576040805162461bcd60e51b8152602060048201526014602482015260008051602061565c833981519152604482015290519081900360640190fd5b600f5460ff1615612f08576040805162461bcd60e51b815260206004820152601e60248201527f4f72646572426f6f6b3a20616c726561647920696e697469616c697a65640000604482015290519081900360640190fd5b600f805460ff19166001179055600a80546001600160a01b03808a166001600160a01b03199283168117909355600b80548a83169084168117909155600880548a84169085168117909155600980548a85169086168117909155600c8054948a16949095168417909455600d879055600e869055604080519586526020860192909252848201526060840192909252608083015260a0820184905260c08201839052517f564b223b8843116172ce0f957b05fa36ecd319793a824ea699c9e4c1f721d40c9181900360e00190a150505050505050565b60026000541415613024576040805162461bcd60e51b815260206004820152601f60248201526000805160206155f5833981519152604482015290519081900360640190fd5b6002600055613031614578565b600d5434116130715760405162461bcd60e51b81526004018080602001828103825260258152602001806157226025913960400191505060405180910390fd5b6130813386868a8a888888614bbc565b505060016000555050505050565b60008251600214806130a2575082516003145b6130e1576040805162461bcd60e51b815260206004820152601f60248201526000805160206157d8833981519152604482015290519081900360640190fd5b6000836000815181106130f057fe5b6020026020010151905060008460018651038151811061310c57fe5b602090810291909101015160095490915060009081906001600160a01b0385811691161415613159576131528760018151811061314557fe5b60200260200101516124cb565b91506131d5565b600b54604080516340d3096b60e11b81526001600160a01b038781166004830152915191909216916381a612d6916024808301926020929190829003018186803b1580156131a657600080fd5b505afa1580156131ba573d6000803e3d6000fd5b505050506040513d60208110156131d057600080fd5b505191505b6009546001600160a01b03848116911614156131fe575068327cb2734119d3b7a9601e1b61327a565b600b5460408051637092736960e11b81526001600160a01b0386811660048301529151919092169163e124e6d2916024808301926020929190829003018186803b15801561324b57600080fd5b505afa15801561325f573d6000803e3d6000fd5b505050506040513d602081101561327557600080fd5b505190505b6000613296836126668468327cb2734119d3b7a9601e1b614851565b8710955050505050505b92915050565b600260005414156132ec576040805162461bcd60e51b815260206004820152601f60248201526000805160206155f5833981519152604482015290519081900360640190fd5b60026000908155338152600560209081526040808320878452909152902080546001600160a01b0316613354576040805162461bcd60e51b815260206004820152601d60248201526000805160206155d5833981519152604482015290519081900360640190fd5b838160030181905550828160040181905550818160050160006101000a81548160ff021916908315150217905550336001600160a01b03167fa7f9f4a25eb76f5ec01b1a429d95d6a00833f0f137c88827c58799a1c1ff0dfe868360010184600201548888888860050160019054906101000a900460ff168960060154604051808981526020018060200188815260200187815260200186815260200185151581526020018415158152602001838152602001828103825289818154815260200191508054801561344e57602002820191906000526020600020905b81546001600160a01b03168152600190910190602001808311613430575b5050995050505050505050505060405180910390a250506001600055505050565b6007546001600160a01b031633146134bc576040805162461bcd60e51b8152602060048201526014602482015260008051602061565c833981519152604482015290519081900360640190fd5b600780546001600160a01b0383166001600160a01b0319909116811790915560408051918252517fe24c39186e9137521953beaa8446e71f55b8f12296984f9d4273ceb1af728d909181900360200190a150565b6000806000806000806000806000613526615474565b6001600160a01b03808d1660009081526005602090815260408083208f8452825291829020825161010081018452815490941684526001810180548451818502810185019095528085529193858401939092908301828280156135b257602002820191906000526020600020905b81546001600160a01b03168152600190910190602001808311613594575b505050918352505060028201546020808301919091526003830154604083015260048301546060830152600583015460ff8082161515608085015261010090910416151560a083015260069092015460c09091015281015151909150613619576000613633565b806020015160008151811061362a57fe5b60200260200101515b600182602001515111613647576000613661565b816020015160018151811061365857fe5b60200260200101515b60028360200151511161367557600061368f565b826020015160028151811061368657fe5b60200260200101515b8360400151846060015185608001518660a001518760c001518860e00151995099509950995099509950995099509950509295985092959850929598565b60026000541415613713576040805162461bcd60e51b815260206004820152601f60248201526000805160206155f5833981519152604482015290519081900360640190fd5b6002600055600c546001600160a01b03163314613765576040805162461bcd60e51b8152602060048201526014602482015260008051602061565c833981519152604482015290519081900360640190fd5b61376d6154e7565b506001600160a01b038084166000908152600160208181526040808420878552825292839020835161014081018552815486168082529382015486169281019290925260028101549382019390935260038301548416606082015260048301549093166080840152600582015460a0840152600682015460ff908116151560c0850152600783015460e08501526008830154161515610100840152600990910154610120830152613853576040805162461bcd60e51b815260206004820152601d60248201526000805160206155d5833981519152604482015290519081900360640190fd5b60006138748261010001518360e0015184608001518560c001516001612084565b50600c5460c08401519192506001600160a01b031690156139ec576000816001600160a01b0316631045c74e85608001516040518263ffffffff1660e01b815260040180826001600160a01b0316815260200191505060206040518083038186803b1580156138e257600080fd5b505afa1580156138f6573d6000803e3d6000fd5b505050506040513d602081101561390c57600080fd5b5051905080158015906139aa575060a0840151600b5460808601516040805163783a2b6760e11b81526001600160a01b039283166004820152905185946139a8949093169163f07456ce916024808301926020929190829003018186803b15801561397657600080fd5b505afa15801561398a573d6000803e3d6000fd5b505050506040513d60208110156139a057600080fd5b5051906145ea565b115b156139e65760405162461bcd60e51b81526004018080602001828103825260248152602001806157b46024913960400191505060405180910390fd5b50613b13565b6000816001600160a01b0316639698d25a85608001516040518263ffffffff1660e01b815260040180826001600160a01b0316815260200191505060206040518083038186803b158015613a3f57600080fd5b505afa158015613a53573d6000803e3d6000fd5b505050506040513d6020811015613a6957600080fd5b505190508015801590613ad5575060a0840151600b5460808601516040805163114f1b5560e31b81526001600160a01b03928316600482015290518594613ad39490931691638a78daa8916024808301926020929190829003018186803b15801561397657600080fd5b115b15613b115760405162461bcd60e51b81526004018080602001828103825260258152602001806156156025913960400191505060405180910390fd5b505b6001600160a01b0380871660009081526001602081815260408084208a8552825280842080546001600160a01b0319908116825593810180548516905560028101859055600381018054851690556004810180549094169093556005830184905560068301805460ff19908116909155600784018590556008840180549091169055600990920192909255600b549086015191860151613bb99390811692911690614375565b82606001516001600160a01b031683602001516001600160a01b031614613c91576040805160028082526060808301845292602083019080368337019050509050836020015181600081518110613c0c57fe5b60200260200101906001600160a01b031690816001600160a01b031681525050836060015181600181518110613c3e57fe5b60200260200101906001600160a01b031690816001600160a01b0316815250506000613c6c826000306143cc565b600b546060870151919250613c8e916001600160a01b03908116911683614375565b50505b600a5483516060850151608086015160a087015160c088015160408051630f8ee8bb60e11b81526001600160a01b03968716600482015294861660248601529285166044850152606484019190915215156084830152519190921691631f1dd1769160a480830192600092919082900301818387803b158015613d1357600080fd5b505af1158015613d27573d6000803e3d6000fd5b50505050613d3a836101200151856144fb565b82600001516001600160a01b03167f7fb1c74d1ea6aa1c9c585e17ce8274c8ff98745e85e7459b73f87d784494f58e8685602001518660400151876060015188608001518960a001518a60c001518b60e001518c61010001518d61012001518d604051808c81526020018b6001600160a01b031681526020018a8152602001896001600160a01b03168152602001886001600160a01b03168152602001878152602001861515815260200185815260200184151581526020018381526020018281526020019b50505050505050505050505060405180910390a25050600160005550505050565b6000806000806000806000806000613e376154e7565b505050506001600160a01b0397881660009081526001602081815260408084209a845299815291899020895161014081018b5281548c168152918101548b1692820183905260028101549982018a905260038101548b16606083018190526004820154909b1660808301819052600582015460a08401819052600683015460ff908116151560c08601819052600785015460e08701819052600886015490921615156101008701819052600990950154610120909601869052959e9c9d9c929b5090995093975092955093509150565b60046020526000908152604090205481565b600360208181526000938452604080852090915291835291208054600182015460028301549383015460048401546005850154600686015460078701546008909701546001600160a01b039687169895871697959690941694929360ff9283169391929091169089565b6009546001600160a01b031681565b60026000541415613fd8576040805162461bcd60e51b815260206004820152601f60248201526000805160206155f5833981519152604482015290519081900360640190fd5b6002600055613fe5615474565b33600090815260056020908152604080832085845282529182902082516101008101845281546001600160a01b031681526001820180548551818602810186019096528086529194929385810193929083018282801561406e57602002820191906000526020600020905b81546001600160a01b03168152600190910190602001808311614050575b5050509183525050600282015460208201526003820154604082015260048201546060820152600582015460ff8082161515608084015261010090910416151560a082015260069091015460c09091015280519091506001600160a01b031661410c576040805162461bcd60e51b815260206004820152601d60248201526000805160206155d5833981519152604482015290519081900360640190fd5b336000908152600560209081526040808320858452909152812080546001600160a01b03191681559061414260018301826154c6565b50600060028201819055600382018190556004820181905560058201805461ffff191690556006909101819055600854602083015180516001600160a01b0390921692909161418d57fe5b60200260200101516001600160a01b031614156141c7576141c2611f5d82604001518360e001516145ea90919063ffffffff16565b6141ef565b6141e1338260400151836020015160008151811061132357fe5b6141ef8160e00151336144fb565b336001600160a01b03167fefd66d4f9c2f880c70aedeb5b26a44fb474cea07e5d6c533f2d27c303d5d94538383602001518460400151856060015186608001518760a001518860c001518960e00151604051808981526020018060200188815260200187815260200186815260200185151581526020018415158152602001838152602001828103825289818151815260200191508051906020019060200280838360005b838110156142ac578181015183820152602001614294565b50505050905001995050505050505050505060405180910390a250506001600055565b600a546001600160a01b031681565b600b546001600160a01b031681565b6007546001600160a01b0316331461433a576040805162461bcd60e51b8152602060048201526014602482015260008051602061565c833981519152604482015290519081900360640190fd5b600d8190556040805182815290517fbde5eafdc37b81830d70124cddccaaa6d034e71dda3c8fc18a959ca76a7cbcfc9181900360200190a150565b604080516001600160a01b038416602482015260448082018490528251808303909101815260649091019091526020810180516001600160e01b031663a9059cbb60e01b1790526143c7908490614e32565b505050565b60008351600214156144135761440c846000815181106143e857fe5b6020026020010151856001815181106143fd57fe5b60200260200101518585614ee3565b90506144f4565b8351600314156144b95760006144548560008151811061442f57fe5b60200260200101518660018151811061444457fe5b6020026020010151600030614ee3565b905061447d600b60009054906101000a90046001600160a01b0316828760018151811061132357fe5b6144b18560018151811061448d57fe5b6020026020010151866002815181106144a257fe5b60200260200101518686614ee3565b9150506144f4565b6040805162461bcd60e51b815260206004820152601f60248201526000805160206157d8833981519152604482015290519081900360640190fd5b9392505050565b60085460408051632e1a7d4d60e01b81526004810185905290516001600160a01b0390921691632e1a7d4d9160248082019260009290919082900301818387803b15801561454857600080fd5b505af115801561455c573d6000803e3d6000fd5b50614574925050506001600160a01b038216836150c2565b5050565b34156145e857600860009054906101000a90046001600160a01b03166001600160a01b031663d0e30db0346040518263ffffffff1660e01b81526004016000604051808303818588803b1580156145ce57600080fd5b505af11580156145e2573d6000803e3d6000fd5b50505050505b565b6000828201838110156144f4576040805162461bcd60e51b815260206004820152601b60248201527a536166654d6174683a206164646974696f6e206f766572666c6f7760281b604482015290519081900360640190fd5b6001600160a01b038816600090815260066020526040902054614663615474565b6040518061010001604052808b6001600160a01b031681526020018a8152602001898152602001888152602001878152602001861515815260200185151581526020018481525090506146c06001836145ea90919063ffffffff16565b6001600160a01b038b8116600090815260066020908152604080832094909455600581528382208683528152929020835181546001600160a01b0319169216919091178155828201518051849361471e92600185019291019061553b565b5060408201518160020155606082015181600301556080820151816004015560a08201518160050160006101000a81548160ff02191690831515021790555060c08201518160050160016101000a81548160ff02191690831515021790555060e08201518160060155905050896001600160a01b03167fdf06bb56ffc4029dc0b62b68bb5bbadea93a38b530cefc9b81afb742a6555d88838b8b8b8b8b8b8b604051808981526020018060200188815260200187815260200186815260200185151581526020018415158152602001838152602001828103825289818151815260200191508051906020019060200280838360005b8381101561482b578181015183820152602001614813565b50505050905001995050505050505050505060405180910390a250505050505050505050565b600082614860575060006132a0565b8282028284828161486d57fe5b04146144f45760405162461bcd60e51b81526004018080602001828103825260218152602001806157476021913960400191505060405180910390fd5b60006144f483836040518060400160405280601a815260200179536166654d6174683a206469766973696f6e206279207a65726f60301b8152506151a7565b336000908152600260205260409020546149016154e7565b6040518061014001604052808d6001600160a01b031681526020018c6001600160a01b031681526020018b81526020018a6001600160a01b03168152602001896001600160a01b03168152602001888152602001871515815260200186815260200185151581526020018481525090506149856001836145ea90919063ffffffff16565b600260008e6001600160a01b03166001600160a01b031681526020019081526020016000208190555080600160008e6001600160a01b03166001600160a01b03168152602001908152602001600020600084815260200190815260200160002060008201518160000160006101000a8154816001600160a01b0302191690836001600160a01b0316021790555060208201518160010160006101000a8154816001600160a01b0302191690836001600160a01b031602179055506040820151816002015560608201518160030160006101000a8154816001600160a01b0302191690836001600160a01b0316021790555060808201518160040160006101000a8154816001600160a01b0302191690836001600160a01b0316021790555060a0820151816005015560c08201518160060160006101000a81548160ff02191690831515021790555060e082015181600701556101008201518160080160006101000a81548160ff02191690831515021790555061012082015181600901559050508b6001600160a01b03167fb27b9afe3043b93788c40cfc3cc73f5d928a2e40f3ba01820b246426de8fa1b9838d8d8d8d8d8d8d8d8d604051808b81526020018a6001600160a01b03168152602001898152602001886001600160a01b03168152602001876001600160a01b03168152602001868152602001851515815260200184815260200183151581526020018281526020019a505050505050505050505060405180910390a2505050505050505050505050565b6001600160a01b038816600090815260046020526040902054614bdd615428565b5060408051610120810182526001600160a01b03808c1682528a8116602083015291810189905290871660608201526080810186905284151560a082015260c0810184905282151560e082015234610100820152614c3c8260016145ea565b600460008c6001600160a01b03166001600160a01b031681526020019081526020016000208190555080600360008c6001600160a01b03166001600160a01b03168152602001908152602001600020600084815260200190815260200160002060008201518160000160006101000a8154816001600160a01b0302191690836001600160a01b0316021790555060208201518160010160006101000a8154816001600160a01b0302191690836001600160a01b031602179055506040820151816002015560608201518160030160006101000a8154816001600160a01b0302191690836001600160a01b031602179055506080820151816004015560a08201518160050160006101000a81548160ff02191690831515021790555060c0820151816006015560e08201518160070160006101000a81548160ff0219169083151502179055506101008201518160080155905050896001600160a01b03167f48ee333d2a65cc45fdb83bc012920d89181c3377390cd239d2b63f2bef67a02d838b8b8b8b8b8b8b34604051808a8152602001896001600160a01b03168152602001888152602001876001600160a01b0316815260200186815260200185151581526020018481526020018315158152602001828152602001995050505050505050505060405180910390a250505050505050505050565b6060614e87826040518060400160405280602081526020017f5361666545524332303a206c6f772d6c6576656c2063616c6c206661696c6564815250856001600160a01b03166152499092919063ffffffff16565b8051909150156143c757808060200190516020811015614ea657600080fd5b50516143c75760405162461bcd60e51b815260040180806020018281038252602a8152602001806157f8602a913960400191505060405180910390fd5b60095460009081906001600160a01b0386811691161415614f8857600b546040805163817bb85760e01b81526001600160a01b03898116600483015286811660248301529151919092169163817bb8579160448083019260209291908290030181600087803b158015614f5557600080fd5b505af1158015614f69573d6000803e3d6000fd5b505050506040513d6020811015614f7f57600080fd5b50519050615083565b6009546001600160a01b0387811691161415614ff557600b5460408051630711e61960e41b81526001600160a01b03888116600483015286811660248301529151919092169163711e61909160448083019260209291908290030181600087803b158015614f5557600080fd5b600b5460408051634998b10960e11b81526001600160a01b038981166004830152888116602483015286811660448301529151919092169163933162129160648083019260209291908290030181600087803b15801561505457600080fd5b505af1158015615068573d6000803e3d6000fd5b505050506040513d602081101561507e57600080fd5b505190505b8381101561266c5760405162461bcd60e51b81526004018080602001828103825260218152602001806156dc6021913960400191505060405180910390fd5b80471015615117576040805162461bcd60e51b815260206004820152601d60248201527f416464726573733a20696e73756666696369656e742062616c616e6365000000604482015290519081900360640190fd5b6040516000906001600160a01b0384169083908381818185875af1925050503d8060008114615162576040519150601f19603f3d011682016040523d82523d6000602084013e615167565b606091505b50509050806143c75760405162461bcd60e51b815260040180806020018281038252603a81526020018061567c603a913960400191505060405180910390fd5b600081836152335760405162461bcd60e51b81526004018080602001828103825283818151815260200191508051906020019080838360005b838110156151f85781810151838201526020016151e0565b50505050905090810190601f1680156152255780820380516001836020036101000a031916815260200191505b509250505060405180910390fd5b50600083858161523f57fe5b0495945050505050565b60606152588484600085615260565b949350505050565b6060824710156152a15760405162461bcd60e51b81526004018080602001828103825260268152602001806156b66026913960400191505060405180910390fd5b6152aa856153bc565b6152fb576040805162461bcd60e51b815260206004820152601d60248201527f416464726573733a2063616c6c20746f206e6f6e2d636f6e7472616374000000604482015290519081900360640190fd5b60006060866001600160a01b031685876040518082805190602001908083835b6020831061533a5780518252601f19909201916020918201910161531b565b6001836020036101000a03801982511681845116808217855250505050505090500191505060006040518083038185875af1925050503d806000811461539c576040519150601f19603f3d011682016040523d82523d6000602084013e6153a1565b606091505b50915091506153b18282866153c2565b979650505050505050565b3b151590565b606083156153d15750816144f4565b8251156153e15782518084602001fd5b60405162461bcd60e51b81526020600482018181528451602484015284518593919283926044019190850190808383600083156151f85781810151838201526020016151e0565b6040805161012081018252600080825260208201819052918101829052606081018290526080810182905260a0810182905260c0810182905260e0810182905261010081019190915290565b60405180610100016040528060006001600160a01b0316815260200160608152602001600081526020016000815260200160008152602001600015158152602001600015158152602001600081525090565b50805460008255906000526020600020908101906154e491906155a0565b50565b6040805161014081018252600080825260208201819052918101829052606081018290526080810182905260a0810182905260c0810182905260e08101829052610100810182905261012081019190915290565b828054828255906000526020600020908101928215615590579160200282015b8281111561559057825182546001600160a01b0319166001600160a01b0390911617825560209092019160019091019061555b565b5061559c9291506155b5565b5090565b5b8082111561559c57600081556001016155a1565b5b8082111561559c5780546001600160a01b03191681556001016155b656fe4f72646572426f6f6b3a206e6f6e2d6578697374656e74206f726465720000005265656e7472616e637947756172643a207265656e7472616e742063616c6c004f72646572426f6f6b3a206d617820676c6f62616c2073686f7274732065786365656465644f72646572426f6f6b3a20696e73756666696369656e7420636f6c6c61746572616c4f72646572426f6f6b3a20666f7262696464656e000000000000000000000000416464726573733a20756e61626c6520746f2073656e642076616c75652c20726563697069656e74206d61792068617665207265766572746564416464726573733a20696e73756666696369656e742062616c616e636520666f722063616c6c4f72646572426f6f6b3a20696e73756666696369656e7420616d6f756e744f75744f72646572426f6f6b3a206f6e6c79207765746820636f756c6420626520777261707065644f72646572426f6f6b3a20696e73756666696369656e7420657865637574696f6e20666565536166654d6174683a206d756c7469706c69636174696f6e206f766572666c6f774f72646572426f6f6b3a20696e636f72726563742076616c7565207472616e736665727265644f72646572426f6f6b3a20696e76616c696420707269636520666f7220657865637574696f6e4f72646572426f6f6b3a206d617820676c6f62616c206c6f6e67732065786365656465644f72646572426f6f6b3a20696e76616c6964205f706174682e6c656e677468005361666545524332303a204552433230206f7065726174696f6e20646964206e6f7420737563636565644f72646572426f6f6b3a20696e636f727265637420657865637574696f6e20666565207472616e73666572726564a264697066735822122069df07b810616534af5943967d74b951eccbbfc5ca16d4b7085a3fc403332e8664736f6c634300060c0033",
  "linkReferences": {},
  "deployedLinkReferences": {}
}