{
  "_format": "hh-sol-artifact-1",
  "contractName": "PositionCreator",
  "sourceName": "contracts/core/PositionCreator.sol",
  "abi": [
    {
      "inputs": [
        {
          "internalType": "address",
          "name": "_orderBook",
          "type": "address"
        },
        {
          "internalType": "address",
          "name": "_positionRouter",
          "type": "address"
        }
      ],
      "stateMutability": "nonpayable",
      "type": "constructor"
    },
    {
      "inputs": [],
      "name": "DECREASE_ORDER",
      "outputs": [
        {
          "internalType": "uint8",
          "name": "",
          "type": "uint8"
        }
      ],
      "stateMutability": "view",
      "type": "function"
    },
    {
      "inputs": [],
      "name": "INCREASE_ORDER",
      "outputs": [
        {
          "internalType": "uint8",
          "name": "",
          "type": "uint8"
        }
      ],
      "stateMutability": "view",
      "type": "function"
    },
    {
      "inputs": [],
      "name": "INCREASE_POSITION",
      "outputs": [
        {
          "internalType": "uint8",
          "name": "",
          "type": "uint8"
        }
      ],
      "stateMutability": "view",
      "type": "function"
    },
    {
      "inputs": [],
      "name": "acceptAdmin",
      "outputs": [],
      "stateMutability": "nonpayable",
      "type": "function"
    },
    {
      "inputs": [],
      "name": "admin",
      "outputs": [
        {
          "internalType": "address",
          "name": "",
          "type": "address"
        }
      ],
      "stateMutability": "view",
      "type": "function"
    },
    {
      "inputs": [
        {
          "internalType": "uint8[]",
          "name": "_actions",
          "type": "uint8[]"
        },
        {
          "internalType": "bytes[]",
          "name": "_args",
          "type": "bytes[]"
        },
        {
          "internalType": "uint256[]",
          "name": "_msgValues",
          "type": "uint256[]"
        }
      ],
      "name": "executeMultiple",
      "outputs": [],
      "stateMutability": "payable",
      "type": "function"
    },
    {
      "inputs": [],
      "name": "orderBook",
      "outputs": [
        {
          "internalType": "address",
          "name": "",
          "type": "address"
        }
      ],
      "stateMutability": "view",
      "type": "function"
    },
    {
      "inputs": [],
      "name": "pendingAdmin",
      "outputs": [
        {
          "internalType": "address",
          "name": "",
          "type": "address"
        }
      ],
      "stateMutability": "view",
      "type": "function"
    },
    {
      "inputs": [],
      "name": "positionRouter",
      "outputs": [
        {
          "internalType": "address",
          "name": "",
          "type": "address"
        }
      ],
      "stateMutability": "view",
      "type": "function"
    },
    {
      "inputs": [
        {
          "internalType": "address",
          "name": "_orderBook",
          "type": "address"
        }
      ],
      "name": "setOrderBook",
      "outputs": [],
      "stateMutability": "nonpayable",
      "type": "function"
    },
    {
      "inputs": [
        {
          "internalType": "address",
          "name": "_pendingAdmin",
          "type": "address"
        }
      ],
      "name": "setPendingAdmin",
      "outputs": [],
      "stateMutability": "nonpayable",
      "type": "function"
    },
    {
      "inputs": [
        {
          "internalType": "address",
          "name": "_positionRouter",
          "type": "address"
        }
      ],
      "name": "setPositionRouter",
      "outputs": [],
      "stateMutability": "nonpayable",
      "type": "function"
    }
  ],
  "bytecode": "0x608060405234801561001057600080fd5b50604051610fd7380380610fd783398101604081905261002f91610071565b60016000819055600380546001600160a01b0319908116331790915581546001600160a01b0394851690821617909155600280549290931691161790556100c2565b60008060408385031215610083578182fd5b825161008e816100aa565b602084015190925061009f816100aa565b809150509250929050565b6001600160a01b03811681146100bf57600080fd5b50565b610f06806100d16000396000f3fe6080604052600436106100975760003560e01c80630e18b6811461009c57806326782247146100b35780634dd18bf5146100de5780635a5700ae146100fe5780635be889dd1461012057806361ef161f14610135578063776af5ba1461014a57806393ad7a161461015f5780639a1598c814610172578063ba5e0f9114610192578063cfaa55eb146101a7578063f851a440146101c7575b600080fd5b3480156100a857600080fd5b506100b16101dc565b005b3480156100bf57600080fd5b506100c8610236565b6040516100d59190610c29565b60405180910390f35b3480156100ea57600080fd5b506100b16100f93660046108e3565b610245565b34801561010a57600080fd5b50610113610291565b6040516100d59190610e65565b34801561012c57600080fd5b50610113610296565b34801561014157600080fd5b506100c861029b565b34801561015657600080fd5b506100c86102aa565b6100b161016d366004610af6565b6102b9565b34801561017e57600080fd5b506100b161018d3660046108e3565b610441565b34801561019e57600080fd5b5061011361048d565b3480156101b357600080fd5b506100b16101c23660046108e3565b610492565b3480156101d357600080fd5b506100c86104de565b6004546001600160a01b0316331461020f5760405162461bcd60e51b815260040161020690610dfa565b60405180910390fd5b60048054600380546001600160a01b03199081166001600160a01b03841617909155169055565b6004546001600160a01b031681565b6003546001600160a01b0316331461026f5760405162461bcd60e51b815260040161020690610dfa565b600480546001600160a01b0319166001600160a01b0392909216919091179055565b600181565b600281565b6002546001600160a01b031681565b6001546001600160a01b031681565b600260005414156102dc5760405162461bcd60e51b815260040161020690610e2e565b6002600055815183511480156102f3575080518351145b61030f5760405162461bcd60e51b815260040161020690610db4565b60005b835181101561043657600060ff1684828151811061032c57fe5b602002602001015160ff1614156103725761036d83828151811061034c57fe5b602002602001015183838151811061036057fe5b60200260200101516104ed565b61042e565b600160ff1684828151811061038357fe5b602002602001015160ff1614156103c45761036d8382815181106103a357fe5b60200260200101518383815181106103b757fe5b60200260200101516105bb565b600260ff168482815181106103d557fe5b602002602001015160ff1614156104165761036d8382815181106103f557fe5b602002602001015183838151811061040957fe5b602002602001015161068f565b60405162461bcd60e51b815260040161020690610d7d565b600101610312565b505060016000555050565b6003546001600160a01b0316331461046b5760405162461bcd60e51b815260040161020690610dfa565b600180546001600160a01b0319166001600160a01b0392909216919091179055565b600081565b6003546001600160a01b031633146104bc5760405162461bcd60e51b815260040161020690610dfa565b600280546001600160a01b0319166001600160a01b0392909216919091179055565b6003546001600160a01b031681565b606060008060008060008060008060008b806020019051810190610511919061097e565b9950995099509950995099509950995099509950600260009054906101000a90046001600160a01b03166001600160a01b031663e24dd4048c338d8d8d8d8d8d8d8d8d8d6040518d63ffffffff1660e01b815260040161057b9b9a99989796959493929190610c87565b6000604051808303818588803b15801561059457600080fd5b505af11580156105a8573d6000803e3d6000fd5b5050505050505050505050505050505050565b60606000806000806000806000806000808c8060200190518101906105e09190610a2c565b9a509a509a509a509a509a509a509a509a509a509a50600160009054906101000a90046001600160a01b03166001600160a01b031663b3c5c66c8d338e8e8e8e8e8e8e8e8e8e8e6040518e63ffffffff1660e01b815260040161064e9c9b9a99989796959493929190610cf6565b6000604051808303818588803b15801561066757600080fd5b505af115801561067b573d6000803e3d6000fd5b505050505050505050505050505050505050565b6000806000806000806000888060200190518101906106ae9190610906565b6001546040516305fb538760e11b8152979e50959c50939a509198509650945092506001600160a01b031690630bf6a70e908a906106fe9033908c908c908c908c908c908c908c90600401610c3d565b6000604051808303818588803b15801561071757600080fd5b505af115801561072b573d6000803e3d6000fd5b5050505050505050505050505050565b600082601f83011261074b578081fd5b815161075e61075982610e99565b610e73565b81815291506020808301908481018184028601820187101561077f57600080fd5b60005b848110156107a757815161079581610eb8565b84529282019290820190600101610782565b505050505092915050565b6000601f83818401126107c3578182fd5b82356107d161075982610e99565b818152925060208084019085810160005b84811015610863578135880189603f8201126107fd57600080fd5b808401356001600160401b0381111561081557600080fd5b610826818901601f19168601610e73565b81815260408c8184860101111561083c57600080fd5b828185018884013750600091810186019190915285525092820192908201906001016107e2565b50505050505092915050565b600082601f83011261087f578081fd5b813561088d61075982610e99565b8181529150602080830190848101818402860182018710156108ae57600080fd5b60005b848110156107a7578135845292820192908201906001016108b1565b805180151581146108dd57600080fd5b92915050565b6000602082840312156108f4578081fd5b81356108ff81610eb8565b9392505050565b600080600080600080600060e0888a031215610920578283fd5b875161092b81610eb8565b602089015160408a0151919850965061094381610eb8565b6060890151909550935061095a8960808a016108cd565b925060a088015191506109708960c08a016108cd565b905092959891949750929550565b6000806000806000806000806000806101408b8d03121561099d578283fd5b8a516001600160401b038111156109b2578384fd5b6109be8d828e0161073b565b9a505060208b01516109cf81610eb8565b8099505060408b0151975060608b0151965060808b015195506109f58c60a08d016108cd565b945060c08b0151935060e08b015192506101008b01519150610a1b8c6101208d016108cd565b90509295989b9194979a5092959850565b60008060008060008060008060008060006101608c8e031215610a4d578081fd5b8b516001600160401b03811115610a62578182fd5b610a6e8e828f0161073b565b9b505060208c0151995060408c0151610a8681610eb8565b8099505060608c0151975060808c0151965060a08c0151610aa681610eb8565b9550610ab58d60c08e016108cd565b945060e08c01519350610acc8d6101008e016108cd565b92506101208c01519150610ae48d6101408e016108cd565b90509295989b509295989b9093969950565b600080600060608486031215610b0a578081fd5b83356001600160401b0380821115610b20578283fd5b818601915086601f830112610b33578283fd5b8135610b4161075982610e99565b80828252602080830192508086018b828387028901011115610b61578788fd5b8796505b84871015610b9157803560ff81168114610b7d578889fd5b845260019690960195928101928101610b65565b509097508801359350505080821115610ba8578283fd5b610bb4878388016107b2565b93506040860135915080821115610bc9578283fd5b50610bd68682870161086f565b9150509250925092565b6000815180845260208085019450808401835b83811015610c185781516001600160a01b031687529582019590820190600101610bf3565b509495945050505050565b15159052565b6001600160a01b0391909116815260200190565b6001600160a01b03988916815296881660208801526040870195909552929095166060850152608084015292151560a083015260c082019290925290151560e08201526101000190565b6001600160a01b038c8116825261016060208301819052600091610cad8483018f610be0565b9c16604084015250506060810198909852608088019690965260a087019490945291151560c086015260e085015261010084015261012083015215156101409091015292915050565b600060018060a01b03808f1683526101806020840152610d1a61018084018f610be0565b91508c6040840152808c1660608401528a60808401528960a084015280891660c08401525086151560e08301528561010083015284151561012083015283610140830152610d6c610160830184610c23565b9d9c50505050505050505050505050565b6020808252601f908201527f506f736974696f6e43726561746f723a20696e76616c696420616374696f6e00604082015260600190565b60208082526026908201527f506f736974696f6e43726561746f723a20696e76616c6964206172726179206c604082015265656e6774687360d01b606082015260800190565b6020808252601a90820152792837b9b4ba34b7b721b932b0ba37b91d103337b93134b23232b760311b604082015260600190565b6020808252601f908201527f5265656e7472616e637947756172643a207265656e7472616e742063616c6c00604082015260600190565b60ff91909116815260200190565b6040518181016001600160401b0381118282101715610e9157600080fd5b604052919050565b60006001600160401b03821115610eae578081fd5b5060209081020190565b6001600160a01b0381168114610ecd57600080fd5b5056fea26469706673582212206a61956b6d0a527aad645543c34a6dcc7b9073ef4f6aa4d8d63d93b1e2b7d31464736f6c634300060c0033",
  "linkReferences": {},
  "deployedLinkReferences": {}
}