{
  "_format": "hh-sol-artifact-1",
  "contractName": "PositionManager",
  "sourceName": "contracts/core/PositionManager.sol",
  "abi": [
    {
      "inputs": [
        {
          "internalType": "address",
          "name": "_vault",
          "type": "address"
        },
        {
          "internalType": "address",
          "name": "_router",
          "type": "address"
        },
        {
          "internalType": "address",
          "name": "_weth",
          "type": "address"
        },
        {
          "internalType": "uint256",
          "name": "_depositFee",
          "type": "uint256"
        },
        {
          "internalType": "address",
          "name": "_orderBook",
          "type": "address"
        }
      ],
      "stateMutability": "nonpayable",
      "type": "constructor"
    },
    {
      "anonymous": false,
      "inputs": [
        {
          "indexed": false,
          "internalType": "address",
          "name": "account",
          "type": "address"
        },
        {
          "indexed": false,
          "internalType": "uint256",
          "name": "sizeDelta",
          "type": "uint256"
        },
        {
          "indexed": false,
          "internalType": "uint256",
          "name": "marginFeeBasisPoints",
          "type": "uint256"
        },
        {
          "indexed": false,
          "internalType": "bytes32",
          "name": "referralCode",
          "type": "bytes32"
        },
        {
          "indexed": false,
          "internalType": "address",
          "name": "referrer",
          "type": "address"
        }
      ],
      "name": "DecreasePositionReferral",
      "type": "event"
    },
    {
      "anonymous": false,
      "inputs": [
        {
          "indexed": false,
          "internalType": "address",
          "name": "account",
          "type": "address"
        },
        {
          "indexed": false,
          "internalType": "uint256",
          "name": "sizeDelta",
          "type": "uint256"
        },
        {
          "indexed": false,
          "internalType": "uint256",
          "name": "marginFeeBasisPoints",
          "type": "uint256"
        },
        {
          "indexed": false,
          "internalType": "bytes32",
          "name": "referralCode",
          "type": "bytes32"
        },
        {
          "indexed": false,
          "internalType": "address",
          "name": "referrer",
          "type": "address"
        }
      ],
      "name": "IncreasePositionReferral",
      "type": "event"
    },
    {
      "anonymous": false,
      "inputs": [
        {
          "indexed": false,
          "internalType": "address",
          "name": "admin",
          "type": "address"
        }
      ],
      "name": "SetAdmin",
      "type": "event"
    },
    {
      "anonymous": false,
      "inputs": [
        {
          "indexed": false,
          "internalType": "uint256",
          "name": "depositFee",
          "type": "uint256"
        }
      ],
      "name": "SetDepositFee",
      "type": "event"
    },
    {
      "anonymous": false,
      "inputs": [
        {
          "indexed": false,
          "internalType": "bool",
          "name": "inLegacyMode",
          "type": "bool"
        }
      ],
      "name": "SetInLegacyMode",
      "type": "event"
    },
    {
      "anonymous": false,
      "inputs": [
        {
          "indexed": false,
          "internalType": "uint256",
          "name": "increasePositionBufferBps",
          "type": "uint256"
        }
      ],
      "name": "SetIncreasePositionBufferBps",
      "type": "event"
    },
    {
      "anonymous": false,
      "inputs": [
        {
          "indexed": true,
          "internalType": "address",
          "name": "account",
          "type": "address"
        },
        {
          "indexed": false,
          "internalType": "bool",
          "name": "isActive",
          "type": "bool"
        }
      ],
      "name": "SetLiquidator",
      "type": "event"
    },
    {
      "anonymous": false,
      "inputs": [
        {
          "indexed": false,
          "internalType": "address[]",
          "name": "tokens",
          "type": "address[]"
        },
        {
          "indexed": false,
          "internalType": "uint256[]",
          "name": "longSizes",
          "type": "uint256[]"
        },
        {
          "indexed": false,
          "internalType": "uint256[]",
          "name": "shortSizes",
          "type": "uint256[]"
        }
      ],
      "name": "SetMaxGlobalSizes",
      "type": "event"
    },
    {
      "anonymous": false,
      "inputs": [
        {
          "indexed": true,
          "internalType": "address",
          "name": "account",
          "type": "address"
        },
        {
          "indexed": false,
          "internalType": "bool",
          "name": "isActive",
          "type": "bool"
        }
      ],
      "name": "SetOrderKeeper",
      "type": "event"
    },
    {
      "anonymous": false,
      "inputs": [
        {
          "indexed": false,
          "internalType": "address",
          "name": "account",
          "type": "address"
        },
        {
          "indexed": false,
          "internalType": "bool",
          "name": "isActive",
          "type": "bool"
        }
      ],
      "name": "SetPartner",
      "type": "event"
    },
    {
      "anonymous": false,
      "inputs": [
        {
          "indexed": false,
          "internalType": "address",
          "name": "referralStorage",
          "type": "address"
        }
      ],
      "name": "SetReferralStorage",
      "type": "event"
    },
    {
      "anonymous": false,
      "inputs": [
        {
          "indexed": false,
          "internalType": "bool",
          "name": "shouldValidateIncreaseOrder",
          "type": "bool"
        }
      ],
      "name": "SetShouldValidateIncreaseOrder",
      "type": "event"
    },
    {
      "anonymous": false,
      "inputs": [
        {
          "indexed": false,
          "internalType": "address",
          "name": "token",
          "type": "address"
        },
        {
          "indexed": false,
          "internalType": "address",
          "name": "receiver",
          "type": "address"
        },
        {
          "indexed": false,
          "internalType": "uint256",
          "name": "amount",
          "type": "uint256"
        }
      ],
      "name": "WithdrawFees",
      "type": "event"
    },
    {
      "inputs": [],
      "name": "BASIS_POINTS_DIVISOR",
      "outputs": [
        {
          "internalType": "uint256",
          "name": "",
          "type": "uint256"
        }
      ],
      "stateMutability": "view",
      "type": "function"
    },
    {
      "inputs": [],
      "name": "admin",
      "outputs": [
        {
          "internalType": "address",
          "name": "",
          "type": "address"
        }
      ],
      "stateMutability": "view",
      "type": "function"
    },
    {
      "inputs": [
        {
          "internalType": "address",
          "name": "_token",
          "type": "address"
        },
        {
          "internalType": "address",
          "name": "_spender",
          "type": "address"
        },
        {
          "internalType": "uint256",
          "name": "_amount",
          "type": "uint256"
        }
      ],
      "name": "approve",
      "outputs": [],
      "stateMutability": "nonpayable",
      "type": "function"
    },
    {
      "inputs": [
        {
          "internalType": "address",
          "name": "_collateralToken",
          "type": "address"
        },
        {
          "internalType": "address",
          "name": "_indexToken",
          "type": "address"
        },
        {
          "internalType": "uint256",
          "name": "_collateralDelta",
          "type": "uint256"
        },
        {
          "internalType": "uint256",
          "name": "_sizeDelta",
          "type": "uint256"
        },
        {
          "internalType": "bool",
          "name": "_isLong",
          "type": "bool"
        },
        {
          "internalType": "address",
          "name": "_receiver",
          "type": "address"
        },
        {
          "internalType": "uint256",
          "name": "_price",
          "type": "uint256"
        }
      ],
      "name": "decreasePosition",
      "outputs": [],
      "stateMutability": "nonpayable",
      "type": "function"
    },
    {
      "inputs": [
        {
          "internalType": "address[]",
          "name": "_path",
          "type": "address[]"
        },
        {
          "internalType": "address",
          "name": "_indexToken",
          "type": "address"
        },
        {
          "internalType": "uint256",
          "name": "_collateralDelta",
          "type": "uint256"
        },
        {
          "internalType": "uint256",
          "name": "_sizeDelta",
          "type": "uint256"
        },
        {
          "internalType": "bool",
          "name": "_isLong",
          "type": "bool"
        },
        {
          "internalType": "address",
          "name": "_receiver",
          "type": "address"
        },
        {
          "internalType": "uint256",
          "name": "_price",
          "type": "uint256"
        },
        {
          "internalType": "uint256",
          "name": "_minOut",
          "type": "uint256"
        }
      ],
      "name": "decreasePositionAndSwap",
      "outputs": [],
      "stateMutability": "nonpayable",
      "type": "function"
    },
    {
      "inputs": [
        {
          "internalType": "address[]",
          "name": "_path",
          "type": "address[]"
        },
        {
          "internalType": "address",
          "name": "_indexToken",
          "type": "address"
        },
        {
          "internalType": "uint256",
          "name": "_collateralDelta",
          "type": "uint256"
        },
        {
          "internalType": "uint256",
          "name": "_sizeDelta",
          "type": "uint256"
        },
        {
          "internalType": "bool",
          "name": "_isLong",
          "type": "bool"
        },
        {
          "internalType": "address payable",
          "name": "_receiver",
          "type": "address"
        },
        {
          "internalType": "uint256",
          "name": "_price",
          "type": "uint256"
        },
        {
          "internalType": "uint256",
          "name": "_minOut",
          "type": "uint256"
        }
      ],
      "name": "decreasePositionAndSwapETH",
      "outputs": [],
      "stateMutability": "nonpayable",
      "type": "function"
    },
    {
      "inputs": [
        {
          "internalType": "address",
          "name": "_collateralToken",
          "type": "address"
        },
        {
          "internalType": "address",
          "name": "_indexToken",
          "type": "address"
        },
        {
          "internalType": "uint256",
          "name": "_collateralDelta",
          "type": "uint256"
        },
        {
          "internalType": "uint256",
          "name": "_sizeDelta",
          "type": "uint256"
        },
        {
          "internalType": "bool",
          "name": "_isLong",
          "type": "bool"
        },
        {
          "internalType": "address payable",
          "name": "_receiver",
          "type": "address"
        },
        {
          "internalType": "uint256",
          "name": "_price",
          "type": "uint256"
        }
      ],
      "name": "decreasePositionETH",
      "outputs": [],
      "stateMutability": "nonpayable",
      "type": "function"
    },
    {
      "inputs": [],
      "name": "depositFee",
      "outputs": [
        {
          "internalType": "uint256",
          "name": "",
          "type": "uint256"
        }
      ],
      "stateMutability": "view",
      "type": "function"
    },
    {
      "inputs": [
        {
          "internalType": "address",
          "name": "_account",
          "type": "address"
        },
        {
          "internalType": "uint256",
          "name": "_orderIndex",
          "type": "uint256"
        },
        {
          "internalType": "address payable",
          "name": "_feeReceiver",
          "type": "address"
        }
      ],
      "name": "executeDecreaseOrder",
      "outputs": [],
      "stateMutability": "nonpayable",
      "type": "function"
    },
    {
      "inputs": [
        {
          "internalType": "address",
          "name": "_account",
          "type": "address"
        },
        {
          "internalType": "uint256",
          "name": "_orderIndex",
          "type": "uint256"
        },
        {
          "internalType": "address payable",
          "name": "_feeReceiver",
          "type": "address"
        }
      ],
      "name": "executeIncreaseOrder",
      "outputs": [],
      "stateMutability": "nonpayable",
      "type": "function"
    },
    {
      "inputs": [
        {
          "internalType": "address",
          "name": "_account",
          "type": "address"
        },
        {
          "internalType": "uint256",
          "name": "_orderIndex",
          "type": "uint256"
        },
        {
          "internalType": "address payable",
          "name": "_feeReceiver",
          "type": "address"
        }
      ],
      "name": "executeSwapOrder",
      "outputs": [],
      "stateMutability": "nonpayable",
      "type": "function"
    },
    {
      "inputs": [
        {
          "internalType": "address",
          "name": "",
          "type": "address"
        }
      ],
      "name": "feeReserves",
      "outputs": [
        {
          "internalType": "uint256",
          "name": "",
          "type": "uint256"
        }
      ],
      "stateMutability": "view",
      "type": "function"
    },
    {
      "inputs": [],
      "name": "gov",
      "outputs": [
        {
          "internalType": "address",
          "name": "",
          "type": "address"
        }
      ],
      "stateMutability": "view",
      "type": "function"
    },
    {
      "inputs": [],
      "name": "inLegacyMode",
      "outputs": [
        {
          "internalType": "bool",
          "name": "",
          "type": "bool"
        }
      ],
      "stateMutability": "view",
      "type": "function"
    },
    {
      "inputs": [
        {
          "internalType": "address[]",
          "name": "_path",
          "type": "address[]"
        },
        {
          "internalType": "address",
          "name": "_indexToken",
          "type": "address"
        },
        {
          "internalType": "uint256",
          "name": "_amountIn",
          "type": "uint256"
        },
        {
          "internalType": "uint256",
          "name": "_minOut",
          "type": "uint256"
        },
        {
          "internalType": "uint256",
          "name": "_sizeDelta",
          "type": "uint256"
        },
        {
          "internalType": "bool",
          "name": "_isLong",
          "type": "bool"
        },
        {
          "internalType": "uint256",
          "name": "_price",
          "type": "uint256"
        }
      ],
      "name": "increasePosition",
      "outputs": [],
      "stateMutability": "nonpayable",
      "type": "function"
    },
    {
      "inputs": [],
      "name": "increasePositionBufferBps",
      "outputs": [
        {
          "internalType": "uint256",
          "name": "",
          "type": "uint256"
        }
      ],
      "stateMutability": "view",
      "type": "function"
    },
    {
      "inputs": [
        {
          "internalType": "address[]",
          "name": "_path",
          "type": "address[]"
        },
        {
          "internalType": "address",
          "name": "_indexToken",
          "type": "address"
        },
        {
          "internalType": "uint256",
          "name": "_minOut",
          "type": "uint256"
        },
        {
          "internalType": "uint256",
          "name": "_sizeDelta",
          "type": "uint256"
        },
        {
          "internalType": "bool",
          "name": "_isLong",
          "type": "bool"
        },
        {
          "internalType": "uint256",
          "name": "_price",
          "type": "uint256"
        }
      ],
      "name": "increasePositionETH",
      "outputs": [],
      "stateMutability": "payable",
      "type": "function"
    },
    {
      "inputs": [
        {
          "internalType": "address",
          "name": "",
          "type": "address"
        }
      ],
      "name": "isLiquidator",
      "outputs": [
        {
          "internalType": "bool",
          "name": "",
          "type": "bool"
        }
      ],
      "stateMutability": "view",
      "type": "function"
    },
    {
      "inputs": [
        {
          "internalType": "address",
          "name": "",
          "type": "address"
        }
      ],
      "name": "isOrderKeeper",
      "outputs": [
        {
          "internalType": "bool",
          "name": "",
          "type": "bool"
        }
      ],
      "stateMutability": "view",
      "type": "function"
    },
    {
      "inputs": [
        {
          "internalType": "address",
          "name": "",
          "type": "address"
        }
      ],
      "name": "isPartner",
      "outputs": [
        {
          "internalType": "bool",
          "name": "",
          "type": "bool"
        }
      ],
      "stateMutability": "view",
      "type": "function"
    },
    {
      "inputs": [
        {
          "internalType": "address",
          "name": "_account",
          "type": "address"
        },
        {
          "internalType": "address",
          "name": "_collateralToken",
          "type": "address"
        },
        {
          "internalType": "address",
          "name": "_indexToken",
          "type": "address"
        },
        {
          "internalType": "bool",
          "name": "_isLong",
          "type": "bool"
        },
        {
          "internalType": "address",
          "name": "_feeReceiver",
          "type": "address"
        }
      ],
      "name": "liquidatePosition",
      "outputs": [],
      "stateMutability": "nonpayable",
      "type": "function"
    },
    {
      "inputs": [
        {
          "internalType": "address[]",
          "name": "_accounts",
          "type": "address[]"
        },
        {
          "internalType": "address[]",
          "name": "_collateralTokens",
          "type": "address[]"
        },
        {
          "internalType": "address[]",
          "name": "_indexTokens",
          "type": "address[]"
        },
        {
          "internalType": "bool[]",
          "name": "isLongs",
          "type": "bool[]"
        },
        {
          "internalType": "address",
          "name": "_feeReceiver",
          "type": "address"
        }
      ],
      "name": "liquidatePositions",
      "outputs": [],
      "stateMutability": "nonpayable",
      "type": "function"
    },
    {
      "inputs": [
        {
          "internalType": "address",
          "name": "",
          "type": "address"
        }
      ],
      "name": "maxGlobalLongSizes",
      "outputs": [
        {
          "internalType": "uint256",
          "name": "",
          "type": "uint256"
        }
      ],
      "stateMutability": "view",
      "type": "function"
    },
    {
      "inputs": [
        {
          "internalType": "address",
          "name": "",
          "type": "address"
        }
      ],
      "name": "maxGlobalShortSizes",
      "outputs": [
        {
          "internalType": "uint256",
          "name": "",
          "type": "uint256"
        }
      ],
      "stateMutability": "view",
      "type": "function"
    },
    {
      "inputs": [],
      "name": "orderBook",
      "outputs": [
        {
          "internalType": "address",
          "name": "",
          "type": "address"
        }
      ],
      "stateMutability": "view",
      "type": "function"
    },
    {
      "inputs": [],
      "name": "referralStorage",
      "outputs": [
        {
          "internalType": "address",
          "name": "",
          "type": "address"
        }
      ],
      "stateMutability": "view",
      "type": "function"
    },
    {
      "inputs": [],
      "name": "router",
      "outputs": [
        {
          "internalType": "address",
          "name": "",
          "type": "address"
        }
      ],
      "stateMutability": "view",
      "type": "function"
    },
    {
      "inputs": [
        {
          "internalType": "address payable",
          "name": "_receiver",
          "type": "address"
        },
        {
          "internalType": "uint256",
          "name": "_amount",
          "type": "uint256"
        }
      ],
      "name": "sendValue",
      "outputs": [],
      "stateMutability": "nonpayable",
      "type": "function"
    },
    {
      "inputs": [
        {
          "internalType": "address",
          "name": "_admin",
          "type": "address"
        }
      ],
      "name": "setAdmin",
      "outputs": [],
      "stateMutability": "nonpayable",
      "type": "function"
    },
    {
      "inputs": [
        {
          "internalType": "uint256",
          "name": "_depositFee",
          "type": "uint256"
        }
      ],
      "name": "setDepositFee",
      "outputs": [],
      "stateMutability": "nonpayable",
      "type": "function"
    },
    {
      "inputs": [
        {
          "internalType": "address",
          "name": "_gov",
          "type": "address"
        }
      ],
      "name": "setGov",
      "outputs": [],
      "stateMutability": "nonpayable",
      "type": "function"
    },
    {
      "inputs": [
        {
          "internalType": "bool",
          "name": "_inLegacyMode",
          "type": "bool"
        }
      ],
      "name": "setInLegacyMode",
      "outputs": [],
      "stateMutability": "nonpayable",
      "type": "function"
    },
    {
      "inputs": [
        {
          "internalType": "uint256",
          "name": "_increasePositionBufferBps",
          "type": "uint256"
        }
      ],
      "name": "setIncreasePositionBufferBps",
      "outputs": [],
      "stateMutability": "nonpayable",
      "type": "function"
    },
    {
      "inputs": [
        {
          "internalType": "address",
          "name": "_account",
          "type": "address"
        },
        {
          "internalType": "bool",
          "name": "_isActive",
          "type": "bool"
        }
      ],
      "name": "setLiquidator",
      "outputs": [],
      "stateMutability": "nonpayable",
      "type": "function"
    },
    {
      "inputs": [
        {
          "internalType": "address[]",
          "name": "_tokens",
          "type": "address[]"
        },
        {
          "internalType": "uint256[]",
          "name": "_longSizes",
          "type": "uint256[]"
        },
        {
          "internalType": "uint256[]",
          "name": "_shortSizes",
          "type": "uint256[]"
        }
      ],
      "name": "setMaxGlobalSizes",
      "outputs": [],
      "stateMutability": "nonpayable",
      "type": "function"
    },
    {
      "inputs": [
        {
          "internalType": "address",
          "name": "_account",
          "type": "address"
        },
        {
          "internalType": "bool",
          "name": "_isActive",
          "type": "bool"
        }
      ],
      "name": "setOrderKeeper",
      "outputs": [],
      "stateMutability": "nonpayable",
      "type": "function"
    },
    {
      "inputs": [
        {
          "internalType": "address",
          "name": "_account",
          "type": "address"
        },
        {
          "internalType": "bool",
          "name": "_isActive",
          "type": "bool"
        }
      ],
      "name": "setPartner",
      "outputs": [],
      "stateMutability": "nonpayable",
      "type": "function"
    },
    {
      "inputs": [
        {
          "internalType": "address",
          "name": "_referralStorage",
          "type": "address"
        }
      ],
      "name": "setReferralStorage",
      "outputs": [],
      "stateMutability": "nonpayable",
      "type": "function"
    },
    {
      "inputs": [
        {
          "internalType": "bool",
          "name": "_shouldValidateIncreaseOrder",
          "type": "bool"
        }
      ],
      "name": "setShouldValidateIncreaseOrder",
      "outputs": [],
      "stateMutability": "nonpayable",
      "type": "function"
    },
    {
      "inputs": [],
      "name": "shouldValidateIncreaseOrder",
      "outputs": [
        {
          "internalType": "bool",
          "name": "",
          "type": "bool"
        }
      ],
      "stateMutability": "view",
      "type": "function"
    },
    {
      "inputs": [],
      "name": "vault",
      "outputs": [
        {
          "internalType": "address",
          "name": "",
          "type": "address"
        }
      ],
      "stateMutability": "view",
      "type": "function"
    },
    {
      "inputs": [],
      "name": "weth",
      "outputs": [
        {
          "internalType": "address",
          "name": "",
          "type": "address"
        }
      ],
      "stateMutability": "view",
      "type": "function"
    },
    {
      "inputs": [
        {
          "internalType": "address",
          "name": "_token",
          "type": "address"
        },
        {
          "internalType": "address",
          "name": "_receiver",
          "type": "address"
        }
      ],
      "name": "withdrawFees",
      "outputs": [],
      "stateMutability": "nonpayable",
      "type": "function"
    },
    {
      "stateMutability": "payable",
      "type": "receive"
    }
  ],
  "bytecode": "0x60806040526064600755600c805460ff60a81b1916600160a81b17905534801561002857600080fd5b5060405162004ca538038062004ca5833981810160405260a081101561004d57600080fd5b5080516020820151604083015160608401516080909401516001600081905580546001600160a01b031990811633908117909255600380546001600160a01b03978816908316179055600480549587169582169590951790945560058054938616938516939093179092556006949094556002805483169091179055600c8054929093169116179055614bbf80620000e66000396000f3fe6080604052600436106101ef5760003560e01c80626cc35e1461024457806307c7edc3146102755780631045c74e146102b857806311d9444a146102fd578063126082cf1461034057806312d43a51146103555780631b9043591461036a5780631ce9cb8f146103965780631e261538146103c957806321acf65914610404578063233bfe3b1461043f57806324a084df146104695780633039e37f146104a25780633833f5f5146105825780633fc8cef3146105c9578063430ed37c146105de5780634453a3741461063d5780634584bd4b14610678578063490ae2101461068d578063529a356f146106b75780635fc8500e146106ea57806367a52793146107ca578063704b6c02146107df5780637314edb414610812578063776af5ba146109865780638c0f9aac1461099b57806390205d8c146109ce5780639698d25a14610a2d57806398d1e03a14610a605780639c95332f14610a75578063ae4d7f9a14610aa1578063b32755de14610ad4578063b7ddc99214610b97578063cfad57a214610c6d578063d38ab51914610ca0578063d4ca83f914610ce3578063de2ea94814610cf8578063e1f21c6714610d4d578063ef12c67e14610d90578063f255527814610f42578063f851a44014610f7d578063f887ea4014610f92578063fbfa77cf14610fa75761023f565b3661023f576005546001600160a01b0316331461023d5760405162461bcd60e51b8152600401808060200182810382526023815260200180614b186023913960400191505060405180910390fd5b005b600080fd5b34801561025057600080fd5b50610259610fbc565b604080516001600160a01b039092168252519081900360200190f35b34801561028157600080fd5b5061023d6004803603606081101561029857600080fd5b506001600160a01b03813581169160208101359160409091013516610fcb565b3480156102c457600080fd5b506102eb600480360360208110156102db57600080fd5b50356001600160a01b0316611097565b60408051918252519081900360200190f35b34801561030957600080fd5b5061023d6004803603606081101561032057600080fd5b506001600160a01b038135811691602081013591604090910135166110a9565b34801561034c57600080fd5b506102eb611350565b34801561036157600080fd5b50610259611356565b34801561037657600080fd5b5061023d6004803603602081101561038d57600080fd5b50351515611365565b3480156103a257600080fd5b506102eb600480360360208110156103b957600080fd5b50356001600160a01b0316611405565b3480156103d557600080fd5b5061023d600480360360408110156103ec57600080fd5b506001600160a01b0381351690602001351515611417565b34801561041057600080fd5b5061023d6004803603604081101561042757600080fd5b506001600160a01b03813516906020013515156114c4565b34801561044b57600080fd5b5061023d6004803603602081101561046257600080fd5b5035611575565b34801561047557600080fd5b5061023d6004803603604081101561048c57600080fd5b506001600160a01b0381351690602001356115fd565b3480156104ae57600080fd5b5061023d60048036036101008110156104c657600080fd5b810190602081018135600160201b8111156104e057600080fd5b8201836020820111156104f257600080fd5b803590602001918460208302840111600160201b8311171561051357600080fd5b919080806020026020016040519081016040528093929190818152602001838360200280828437600092019190915250929550505081356001600160a01b0390811693506020830135926040810135925060608101351515916080820135169060a08101359060c00135611661565b34801561058e57600080fd5b506105b5600480360360208110156105a557600080fd5b50356001600160a01b031661185c565b604080519115158252519081900360200190f35b3480156105d557600080fd5b50610259611871565b3480156105ea57600080fd5b5061023d600480360360e081101561060157600080fd5b506001600160a01b0381358116916020810135821691604082013591606081013591608082013515159160a08101359091169060c00135611880565b34801561064957600080fd5b5061023d6004803603604081101561066057600080fd5b506001600160a01b03813516906020013515156119a9565b34801561068457600080fd5b506105b5611a56565b34801561069957600080fd5b5061023d600480360360208110156106b057600080fd5b5035611a66565b3480156106c357600080fd5b506105b5600480360360208110156106da57600080fd5b50356001600160a01b0316611aee565b3480156106f657600080fd5b5061023d600480360361010081101561070e57600080fd5b810190602081018135600160201b81111561072857600080fd5b82018360208201111561073a57600080fd5b803590602001918460208302840111600160201b8311171561075b57600080fd5b919080806020026020016040519081016040528093929190818152602001838360200280828437600092019190915250929550505081356001600160a01b0390811693506020830135926040810135925060608101351515916080820135169060a08101359060c00135611b03565b3480156107d657600080fd5b506102eb611c3a565b3480156107eb57600080fd5b5061023d6004803603602081101561080257600080fd5b50356001600160a01b0316611c40565b34801561081e57600080fd5b5061023d600480360360a081101561083557600080fd5b810190602081018135600160201b81111561084f57600080fd5b82018360208201111561086157600080fd5b803590602001918460208302840111600160201b8311171561088257600080fd5b919390929091602081019035600160201b81111561089f57600080fd5b8201836020820111156108b157600080fd5b803590602001918460208302840111600160201b831117156108d257600080fd5b919390929091602081019035600160201b8111156108ef57600080fd5b82018360208201111561090157600080fd5b803590602001918460208302840111600160201b8311171561092257600080fd5b919390929091602081019035600160201b81111561093f57600080fd5b82018360208201111561095157600080fd5b803590602001918460208302840111600160201b8311171561097257600080fd5b9193509150356001600160a01b0316611ce1565b34801561099257600080fd5b50610259611eaa565b3480156109a757600080fd5b506105b5600480360360208110156109be57600080fd5b50356001600160a01b0316611eb9565b3480156109da57600080fd5b5061023d600480360360e08110156109f157600080fd5b506001600160a01b0381358116916020810135821691604082013591606081013591608082013515159160a08101359091169060c00135611ece565b348015610a3957600080fd5b506102eb60048036036020811015610a5057600080fd5b50356001600160a01b0316611f8e565b348015610a6c57600080fd5b506102eb611fa0565b348015610a8157600080fd5b5061023d60048036036020811015610a9857600080fd5b50351515611fa6565b348015610aad57600080fd5b5061023d60048036036020811015610ac457600080fd5b50356001600160a01b0316612046565b61023d600480360360c0811015610aea57600080fd5b810190602081018135600160201b811115610b0457600080fd5b820183602082011115610b1657600080fd5b803590602001918460208302840111600160201b83111715610b3757600080fd5b919080806020026020016040519081016040528093929190818152602001838360200280828437600092019190915250929550506001600160a01b03833516935050506020810135906040810135906060810135151590608001356120e7565b348015610ba357600080fd5b5061023d600480360360e0811015610bba57600080fd5b810190602081018135600160201b811115610bd457600080fd5b820183602082011115610be657600080fd5b803590602001918460208302840111600160201b83111715610c0757600080fd5b919080806020026020016040519081016040528093929190818152602001838360200280828437600092019190915250929550506001600160a01b0383351693505050602081013590604081013590606081013590608081013515159060a00135612306565b348015610c7957600080fd5b5061023d60048036036020811015610c9057600080fd5b50356001600160a01b03166125e5565b348015610cac57600080fd5b5061023d60048036036060811015610cc357600080fd5b506001600160a01b03813581169160208101359160409091013516612654565b348015610cef57600080fd5b506105b5612881565b348015610d0457600080fd5b5061023d600480360360a0811015610d1b57600080fd5b506001600160a01b03813581169160208101358216916040820135811691606081013515159160809091013516612891565b348015610d5957600080fd5b5061023d60048036036060811015610d7057600080fd5b506001600160a01b03813581169160208101359091169060400135612b0b565b348015610d9c57600080fd5b5061023d60048036036060811015610db357600080fd5b810190602081018135600160201b811115610dcd57600080fd5b820183602082011115610ddf57600080fd5b803590602001918460208302840111600160201b83111715610e0057600080fd5b9190808060200260200160405190810160405280939291908181526020018383602002808284376000920191909152509295949360208101935035915050600160201b811115610e4f57600080fd5b820183602082011115610e6157600080fd5b803590602001918460208302840111600160201b83111715610e8257600080fd5b9190808060200260200160405190810160405280939291908181526020018383602002808284376000920191909152509295949360208101935035915050600160201b811115610ed157600080fd5b820183602082011115610ee357600080fd5b803590602001918460208302840111600160201b83111715610f0457600080fd5b919080806020026020016040519081016040528093929190818152602001838360200280828437600092019190915250929550612be0945050505050565b348015610f4e57600080fd5b5061023d60048036036040811015610f6557600080fd5b506001600160a01b0381358116916020013516612dcf565b348015610f8957600080fd5b50610259612eb3565b348015610f9e57600080fd5b50610259612ec2565b348015610fb357600080fd5b50610259612ed1565b6008546001600160a01b031681565b336000908152600d602052604090205460ff1661101d576040805162461bcd60e51b815260206004820152601a6024820152600080516020614a3c833981519152604482015290519081900360640190fd5b600c54604080516307c7edc360e01b81526001600160a01b038681166004830152602482018690528481166044830152915191909216916307c7edc391606480830192600092919082900301818387803b15801561107a57600080fd5b505af115801561108e573d6000803e3d6000fd5b50505050505050565b600a6020526000908152604090205481565b336000908152600d602052604090205460ff166110fb576040805162461bcd60e51b815260206004820152601a6024820152600080516020614a3c833981519152604482015290519081900360640190fd5b600354604080516312d43a5160e01b815290516001600160a01b039092169160009183916312d43a5191600480820192602092909190829003018186803b15801561114557600080fd5b505afa158015611159573d6000803e3d6000fd5b505050506040513d602081101561116f57600080fd5b5051600c5460408051630130197760e11b81526001600160a01b038981166004830152602482018990529151939450600093919092169163026032ee91604480830192610100929190829003018186803b1580156111cc57600080fd5b505afa1580156111e0573d6000803e3d6000fd5b505050506040513d6101008110156111f757600080fd5b5060600151604080516306d63c1d60e41b81526001600160a01b038681166004830152915192935090841691636d63c1d09160248082019260009290919082900301818387803b15801561124a57600080fd5b505af115801561125e573d6000803e3d6000fd5b5050600c54604080516308eca22560e11b81526001600160a01b038b81166004830152602482018b9052898116604483015291519190921693506311d9444a9250606480830192600092919082900301818387803b1580156112bf57600080fd5b505af11580156112d3573d6000803e3d6000fd5b50505050816001600160a01b031663d3c87bbb846040518263ffffffff1660e01b815260040180826001600160a01b03168152602001915050600060405180830381600087803b15801561132657600080fd5b505af115801561133a573d6000803e3d6000fd5b505050506113488682612ee0565b505050505050565b61271081565b6001546001600160a01b031681565b6002546001600160a01b031633146113b2576040805162461bcd60e51b815260206004820152601e602482015260008051602061497b833981519152604482015290519081900360640190fd5b600c8054821515600160a81b810260ff60a81b199092169190911790915560408051918252517fa956222e37fe025ff51e5440ac729a9bd417ff91e485e14dcffa2c0ba8894f409181900360200190a150565b60096020526000908152604090205481565b6002546001600160a01b03163314611464576040805162461bcd60e51b815260206004820152601e602482015260008051602061497b833981519152604482015290519081900360640190fd5b6001600160a01b0382166000818152600d6020908152604091829020805460ff1916851515908117909155825190815291517f1d5bc0255b943d6a5b5279e8a55d74d620baccbceecb25e87a3558f14c4c118e9281900390910190a25050565b6002546001600160a01b03163314611511576040805162461bcd60e51b815260206004820152601e602482015260008051602061497b833981519152604482015290519081900360640190fd5b6001600160a01b0382166000818152600e6020908152604091829020805460ff191685151590811790915582519384529083015280517fa4e46c70ff429a91de7d1716d736e877c7cca1c22ac850b23d242530dd95e4749281900390910190a15050565b6002546001600160a01b031633146115c2576040805162461bcd60e51b815260206004820152601e602482015260008051602061497b833981519152604482015290519081900360640190fd5b60078190556040805182815290517f21167d0d4661af93817ebce920f18986eed3d75d5e1c03f2aed05efcbafbc4529181900360200190a150565b6001546001600160a01b0316331461164a576040805162461bcd60e51b815260206004820152601560248201526000805160206148a0833981519152604482015290519081900360640190fd5b61165d6001600160a01b03831682613069565b5050565b600260005414156116a7576040805162461bcd60e51b815260206004820152601f6024820152600080516020614880833981519152604482015290519081900360640190fd5b60026000908155338152600e602052604090205460ff16806116d25750600c54600160a01b900460ff165b611711576040805162461bcd60e51b815260206004820152601a6024820152600080516020614a3c833981519152604482015290519081900360640190fd5b87516002146117515760405162461bcd60e51b8152600401808060200182810382526025815260200180614b656025913960400191505060405180910390fd5b60055488516001600160a01b03909116908990600019810190811061177257fe5b60200260200101516001600160a01b0316146117c3576040805162461bcd60e51b815260206004820152601e602482015260008051602061499b833981519152604482015290519081900360640190fd5b60006117e9338a6000815181106117d657fe5b60200260200101518a8a8a8a308a613153565b9050611832600360009054906101000a90046001600160a01b0316828b60008151811061181257fe5b60200260200101516001600160a01b03166135069092919063ffffffff16565b600061183f8a8430613558565b905061184b81866135dd565b505060016000555050505050505050565b600d6020526000908152604090205460ff1681565b6005546001600160a01b031681565b600260005414156118c6576040805162461bcd60e51b815260206004820152601f6024820152600080516020614880833981519152604482015290519081900360640190fd5b60026000908155338152600e602052604090205460ff16806118f15750600c54600160a01b900460ff165b611930576040805162461bcd60e51b815260206004820152601a6024820152600080516020614a3c833981519152604482015290519081900360640190fd5b6005546001600160a01b0388811691161461197c5760405162461bcd60e51b8152600401808060200182810382526029815260200180614aac6029913960400191505060405180910390fd5b600061198e3389898989893089613153565b905061199a81846135dd565b50506001600055505050505050565b6002546001600160a01b031633146119f6576040805162461bcd60e51b815260206004820152601e602482015260008051602061497b833981519152604482015290519081900360640190fd5b6001600160a01b0382166000818152600f6020908152604091829020805460ff1916851515908117909155825190815291517f8c0d56805c3b43d441481229dc64bee168253ffe4305f37ab7cfe63b1c4268c69281900390910190a25050565b600c54600160a81b900460ff1681565b6002546001600160a01b03163314611ab3576040805162461bcd60e51b815260206004820152601e602482015260008051602061497b833981519152604482015290519081900360640190fd5b60068190556040805182815290517f974fd3c1fcb4653dfc4fb740c4c692cd212d55c28f163f310128cb64d83006759181900360200190a150565b600f6020526000908152604090205460ff1681565b60026000541415611b49576040805162461bcd60e51b815260206004820152601f6024820152600080516020614880833981519152604482015290519081900360640190fd5b60026000908155338152600e602052604090205460ff1680611b745750600c54600160a01b900460ff165b611bb3576040805162461bcd60e51b815260206004820152601a6024820152600080516020614a3c833981519152604482015290519081900360640190fd5b8751600214611bf35760405162461bcd60e51b8152600401808060200182810382526025815260200180614b656025913960400191505060405180910390fd5b6000611c06338a6000815181106117d657fe5b9050611c2f600360009054906101000a90046001600160a01b0316828b60008151811061181257fe5b61184b898386613558565b60065481565b6001546001600160a01b03163314611c8d576040805162461bcd60e51b815260206004820152601560248201526000805160206148a0833981519152604482015290519081900360640190fd5b600280546001600160a01b0383166001600160a01b0319909116811790915560408051918252517f5a272403b402d892977df56625f4164ccaf70ca3863991c43ecfe76a6905b0a19181900360200190a150565b336000908152600f602052604090205460ff1680611cfe57503330145b611d3d576040805162461bcd60e51b815260206004820152601a6024820152600080516020614a3c833981519152604482015290519081900360640190fd5b8786148015611d4b57508784145b8015611d5657508782145b611d915760405162461bcd60e51b8152600401808060200182810382526043815260200180614ad56043913960600191505060405180910390fd5b60005b88811015611e9e573063de2ea9488b8b84818110611dae57fe5b905060200201356001600160a01b03168a8a85818110611dca57fe5b905060200201356001600160a01b0316898986818110611de657fe5b905060200201356001600160a01b0316888887818110611e0257fe5b905060200201351515876040518663ffffffff1660e01b815260040180866001600160a01b03168152602001856001600160a01b03168152602001846001600160a01b031681526020018315158152602001826001600160a01b0316815260200195505050505050600060405180830381600087803b158015611e8457600080fd5b505af1925050508015611e95575060015b50600101611d94565b50505050505050505050565b600c546001600160a01b031681565b600e6020526000908152604090205460ff1681565b60026000541415611f14576040805162461bcd60e51b815260206004820152601f6024820152600080516020614880833981519152604482015290519081900360640190fd5b60026000908155338152600e602052604090205460ff1680611f3f5750600c54600160a01b900460ff165b611f7e576040805162461bcd60e51b815260206004820152601a6024820152600080516020614a3c833981519152604482015290519081900360640190fd5b61199a3388888888888888613153565b600b6020526000908152604090205481565b60075481565b6002546001600160a01b03163314611ff3576040805162461bcd60e51b815260206004820152601e602482015260008051602061497b833981519152604482015290519081900360640190fd5b600c8054821515600160a01b810260ff60a01b199092169190911790915560408051918252517feac6b3611e79ff0d8ea5daa8439f6b1ab7eea4ebf95f1dd360417f712c3fc3049181900360200190a150565b6002546001600160a01b03163314612093576040805162461bcd60e51b815260206004820152601e602482015260008051602061497b833981519152604482015290519081900360640190fd5b600880546001600160a01b0383166001600160a01b0319909116811790915560408051918252517f828abcccea18192c21d645e575652c49e20b986dab777906fc473d056b01b6a89181900360200190a150565b6002600054141561212d576040805162461bcd60e51b815260206004820152601f6024820152600080516020614880833981519152604482015290519081900360640190fd5b60026000908155338152600e602052604090205460ff16806121585750600c54600160a01b900460ff165b612197576040805162461bcd60e51b815260206004820152601a6024820152600080516020614a3c833981519152604482015290519081900360640190fd5b8551600114806121a8575085516002145b6121e35760405162461bcd60e51b8152600401808060200182810382526025815260200180614b656025913960400191505060405180910390fd5b60055486516001600160a01b039091169087906000906121ff57fe5b60200260200101516001600160a01b031614612250576040805162461bcd60e51b815260206004820152601e602482015260008051602061499b833981519152604482015290519081900360640190fd5b34156122d45761225e613656565b855134906001101561229557600354600554612287916001600160a01b03918216911634613506565b612292878630613558565b90505b60006122a53389848a888a6136c2565b90506122d1600360009054906101000a90046001600160a01b0316828a60018c51038151811061181257fe5b50505b6122f933876001895103815181106122e857fe5b6020026020010151878686866137a1565b5050600160005550505050565b6002600054141561234c576040805162461bcd60e51b815260206004820152601f6024820152600080516020614880833981519152604482015290519081900360640190fd5b60026000908155338152600e602052604090205460ff16806123775750600c54600160a01b900460ff165b6123b6576040805162461bcd60e51b815260206004820152601a6024820152600080516020614a3c833981519152604482015290519081900360640190fd5b8651600114806123c7575086516002145b6124025760405162461bcd60e51b8152600401808060200182810382526025815260200180614b656025913960400191505060405180910390fd5b84156125b2578651600114156124c25760045487516001600160a01b0390911690631b82787890899060009061243457fe5b60200260200101513330896040518563ffffffff1660e01b815260040180856001600160a01b03168152602001846001600160a01b03168152602001836001600160a01b03168152602001828152602001945050505050600060405180830381600087803b1580156124a557600080fd5b505af11580156124b9573d6000803e3d6000fd5b50505050612574565b60045487516001600160a01b0390911690631b8278789089906000906124e457fe5b6020908102919091010151600354604080516001600160e01b031960e086901b1681526001600160a01b0393841660048201523360248201529290911660448301526064820189905251608480830192600092919082900301818387803b15801561254e57600080fd5b505af1158015612562573d6000803e3d6000fd5b50505050612571878530613558565b94505b60006125843389888a87896136c2565b90506125b0600360009054906101000a90046001600160a01b0316828a60018c51038151811061181257fe5b505b6125d7338860018a5103815181106125c657fe5b6020026020010151888686866137a1565b505060016000555050505050565b6001546001600160a01b03163314612632576040805162461bcd60e51b815260206004820152601560248201526000805160206148a0833981519152604482015290519081900360640190fd5b600180546001600160a01b0319166001600160a01b0392909216919091179055565b336000908152600d602052604090205460ff166126a6576040805162461bcd60e51b815260206004820152601a6024820152600080516020614a3c833981519152604482015290519081900360640190fd5b60006126b28484613c9d565b90506000600360009054906101000a90046001600160a01b031690506000816001600160a01b03166312d43a516040518163ffffffff1660e01b815260040160206040518083038186803b15801561270957600080fd5b505afa15801561271d573d6000803e3d6000fd5b505050506040513d602081101561273357600080fd5b5051604080516306d63c1d60e41b81526001600160a01b038581166004830152915192935090831691636d63c1d09160248082019260009290919082900301818387803b15801561278357600080fd5b505af1158015612797573d6000803e3d6000fd5b5050600c546040805163d38ab51960e01b81526001600160a01b038b81166004830152602482018b90528981166044830152915191909216935063d38ab5199250606480830192600092919082900301818387803b1580156127f857600080fd5b505af115801561280c573d6000803e3d6000fd5b50505050806001600160a01b031663d3c87bbb836040518263ffffffff1660e01b815260040180826001600160a01b03168152602001915050600060405180830381600087803b15801561285f57600080fd5b505af1158015612873573d6000803e3d6000fd5b505050506113488684613fda565b600c54600160a01b900460ff1681565b600260005414156128d7576040805162461bcd60e51b815260206004820152601f6024820152600080516020614880833981519152604482015290519081900360640190fd5b60026000908155338152600f602052604090205460ff16806128f857503330145b612937576040805162461bcd60e51b815260206004820152601a6024820152600080516020614a3c833981519152604482015290519081900360640190fd5b600354604080516312d43a5160e01b815290516001600160a01b039092169160009183916312d43a5191600480820192602092909190829003018186803b15801561298157600080fd5b505afa158015612995573d6000803e3d6000fd5b505050506040513d60208110156129ab57600080fd5b5051604080516306d63c1d60e41b81526001600160a01b038581166004830152915192935090831691636d63c1d09160248082019260009290919082900301818387803b1580156129fb57600080fd5b505af1158015612a0f573d6000803e3d6000fd5b505060408051631bc5d52960e31b81526001600160a01b038b811660048301528a811660248301528981166044830152881515606483015287811660848301529151918616935063de2ea948925060a48082019260009290919082900301818387803b158015612a7e57600080fd5b505af1158015612a92573d6000803e3d6000fd5b50505050806001600160a01b031663d3c87bbb836040518263ffffffff1660e01b815260040180826001600160a01b03168152602001915050600060405180830381600087803b158015612ae557600080fd5b505af1158015612af9573d6000803e3d6000fd5b50506001600055505050505050505050565b6001546001600160a01b03163314612b58576040805162461bcd60e51b815260206004820152601560248201526000805160206148a0833981519152604482015290519081900360640190fd5b826001600160a01b031663095ea7b383836040518363ffffffff1660e01b815260040180836001600160a01b0316815260200182815260200192505050602060405180830381600087803b158015612baf57600080fd5b505af1158015612bc3573d6000803e3d6000fd5b505050506040513d6020811015612bd957600080fd5b5050505050565b6002546001600160a01b03163314612c2d576040805162461bcd60e51b815260206004820152601e602482015260008051602061497b833981519152604482015290519081900360640190fd5b60005b8351811015612cc8576000848281518110612c4757fe5b60200260200101519050838281518110612c5d57fe5b6020026020010151600a6000836001600160a01b03166001600160a01b0316815260200190815260200160002081905550828281518110612c9a57fe5b6020908102919091018101516001600160a01b039092166000908152600b9091526040902055600101612c30565b507fae32d569b058895b9620d6552b09aaffedc9a6f396be4d595a224ad09f8b213983838360405180806020018060200180602001848103845287818151815260200191508051906020019060200280838360005b83811015612d35578181015183820152602001612d1d565b50505050905001848103835286818151815260200191508051906020019060200280838360005b83811015612d74578181015183820152602001612d5c565b50505050905001848103825285818151815260200191508051906020019060200280838360005b83811015612db3578181015183820152602001612d9b565b50505050905001965050505050505060405180910390a1505050565b6002546001600160a01b03163314612e1c576040805162461bcd60e51b815260206004820152601e602482015260008051602061497b833981519152604482015290519081900360640190fd5b6001600160a01b03821660009081526009602052604090205480612e40575061165d565b6001600160a01b038316600081815260096020526040812055612e64908383613506565b604080516001600160a01b0380861682528416602082015280820183905290517f4f1b51dd7a2fcb861aa2670f668be66835c4ee12b4bbbf037e4d0018f39819e49181900360600190a1505050565b6002546001600160a01b031681565b6004546001600160a01b031681565b6003546001600160a01b031681565b6008546001600160a01b031680612ef7575061165d565b600080826001600160a01b031663534ef883866040518263ffffffff1660e01b815260040180826001600160a01b03168152602001915050604080518083038186803b158015612f4657600080fd5b505afa158015612f5a573d6000803e3d6000fd5b505050506040513d6040811015612f7057600080fd5b508051602090910151909250905081612f8b5750505061165d565b7f474c763ff84bf2c2039a6d9fea955ecd0f724030e3c365b91169c6a16fe751b78585600360009054906101000a90046001600160a01b03166001600160a01b031663318bc6896040518163ffffffff1660e01b815260040160206040518083038186803b158015612ffc57600080fd5b505afa158015613010573d6000803e3d6000fd5b505050506040513d602081101561302657600080fd5b5051604080516001600160a01b03948516815260208101939093528281019190915260608201869052918416608082015290519081900360a00190a15050505050565b804710156130be576040805162461bcd60e51b815260206004820152601d60248201527f416464726573733a20696e73756666696369656e742062616c616e6365000000604482015290519081900360640190fd5b6040516000906001600160a01b0384169083908381818185875af1925050503d8060008114613109576040519150601f19603f3d011682016040523d82523d6000602084013e61310e565b606091505b505090508061314e5760405162461bcd60e51b815260040180806020018281038252603a8152602001806148eb603a913960400191505060405180910390fd5b505050565b6003546000906001600160a01b031684156132245782816001600160a01b03166381a612d68a6040518263ffffffff1660e01b815260040180826001600160a01b0316815260200191505060206040518083038186803b1580156131b657600080fd5b505afa1580156131ca573d6000803e3d6000fd5b505050506040513d60208110156131e057600080fd5b5051101561321f5760405162461bcd60e51b815260040180806020018281038252603081526020018061494b6030913960400191505060405180910390fd5b6132db565b82816001600160a01b031663e124e6d28a6040518263ffffffff1660e01b815260040180826001600160a01b0316815260200191505060206040518083038186803b15801561327257600080fd5b505afa158015613286573d6000803e3d6000fd5b505050506040513d602081101561329c57600080fd5b505111156132db5760405162461bcd60e51b8152600401808060200182810382526031815260200180614a0b6031913960400191505060405180910390fd5b6000816001600160a01b03166312d43a516040518163ffffffff1660e01b815260040160206040518083038186803b15801561331657600080fd5b505afa15801561332a573d6000803e3d6000fd5b505050506040513d602081101561334057600080fd5b5051604080516306d63c1d60e41b81526001600160a01b038581166004830152915192935090831691636d63c1d09160248082019260009290919082900301818387803b15801561339057600080fd5b505af11580156133a4573d6000803e3d6000fd5b505050506000600460009054906101000a90046001600160a01b03166001600160a01b0316632662166b8d8d8d8d8d8d8d6040518863ffffffff1660e01b815260040180886001600160a01b03168152602001876001600160a01b03168152602001866001600160a01b031681526020018581526020018481526020018315158152602001826001600160a01b03168152602001975050505050505050602060405180830381600087803b15801561345b57600080fd5b505af115801561346f573d6000803e3d6000fd5b505050506040513d602081101561348557600080fd5b50516040805163d3c87bbb60e01b81526001600160a01b03868116600483015291519293509084169163d3c87bbb9160248082019260009290919082900301818387803b1580156134d557600080fd5b505af11580156134e9573d6000803e3d6000fd5b505050506134f78c89612ee0565b9b9a5050505050505050505050565b604080516001600160a01b038416602482015260448082018490528251808303909101815260649091019091526020810180516001600160e01b031663a9059cbb60e01b17905261314e9084906140e0565b600083516002141561359f576135988460008151811061357457fe5b60200260200101518560018151811061358957fe5b60200260200101518585614191565b90506135d6565b60405162461bcd60e51b8152600401808060200182810382526029815260200180614a836029913960400191505060405180910390fd5b9392505050565b60055460408051632e1a7d4d60e01b81526004810185905290516001600160a01b0390921691632e1a7d4d9160248082019260009290919082900301818387803b15801561362a57600080fd5b505af115801561363e573d6000803e3d6000fd5b5061165d925050506001600160a01b03821683613069565b34156136c057600560009054906101000a90046001600160a01b03166001600160a01b031663d0e30db0346040518263ffffffff1660e01b81526004016000604051808303818588803b1580156136ac57600080fd5b505af1158015612bd9573d6000803e3d6000fd5b565b6000806136d3888888888888614267565b9050801561379257600061370a6127106137046136fd60065461271061444490919063ffffffff16565b8a90614486565b906144df565b905060006137188883614444565b905060008960018b51038151811061372c57fe5b6020026020010151905061376e8260096000846001600160a01b03166001600160a01b031681526020019081526020016000205461451e90919063ffffffff16565b6001600160a01b039091166000908152600960205260409020555091506137979050565b859150505b9695505050505050565b6003546001600160a01b0316821561386f5781816001600160a01b031663e124e6d2876040518263ffffffff1660e01b815260040180826001600160a01b0316815260200191505060206040518083038186803b15801561380157600080fd5b505afa158015613815573d6000803e3d6000fd5b505050506040513d602081101561382b57600080fd5b5051111561386a5760405162461bcd60e51b8152600401808060200182810382526031815260200180614a0b6031913960400191505060405180910390fd5b613926565b81816001600160a01b03166381a612d6876040518263ffffffff1660e01b815260040180826001600160a01b0316815260200191505060206040518083038186803b1580156138bd57600080fd5b505afa1580156138d1573d6000803e3d6000fd5b505050506040513d60208110156138e757600080fd5b505110156139265760405162461bcd60e51b815260040180806020018281038252603081526020018061494b6030913960400191505060405180910390fd5b8215613a17576001600160a01b0385166000908152600a602052604090205480158015906139d55750806139d386846001600160a01b031663f07456ce8a6040518263ffffffff1660e01b815260040180826001600160a01b0316815260200191505060206040518083038186803b1580156139a157600080fd5b505afa1580156139b5573d6000803e3d6000fd5b505050506040513d60208110156139cb57600080fd5b50519061451e565b115b15613a115760405162461bcd60e51b815260040180806020018281038252602e815260200180614852602e913960400191505060405180910390fd5b50613acc565b6001600160a01b0385166000908152600b60205260409020548015801590613a8e575080613a8c86846001600160a01b0316638a78daa88a6040518263ffffffff1660e01b815260040180826001600160a01b0316815260200191505060206040518083038186803b1580156139a157600080fd5b115b15613aca5760405162461bcd60e51b815260040180806020018281038252602f8152602001806149bb602f913960400191505060405180910390fd5b505b6000816001600160a01b03166312d43a516040518163ffffffff1660e01b815260040160206040518083038186803b158015613b0757600080fd5b505afa158015613b1b573d6000803e3d6000fd5b505050506040513d6020811015613b3157600080fd5b5051604080516306d63c1d60e41b81526001600160a01b038581166004830152915192935090831691636d63c1d09160248082019260009290919082900301818387803b158015613b8157600080fd5b505af1158015613b95573d6000803e3d6000fd5b50506004805460408051630f8ee8bb60e11b81526001600160a01b038e8116948201949094528c841660248201528b84166044820152606481018b905289151560848201529051929091169350631f1dd176925060a48082019260009290919082900301818387803b158015613c0a57600080fd5b505af1158015613c1e573d6000803e3d6000fd5b50505050806001600160a01b031663d3c87bbb836040518263ffffffff1660e01b815260040180826001600160a01b03168152602001915050600060405180830381600087803b158015613c7157600080fd5b505af1158015613c85573d6000803e3d6000fd5b50505050613c938886613fda565b5050505050505050565b6000806000806000806000600c60009054906101000a90046001600160a01b03166001600160a01b031663d3bab1d18a8a6040518363ffffffff1660e01b815260040180836001600160a01b03168152602001828152602001925050506101206040518083038186803b158015613d1357600080fd5b505afa158015613d27573d6000803e3d6000fd5b505050506040513d610120811015613d3e57600080fd5b508051602082015160408301516060840151608085015160a090950151600c54949b509299509097509550919350909150600160a81b900460ff16613d8a57509450613fd49350505050565b80613d9c57509450613fd49350505050565b60008211613df1576040805162461bcd60e51b815260206004820152601d60248201527f506f736974696f6e4d616e616765723a206c6f6e67206465706f736974000000604482015290519081900360640190fd5b60035460408051634a3f088d60e01b81526001600160a01b038c811660048301528781166024830152868116604483015284151560648301529151919092169160009182918491634a3f088d9160848082019261010092909190829003018186803b158015613e5f57600080fd5b505afa158015613e73573d6000803e3d6000fd5b505050506040513d610100811015613e8a57600080fd5b508051602090910151909250905081613eae57849950505050505050505050613fd4565b6000613eba838761451e565b90506000846001600160a01b0316630a48d5a98c8c6040518363ffffffff1660e01b815260040180836001600160a01b031681526020018281526020019250505060206040518083038186803b158015613f1357600080fd5b505afa158015613f27573d6000803e3d6000fd5b505050506040513d6020811015613f3d57600080fd5b505190506000613f4d848361451e565b90506000613f618561370488612710614486565b90506000613f8283613704600754612710018861448690919063ffffffff16565b905081811015613fc35760405162461bcd60e51b8152600401808060200182810382526027815260200180614a5c6027913960400191505060405180910390fd5b50979c505050505050505050505050505b92915050565b6008546001600160a01b031680613ff1575061165d565b600080826001600160a01b031663534ef883866040518263ffffffff1660e01b815260040180826001600160a01b03168152602001915050604080518083038186803b15801561404057600080fd5b505afa158015614054573d6000803e3d6000fd5b505050506040513d604081101561406a57600080fd5b5080516020918201516003546040805163318bc68960e01b815290519396509194507fc2414023ce7002ee98557d1e7be21e5559073336f2217ee5f9b2e50fd85f71ee93899389936001600160a01b039093169263318bc689926004808301939192829003018186803b158015612ffc57600080fd5b6060614135826040518060400160405280602081526020017f5361666545524332303a206c6f772d6c6576656c2063616c6c206661696c6564815250856001600160a01b03166145769092919063ffffffff16565b80519091501561314e5780806020019051602081101561415457600080fd5b505161314e5760405162461bcd60e51b815260040180806020018281038252602a815260200180614b3b602a913960400191505060405180910390fd5b60035460408051634998b10960e11b81526001600160a01b03878116600483015286811660248301528481166044830152915160009384931691639331621291606480830192602092919082900301818787803b1580156141f157600080fd5b505af1158015614205573d6000803e3d6000fd5b505050506040513d602081101561421b57600080fd5b505190508381101561425e5760405162461bcd60e51b815260040180806020018281038252602b8152602001806148c0602b913960400191505060405180910390fd5b95945050505050565b60008261427657506000613797565b8161428357506001613797565b60008660018851038151811061429557fe5b602090810291909101015160035460408051634a3f088d60e01b81526001600160a01b038c81166004830152808516602483015289811660448301528815156064830152915193945091169160009182918491634a3f088d91608480830192610100929190829003018186803b15801561430e57600080fd5b505afa158015614322573d6000803e3d6000fd5b505050506040513d61010081101561433957600080fd5b508051602090910151909250905081614359576000945050505050613797565b6000614365838861451e565b90506000846001600160a01b0316630a48d5a9878d6040518363ffffffff1660e01b815260040180836001600160a01b031681526020018281526020019250505060206040518083038186803b1580156143be57600080fd5b505afa1580156143d2573d6000803e3d6000fd5b505050506040513d60208110156143e857600080fd5b5051905060006143f8848361451e565b9050600061440c8561370488612710614486565b9050600061442d83613704600754612710018861448690919063ffffffff16565b919091109f9e505050505050505050505050505050565b60006135d683836040518060400160405280601e81526020017f536166654d6174683a207375627472616374696f6e206f766572666c6f77000081525061458d565b60008261449557506000613fd4565b828202828482816144a257fe5b04146135d65760405162461bcd60e51b81526004018080602001828103825260218152602001806149ea6021913960400191505060405180910390fd5b60006135d683836040518060400160405280601a815260200179536166654d6174683a206469766973696f6e206279207a65726f60301b815250614624565b6000828201838110156135d6576040805162461bcd60e51b815260206004820152601b60248201527a536166654d6174683a206164646974696f6e206f766572666c6f7760281b604482015290519081900360640190fd5b60606145858484600085614689565b949350505050565b6000818484111561461c5760405162461bcd60e51b81526004018080602001828103825283818151815260200191508051906020019080838360005b838110156145e15781810151838201526020016145c9565b50505050905090810190601f16801561460e5780820380516001836020036101000a031916815260200191505b509250505060405180910390fd5b505050900390565b600081836146735760405162461bcd60e51b81526020600482018181528351602484015283519092839260449091019190850190808383600083156145e15781810151838201526020016145c9565b50600083858161467f57fe5b0495945050505050565b6060824710156146ca5760405162461bcd60e51b81526004018080602001828103825260268152602001806149256026913960400191505060405180910390fd5b6146d3856147e5565b614724576040805162461bcd60e51b815260206004820152601d60248201527f416464726573733a2063616c6c20746f206e6f6e2d636f6e7472616374000000604482015290519081900360640190fd5b60006060866001600160a01b031685876040518082805190602001908083835b602083106147635780518252601f199092019160209182019101614744565b6001836020036101000a03801982511681845116808217855250505050505090500191505060006040518083038185875af1925050503d80600081146147c5576040519150601f19603f3d011682016040523d82523d6000602084013e6147ca565b606091505b50915091506147da8282866147eb565b979650505050505050565b3b151590565b606083156147fa5750816135d6565b82511561480a5782518084602001fd5b60405162461bcd60e51b81526020600482018181528451602484015284518593919283926044019190850190808383600083156145e15781810151838201526020016145c956fe42617365506f736974696f6e4d616e616765723a206d617820676c6f62616c206c6f6e67732065786365656465645265656e7472616e637947756172643a207265656e7472616e742063616c6c00476f7665726e61626c653a20666f7262696464656e000000000000000000000042617365506f736974696f6e4d616e616765723a20696e73756666696369656e7420616d6f756e744f7574416464726573733a20756e61626c6520746f2073656e642076616c75652c20726563697069656e74206d61792068617665207265766572746564416464726573733a20696e73756666696369656e742062616c616e636520666f722063616c6c42617365506f736974696f6e4d616e616765723a206d61726b207072696365206c6f776572207468616e206c696d697442617365506f736974696f6e4d616e616765723a20666f7262696464656e0000506f736974696f6e4d616e616765723a20696e76616c6964205f70617468000042617365506f736974696f6e4d616e616765723a206d617820676c6f62616c2073686f727473206578636565646564536166654d6174683a206d756c7469706c69636174696f6e206f766572666c6f7742617365506f736974696f6e4d616e616765723a206d61726b20707269636520686967686572207468616e206c696d6974506f736974696f6e4d616e616765723a20666f7262696464656e000000000000506f736974696f6e4d616e616765723a206c6f6e67206c6576657261676520646563726561736542617365506f736974696f6e4d616e616765723a20696e76616c6964205f706174682e6c656e677468506f736974696f6e4d616e616765723a20696e76616c6964205f636f6c6c61746572616c546f6b656e506f736974696f6e526f757465723a206c6971756964617465506f736974696f6e7320617272617973206d7573742068617665207468652073616d65206c656e67746842617365506f736974696f6e4d616e616765723a20696e76616c69642073656e6465725361666545524332303a204552433230206f7065726174696f6e20646964206e6f742073756363656564506f736974696f6e4d616e616765723a20696e76616c6964205f706174682e6c656e677468a2646970667358221220c607bf5bc146ccb9d843c99069d4347c6125aadd2c83cb78b50503ec9b05628664736f6c634300060c0033",
  "linkReferences": {},
  "deployedLinkReferences": {}
}