{
  "_format": "hh-sol-artifact-1",
  "contractName": "RewardRouterV2",
  "sourceName": "contracts/staking/RewardRouterV2.sol",
  "abi": [
    {
      "anonymous": false,
      "inputs": [
        {
          "indexed": false,
          "internalType": "address",
          "name": "account",
          "type": "address"
        },
        {
          "indexed": false,
          "internalType": "uint256",
          "name": "amount",
          "type": "uint256"
        }
      ],
      "name": "StakeMlp",
      "type": "event"
    },
    {
      "anonymous": false,
      "inputs": [
        {
          "indexed": false,
          "internalType": "address",
          "name": "account",
          "type": "address"
        },
        {
          "indexed": false,
          "internalType": "address",
          "name": "token",
          "type": "address"
        },
        {
          "indexed": false,
          "internalType": "uint256",
          "name": "amount",
          "type": "uint256"
        }
      ],
      "name": "StakeMyc",
      "type": "event"
    },
    {
      "anonymous": false,
      "inputs": [
        {
          "indexed": false,
          "internalType": "address",
          "name": "account",
          "type": "address"
        },
        {
          "indexed": false,
          "internalType": "uint256",
          "name": "amount",
          "type": "uint256"
        }
      ],
      "name": "UnstakeMlp",
      "type": "event"
    },
    {
      "anonymous": false,
      "inputs": [
        {
          "indexed": false,
          "internalType": "address",
          "name": "account",
          "type": "address"
        },
        {
          "indexed": false,
          "internalType": "address",
          "name": "token",
          "type": "address"
        },
        {
          "indexed": false,
          "internalType": "uint256",
          "name": "amount",
          "type": "uint256"
        }
      ],
      "name": "UnstakeMyc",
      "type": "event"
    },
    {
      "inputs": [
        {
          "internalType": "address",
          "name": "_sender",
          "type": "address"
        }
      ],
      "name": "acceptTransfer",
      "outputs": [],
      "stateMutability": "nonpayable",
      "type": "function"
    },
    {
      "inputs": [
        {
          "internalType": "address[]",
          "name": "_accounts",
          "type": "address[]"
        }
      ],
      "name": "batchCompoundForAccounts",
      "outputs": [],
      "stateMutability": "nonpayable",
      "type": "function"
    },
    {
      "inputs": [
        {
          "internalType": "address[]",
          "name": "_accounts",
          "type": "address[]"
        },
        {
          "internalType": "uint256[]",
          "name": "_amounts",
          "type": "uint256[]"
        }
      ],
      "name": "batchStakeMycForAccount",
      "outputs": [],
      "stateMutability": "nonpayable",
      "type": "function"
    },
    {
      "inputs": [],
      "name": "bnMyc",
      "outputs": [
        {
          "internalType": "address",
          "name": "",
          "type": "address"
        }
      ],
      "stateMutability": "view",
      "type": "function"
    },
    {
      "inputs": [],
      "name": "bonusMycTracker",
      "outputs": [
        {
          "internalType": "address",
          "name": "",
          "type": "address"
        }
      ],
      "stateMutability": "view",
      "type": "function"
    },
    {
      "inputs": [],
      "name": "claim",
      "outputs": [],
      "stateMutability": "nonpayable",
      "type": "function"
    },
    {
      "inputs": [],
      "name": "claimEsMyc",
      "outputs": [],
      "stateMutability": "nonpayable",
      "type": "function"
    },
    {
      "inputs": [],
      "name": "claimFees",
      "outputs": [],
      "stateMutability": "nonpayable",
      "type": "function"
    },
    {
      "inputs": [],
      "name": "compound",
      "outputs": [],
      "stateMutability": "nonpayable",
      "type": "function"
    },
    {
      "inputs": [
        {
          "internalType": "address",
          "name": "_account",
          "type": "address"
        }
      ],
      "name": "compoundForAccount",
      "outputs": [],
      "stateMutability": "nonpayable",
      "type": "function"
    },
    {
      "inputs": [],
      "name": "esMyc",
      "outputs": [
        {
          "internalType": "address",
          "name": "",
          "type": "address"
        }
      ],
      "stateMutability": "view",
      "type": "function"
    },
    {
      "inputs": [],
      "name": "feeMlpTracker",
      "outputs": [
        {
          "internalType": "address",
          "name": "",
          "type": "address"
        }
      ],
      "stateMutability": "view",
      "type": "function"
    },
    {
      "inputs": [],
      "name": "feeMycTracker",
      "outputs": [
        {
          "internalType": "address",
          "name": "",
          "type": "address"
        }
      ],
      "stateMutability": "view",
      "type": "function"
    },
    {
      "inputs": [],
      "name": "gov",
      "outputs": [
        {
          "internalType": "address",
          "name": "",
          "type": "address"
        }
      ],
      "stateMutability": "view",
      "type": "function"
    },
    {
      "inputs": [
        {
          "internalType": "bool",
          "name": "_shouldClaimMyc",
          "type": "bool"
        },
        {
          "internalType": "bool",
          "name": "_shouldStakeMyc",
          "type": "bool"
        },
        {
          "internalType": "bool",
          "name": "_shouldClaimEsMyc",
          "type": "bool"
        },
        {
          "internalType": "bool",
          "name": "_shouldStakeEsMyc",
          "type": "bool"
        },
        {
          "internalType": "bool",
          "name": "_shouldStakeMultiplierPoints",
          "type": "bool"
        },
        {
          "internalType": "bool",
          "name": "_shouldClaimWeth",
          "type": "bool"
        },
        {
          "internalType": "bool",
          "name": "_shouldConvertWethToEth",
          "type": "bool"
        },
        {
          "internalType": "bool",
          "name": "_shouldBuyMlpWithWeth",
          "type": "bool"
        }
      ],
      "name": "handleRewards",
      "outputs": [],
      "stateMutability": "nonpayable",
      "type": "function"
    },
    {
      "inputs": [
        {
          "internalType": "address",
          "name": "_weth",
          "type": "address"
        },
        {
          "internalType": "address",
          "name": "_myc",
          "type": "address"
        },
        {
          "internalType": "address",
          "name": "_esMyc",
          "type": "address"
        },
        {
          "internalType": "address",
          "name": "_bnMyc",
          "type": "address"
        },
        {
          "internalType": "address",
          "name": "_mlp",
          "type": "address"
        },
        {
          "internalType": "address",
          "name": "_stakedMycTracker",
          "type": "address"
        },
        {
          "internalType": "address",
          "name": "_bonusMycTracker",
          "type": "address"
        },
        {
          "internalType": "address",
          "name": "_feeMycTracker",
          "type": "address"
        },
        {
          "internalType": "address",
          "name": "_feeMlpTracker",
          "type": "address"
        },
        {
          "internalType": "address",
          "name": "_stakedMlpTracker",
          "type": "address"
        },
        {
          "internalType": "address",
          "name": "_mlpManager",
          "type": "address"
        },
        {
          "internalType": "address",
          "name": "_mycVester",
          "type": "address"
        },
        {
          "internalType": "address",
          "name": "_mlpVester",
          "type": "address"
        }
      ],
      "name": "initialize",
      "outputs": [],
      "stateMutability": "nonpayable",
      "type": "function"
    },
    {
      "inputs": [],
      "name": "isInitialized",
      "outputs": [
        {
          "internalType": "bool",
          "name": "",
          "type": "bool"
        }
      ],
      "stateMutability": "view",
      "type": "function"
    },
    {
      "inputs": [
        {
          "internalType": "address",
          "name": "_token",
          "type": "address"
        },
        {
          "internalType": "uint256",
          "name": "_amount",
          "type": "uint256"
        },
        {
          "internalType": "uint256",
          "name": "_minUsdg",
          "type": "uint256"
        },
        {
          "internalType": "uint256",
          "name": "_minMlp",
          "type": "uint256"
        }
      ],
      "name": "mintAndStakeMlp",
      "outputs": [
        {
          "internalType": "uint256",
          "name": "",
          "type": "uint256"
        }
      ],
      "stateMutability": "nonpayable",
      "type": "function"
    },
    {
      "inputs": [
        {
          "internalType": "uint256",
          "name": "_minUsdg",
          "type": "uint256"
        },
        {
          "internalType": "uint256",
          "name": "_minMlp",
          "type": "uint256"
        }
      ],
      "name": "mintAndStakeMlpETH",
      "outputs": [
        {
          "internalType": "uint256",
          "name": "",
          "type": "uint256"
        }
      ],
      "stateMutability": "payable",
      "type": "function"
    },
    {
      "inputs": [],
      "name": "mlp",
      "outputs": [
        {
          "internalType": "address",
          "name": "",
          "type": "address"
        }
      ],
      "stateMutability": "view",
      "type": "function"
    },
    {
      "inputs": [],
      "name": "mlpManager",
      "outputs": [
        {
          "internalType": "address",
          "name": "",
          "type": "address"
        }
      ],
      "stateMutability": "view",
      "type": "function"
    },
    {
      "inputs": [],
      "name": "mlpVester",
      "outputs": [
        {
          "internalType": "address",
          "name": "",
          "type": "address"
        }
      ],
      "stateMutability": "view",
      "type": "function"
    },
    {
      "inputs": [],
      "name": "myc",
      "outputs": [
        {
          "internalType": "address",
          "name": "",
          "type": "address"
        }
      ],
      "stateMutability": "view",
      "type": "function"
    },
    {
      "inputs": [],
      "name": "mycVester",
      "outputs": [
        {
          "internalType": "address",
          "name": "",
          "type": "address"
        }
      ],
      "stateMutability": "view",
      "type": "function"
    },
    {
      "inputs": [
        {
          "internalType": "address",
          "name": "",
          "type": "address"
        }
      ],
      "name": "pendingReceivers",
      "outputs": [
        {
          "internalType": "address",
          "name": "",
          "type": "address"
        }
      ],
      "stateMutability": "view",
      "type": "function"
    },
    {
      "inputs": [
        {
          "internalType": "address",
          "name": "_gov",
          "type": "address"
        }
      ],
      "name": "setGov",
      "outputs": [],
      "stateMutability": "nonpayable",
      "type": "function"
    },
    {
      "inputs": [
        {
          "internalType": "address",
          "name": "_receiver",
          "type": "address"
        }
      ],
      "name": "signalTransfer",
      "outputs": [],
      "stateMutability": "nonpayable",
      "type": "function"
    },
    {
      "inputs": [
        {
          "internalType": "uint256",
          "name": "_amount",
          "type": "uint256"
        }
      ],
      "name": "stakeEsMyc",
      "outputs": [],
      "stateMutability": "nonpayable",
      "type": "function"
    },
    {
      "inputs": [
        {
          "internalType": "uint256",
          "name": "_amount",
          "type": "uint256"
        }
      ],
      "name": "stakeMyc",
      "outputs": [],
      "stateMutability": "nonpayable",
      "type": "function"
    },
    {
      "inputs": [
        {
          "internalType": "address",
          "name": "_account",
          "type": "address"
        },
        {
          "internalType": "uint256",
          "name": "_amount",
          "type": "uint256"
        }
      ],
      "name": "stakeMycForAccount",
      "outputs": [],
      "stateMutability": "nonpayable",
      "type": "function"
    },
    {
      "inputs": [],
      "name": "stakedMlpTracker",
      "outputs": [
        {
          "internalType": "address",
          "name": "",
          "type": "address"
        }
      ],
      "stateMutability": "view",
      "type": "function"
    },
    {
      "inputs": [],
      "name": "stakedMycTracker",
      "outputs": [
        {
          "internalType": "address",
          "name": "",
          "type": "address"
        }
      ],
      "stateMutability": "view",
      "type": "function"
    },
    {
      "inputs": [
        {
          "internalType": "address",
          "name": "_tokenOut",
          "type": "address"
        },
        {
          "internalType": "uint256",
          "name": "_mlpAmount",
          "type": "uint256"
        },
        {
          "internalType": "uint256",
          "name": "_minOut",
          "type": "uint256"
        },
        {
          "internalType": "address",
          "name": "_receiver",
          "type": "address"
        }
      ],
      "name": "unstakeAndRedeemMlp",
      "outputs": [
        {
          "internalType": "uint256",
          "name": "",
          "type": "uint256"
        }
      ],
      "stateMutability": "nonpayable",
      "type": "function"
    },
    {
      "inputs": [
        {
          "internalType": "uint256",
          "name": "_mlpAmount",
          "type": "uint256"
        },
        {
          "internalType": "uint256",
          "name": "_minOut",
          "type": "uint256"
        },
        {
          "internalType": "address payable",
          "name": "_receiver",
          "type": "address"
        }
      ],
      "name": "unstakeAndRedeemMlpETH",
      "outputs": [
        {
          "internalType": "uint256",
          "name": "",
          "type": "uint256"
        }
      ],
      "stateMutability": "nonpayable",
      "type": "function"
    },
    {
      "inputs": [
        {
          "internalType": "uint256",
          "name": "_amount",
          "type": "uint256"
        }
      ],
      "name": "unstakeEsMyc",
      "outputs": [],
      "stateMutability": "nonpayable",
      "type": "function"
    },
    {
      "inputs": [
        {
          "internalType": "uint256",
          "name": "_amount",
          "type": "uint256"
        }
      ],
      "name": "unstakeMyc",
      "outputs": [],
      "stateMutability": "nonpayable",
      "type": "function"
    },
    {
      "inputs": [],
      "name": "weth",
      "outputs": [
        {
          "internalType": "address",
          "name": "",
          "type": "address"
        }
      ],
      "stateMutability": "view",
      "type": "function"
    },
    {
      "inputs": [
        {
          "internalType": "address",
          "name": "_token",
          "type": "address"
        },
        {
          "internalType": "address",
          "name": "_account",
          "type": "address"
        },
        {
          "internalType": "uint256",
          "name": "_amount",
          "type": "uint256"
        }
      ],
      "name": "withdrawToken",
      "outputs": [],
      "stateMutability": "nonpayable",
      "type": "function"
    },
    {
      "stateMutability": "payable",
      "type": "receive"
    }
  ],
  "bytecode": "0x608060405234801561001057600080fd5b506001600081905580546001600160a01b03191633179055615792806100376000396000f3fe6080604052600436106101b95760003560e01c806301e336671461021d57806312d43a511461026057806312ebd5b11461029157806319c6c0cf146103c15780631af276a6146103fa5780632a9f4083146104a85780632fdd983d146104db5780633864c4fa14610576578063392e53cd146105db57806339a60b80146106045780633e49e2131461062e5780633fc8cef314610643578063415b8afc1461065857806342e9cd9b1461066d5780634e71d92d146106975780635387701e146106ac57806353f33a55146106fd578063655603a41461074457806369368154146107775780637b4c3da6146107a157806385df1b1f146107b65780638a98e96a146107cb578063944b4e5f146107e0578063b2a39a2a14610803578063c816d88114610818578063cbb91c5e14610842578063cfad57a214610857578063d294f0931461088a578063d4d933f01461089f578063d7fc085f146108b4578063df5e4f61146108c9578063e1b9db89146108de578063e709847814610911578063ef9aacfd14610926578063f5e3587914610959578063f69e20461461099e578063f851d692146109b3578063fc8b6fc1146109c857610218565b36610218576002546001600160a01b03163314610216576040805162461bcd60e51b81526020600482015260166024820152752937baba32b91d1034b73b30b634b21039b2b73232b960511b604482015290519081900360640190fd5b005b600080fd5b34801561022957600080fd5b506102166004803603606081101561024057600080fd5b506001600160a01b038135811691602081013590911690604001356109dd565b34801561026c57600080fd5b50610275610a43565b604080516001600160a01b039092168252519081900360200190f35b34801561029d57600080fd5b50610216600480360360408110156102b457600080fd5b810190602081018135600160201b8111156102ce57600080fd5b8201836020820111156102e057600080fd5b803590602001918460208302840111600160201b8311171561030157600080fd5b9190808060200260200160405190810160405280939291908181526020018383602002808284376000920191909152509295949360208101935035915050600160201b81111561035057600080fd5b82018360208201111561036257600080fd5b803590602001918460208302840111600160201b8311171561038357600080fd5b919080806020026020016040519081016040528093929190818152602001838360200280828437600092019190915250929550610a52945050505050565b3480156103cd57600080fd5b50610216600480360360408110156103e457600080fd5b506001600160a01b038135169060200135610b47565b34801561040657600080fd5b506102166004803603602081101561041d57600080fd5b810190602081018135600160201b81111561043757600080fd5b82018360208201111561044957600080fd5b803590602001918460208302840111600160201b8311171561046a57600080fd5b919080806020026020016040519081016040528093929190818152602001838360200280828437600092019190915250929550610c02945050505050565b3480156104b457600080fd5b50610216600480360360208110156104cb57600080fd5b50356001600160a01b0316610cca565b3480156104e757600080fd5b5061021660048036036101a08110156104ff57600080fd5b506001600160a01b038135811691602081013582169160408201358116916060810135821691608082013581169160a081013582169160c082013581169160e08101358216916101008201358116916101208101358216916101408201358116916101608101358216916101809091013516610d73565b34801561058257600080fd5b50610216600480360361010081101561059a57600080fd5b508035151590602081013515159060408101351515906060810135151590608081013515159060a081013515159060c081013515159060e001351515610f00565b3480156105e757600080fd5b506105f0611946565b604080519115158252519081900360200190f35b34801561061057600080fd5b506102166004803603602081101561062757600080fd5b5035611956565b34801561063a57600080fd5b506102756119bb565b34801561064f57600080fd5b506102756119ca565b34801561066457600080fd5b506102756119d9565b34801561067957600080fd5b506102166004803603602081101561069057600080fd5b50356119e8565b3480156106a357600080fd5b50610216611a4d565b3480156106b857600080fd5b506106eb600480360360608110156106cf57600080fd5b50803590602081013590604001356001600160a01b0316611cac565b60408051918252519081900360200190f35b34801561070957600080fd5b506106eb6004803603608081101561072057600080fd5b506001600160a01b0381358116916020810135916040820135916060013516611f95565b34801561075057600080fd5b506102166004803603602081101561076757600080fd5b50356001600160a01b0316612205565b34801561078357600080fd5b506102166004803603602081101561079a57600080fd5b5035612bfc565b3480156107ad57600080fd5b50610275612c61565b3480156107c257600080fd5b50610275612c70565b3480156107d757600080fd5b50610275612c7f565b6106eb600480360360408110156107f657600080fd5b5080359060200135612c8e565b34801561080f57600080fd5b50610275612ff9565b34801561082457600080fd5b506102166004803603602081101561083b57600080fd5b5035613008565b34801561084e57600080fd5b5061027561306d565b34801561086357600080fd5b506102166004803603602081101561087a57600080fd5b50356001600160a01b031661307c565b34801561089657600080fd5b506102166130eb565b3480156108ab57600080fd5b50610275613212565b3480156108c057600080fd5b50610275613221565b3480156108d557600080fd5b50610275613230565b3480156108ea57600080fd5b506102756004803603602081101561090157600080fd5b50356001600160a01b031661323f565b34801561091d57600080fd5b5061021661325a565b34801561093257600080fd5b506102166004803603602081101561094957600080fd5b50356001600160a01b03166132ff565b34801561096557600080fd5b506106eb6004803603608081101561097c57600080fd5b506001600160a01b0381351690602081013590604081013590606001356134ed565b3480156109aa57600080fd5b5061021661375b565b3480156109bf57600080fd5b506102756137b6565b3480156109d457600080fd5b506102756137c5565b6001546001600160a01b03163314610a2a576040805162461bcd60e51b81526020600482015260156024820152600080516020615309833981519152604482015290519081900360640190fd5b610a3e6001600160a01b03841683836137d4565b505050565b6001546001600160a01b031681565b60026000541415610a98576040805162461bcd60e51b815260206004820152601f60248201526000805160206152a3833981519152604482015290519081900360640190fd5b60026000556001546001600160a01b03163314610aea576040805162461bcd60e51b81526020600482015260156024820152600080516020615309833981519152604482015290519081900360640190fd5b6003546001600160a01b031660005b8351811015610b3c57610b3433858381518110610b1257fe5b602002602001015184868581518110610b2757fe5b6020026020010151613826565b600101610af9565b505060016000555050565b60026000541415610b8d576040805162461bcd60e51b815260206004820152601f60248201526000805160206152a3833981519152604482015290519081900360640190fd5b60026000556001546001600160a01b03163314610bdf576040805162461bcd60e51b81526020600482015260156024820152600080516020615309833981519152604482015290519081900360640190fd5b600354610bf990339084906001600160a01b031684613826565b50506001600055565b60026000541415610c48576040805162461bcd60e51b815260206004820152601f60248201526000805160206152a3833981519152604482015290519081900360640190fd5b60026000556001546001600160a01b03163314610c9a576040805162461bcd60e51b81526020600482015260156024820152600080516020615309833981519152604482015290519081900360640190fd5b60005b8151811015610bf957610cc2828281518110610cb557fe5b6020026020010151613a35565b600101610c9d565b60026000541415610d10576040805162461bcd60e51b815260206004820152601f60248201526000805160206152a3833981519152604482015290519081900360640190fd5b60026000556001546001600160a01b03163314610d62576040805162461bcd60e51b81526020600482015260156024820152600080516020615309833981519152604482015290519081900360640190fd5b610d6b81613a35565b506001600055565b6001546001600160a01b03163314610dc0576040805162461bcd60e51b81526020600482015260156024820152600080516020615309833981519152604482015290519081900360640190fd5b600154600160a01b900460ff1615610e095760405162461bcd60e51b81526004018080602001828103825260218152602001806154636021913960400191505060405180910390fd5b6001805460ff60a01b1916600160a01b179055600280546001600160a01b039e8f166001600160a01b031991821617909155600380549d8f169d82169d909d17909c55600480549b8e169b8d169b909b17909a5560058054998d16998c169990991790985560068054978c16978b169790971790965560078054958b16958a169590951790945560088054938a169389169390931790925560098054918916918816919091179055600b8054918816918716919091179055600a8054918716918616919091179055600c8054918616918516919091179055600e8054918516918416919091179055600d8054919093169116179055565b60026000541415610f46576040805162461bcd60e51b815260206004820152601f60248201526000805160206152a3833981519152604482015290519081900360640190fd5b600260009081553390891561107257600e54604080516309f4173d60e11b81526001600160a01b03858116600483018190526024830152915160009392909216916313e82e7a9160448082019260209290919082900301818787803b158015610fae57600080fd5b505af1158015610fc2573d6000803e3d6000fd5b505050506040513d6020811015610fd857600080fd5b5051600d54604080516309f4173d60e11b81526001600160a01b03878116600483018190526024830152915193945060009391909216916313e82e7a91604480830192602092919082900301818787803b15801561103557600080fd5b505af1158015611049573d6000803e3d6000fd5b505050506040513d602081101561105f57600080fd5b5051905061106d8282613a4a565b925050505b88801561107f5750600081115b1561109e5760035461109e90839081906001600160a01b031684613826565b600088156111c357600754604080516309f4173d60e11b81526001600160a01b03868116600483018190526024830152915160009392909216916313e82e7a9160448082019260209290919082900301818787803b1580156110ff57600080fd5b505af1158015611113573d6000803e3d6000fd5b505050506040513d602081101561112957600080fd5b5051600a54604080516309f4173d60e11b81526001600160a01b03888116600483018190526024830152915193945060009391909216916313e82e7a91604480830192602092919082900301818787803b15801561118657600080fd5b505af115801561119a573d6000803e3d6000fd5b505050506040513d60208110156111b057600080fd5b505190506111be8282613a4a565b925050505b8780156111d05750600081115b156111ef576004546111ef90849081906001600160a01b031684613826565b861561130457600854604080516309f4173d60e11b81526001600160a01b03868116600483018190526024830152915160009392909216916313e82e7a9160448082019260209290919082900301818787803b15801561124e57600080fd5b505af1158015611262573d6000803e3d6000fd5b505050506040513d602081101561127857600080fd5b5051905080156113025760095460055460408051631e42d69b60e21b81526001600160a01b038881166004830181905260248301529283166044820152606481018590529051919092169163790b5a6c91608480830192600092919082900301818387803b1580156112e957600080fd5b505af11580156112fd573d6000803e3d6000fd5b505050505b505b851561193457831561169557600954604080516309f4173d60e11b81526001600160a01b038681166004830152306024830152915160009392909216916313e82e7a9160448082019260209290919082900301818787803b15801561136857600080fd5b505af115801561137c573d6000803e3d6000fd5b505050506040513d602081101561139257600080fd5b5051600b54604080516309f4173d60e11b81526001600160a01b038881166004830152306024830152915193945060009391909216916313e82e7a91604480830192602092919082900301818787803b1580156113ee57600080fd5b505af1158015611402573d6000803e3d6000fd5b505050506040513d602081101561141857600080fd5b5051905060006114288383613a4a565b9050801561168d57600254600c546040805163095ea7b360e01b81526001600160a01b039283166004820152602481018590529051919092169163095ea7b39160448083019260209291908290030181600087803b15801561148957600080fd5b505af115801561149d573d6000803e3d6000fd5b505050506040513d60208110156114b357600080fd5b5050600c54600254604080516317eb2a1560e01b81523060048201526001600160a01b038a8116602483015292831660448201526064810185905260006084820181905260a482018190529151919392909216916317eb2a159160c480830192602092919082900301818787803b15801561152d57600080fd5b505af1158015611541573d6000803e3d6000fd5b505050506040513d602081101561155757600080fd5b5051600b5460065460408051631e42d69b60e21b81526001600160a01b038c8116600483018190526024830152928316604482015260648101859052905193945091169163790b5a6c9160848082019260009290919082900301818387803b1580156115c257600080fd5b505af11580156115d6573d6000803e3d6000fd5b5050600a54600b5460408051631e42d69b60e21b81526001600160a01b038d8116600483018190526024830152928316604482015260648101879052905191909216935063790b5a6c9250608480830192600092919082900301818387803b15801561164157600080fd5b505af1158015611655573d6000803e3d6000fd5b5050604080516001600160a01b038b1681526020810185905281516000805160206152c38339815191529450908190039091019150a1505b505050611934565b841561182f57600954604080516309f4173d60e11b81526001600160a01b038681166004830152306024830152915160009392909216916313e82e7a9160448082019260209290919082900301818787803b1580156116f357600080fd5b505af1158015611707573d6000803e3d6000fd5b505050506040513d602081101561171d57600080fd5b5051600b54604080516309f4173d60e11b81526001600160a01b038881166004830152306024830152915193945060009391909216916313e82e7a91604480830192602092919082900301818787803b15801561177957600080fd5b505af115801561178d573d6000803e3d6000fd5b505050506040513d60208110156117a357600080fd5b5051905060006117b38383613a4a565b60025460408051632e1a7d4d60e01b81526004810184905290519293506001600160a01b0390911691632e1a7d4d9160248082019260009290919082900301818387803b15801561180357600080fd5b505af1158015611817573d6000803e3d6000fd5b5061168d925050506001600160a01b03871682613aab565b600954604080516309f4173d60e11b81526001600160a01b03868116600483018190526024830152915191909216916313e82e7a9160448083019260209291908290030181600087803b15801561188557600080fd5b505af1158015611899573d6000803e3d6000fd5b505050506040513d60208110156118af57600080fd5b5050600b54604080516309f4173d60e11b81526001600160a01b03868116600483018190526024830152915191909216916313e82e7a9160448083019260209291908290030181600087803b15801561190757600080fd5b505af115801561191b573d6000803e3d6000fd5b505050506040513d602081101561193157600080fd5b50505b50506001600055505050505050505050565b600154600160a01b900460ff1681565b6002600054141561199c576040805162461bcd60e51b815260206004820152601f60248201526000805160206152a3833981519152604482015290519081900360640190fd5b6002600055600354610d6b9033906001600160a01b0316836001613b90565b6006546001600160a01b031681565b6002546001600160a01b031681565b600e546001600160a01b031681565b60026000541415611a2e576040805162461bcd60e51b815260206004820152601f60248201526000805160206152a3833981519152604482015290519081900360640190fd5b6002600055600354610d6b90339081906001600160a01b031684613826565b60026000541415611a93576040805162461bcd60e51b815260206004820152601f60248201526000805160206152a3833981519152604482015290519081900360640190fd5b60026000908155600954604080516309f4173d60e11b8152336004820181905260248201819052915191936001600160a01b03909316926313e82e7a926044808401936020939083900390910190829087803b158015611af257600080fd5b505af1158015611b06573d6000803e3d6000fd5b505050506040513d6020811015611b1c57600080fd5b5050600b54604080516309f4173d60e11b81526001600160a01b03848116600483018190526024830152915191909216916313e82e7a9160448083019260209291908290030181600087803b158015611b7457600080fd5b505af1158015611b88573d6000803e3d6000fd5b505050506040513d6020811015611b9e57600080fd5b5050600754604080516309f4173d60e11b81526001600160a01b03848116600483018190526024830152915191909216916313e82e7a9160448083019260209291908290030181600087803b158015611bf657600080fd5b505af1158015611c0a573d6000803e3d6000fd5b505050506040513d6020811015611c2057600080fd5b5050600a54604080516309f4173d60e11b81526001600160a01b03848116600483018190526024830152915191909216916313e82e7a9160448083019260209291908290030181600087803b158015611c7857600080fd5b505af1158015611c8c573d6000803e3d6000fd5b505050506040513d6020811015611ca257600080fd5b5050600160005550565b600060026000541415611cf4576040805162461bcd60e51b815260206004820152601f60248201526000805160206152a3833981519152604482015290519081900360640190fd5b600260005583611d39576040805162461bcd60e51b81526020600482018190526024820152600080516020615283833981519152604482015290519081900360640190fd5b600a54600b546040805163098bf59d60e01b815233600482018190526001600160a01b039384166024830152604482018990526064820181905291519193929092169163098bf59d91608480830192600092919082900301818387803b158015611da257600080fd5b505af1158015611db6573d6000803e3d6000fd5b5050600b546006546040805163098bf59d60e01b81526001600160a01b03878116600483018190529381166024830152604482018c90526064820193909352905191909216935063098bf59d9250608480830192600092919082900301818387803b158015611e2457600080fd5b505af1158015611e38573d6000803e3d6000fd5b5050600c54600254604080516371d597ad60e01b81526001600160a01b0387811660048301529283166024820152604481018b9052606481018a90523060848201529051600095509190921692506371d597ad9160a48082019260209290919082900301818787803b158015611ead57600080fd5b505af1158015611ec1573d6000803e3d6000fd5b505050506040513d6020811015611ed757600080fd5b505160025460408051632e1a7d4d60e01b81526004810184905290519293506001600160a01b0390911691632e1a7d4d9160248082019260009290919082900301818387803b158015611f2957600080fd5b505af1158015611f3d573d6000803e3d6000fd5b50611f55925050506001600160a01b03851682613aab565b604080516001600160a01b03841681526020810188905281516000805160206156b6833981519152929181900390910190a1600160005595945050505050565b600060026000541415611fdd576040805162461bcd60e51b815260206004820152601f60248201526000805160206152a3833981519152604482015290519081900360640190fd5b600260005583612022576040805162461bcd60e51b81526020600482018190526024820152600080516020615283833981519152604482015290519081900360640190fd5b600a54600b546040805163098bf59d60e01b815233600482018190526001600160a01b039384166024830152604482018990526064820181905291519193929092169163098bf59d91608480830192600092919082900301818387803b15801561208b57600080fd5b505af115801561209f573d6000803e3d6000fd5b5050600b546006546040805163098bf59d60e01b81526001600160a01b03878116600483018190529381166024830152604482018c90526064820193909352905191909216935063098bf59d9250608480830192600092919082900301818387803b15801561210d57600080fd5b505af1158015612121573d6000803e3d6000fd5b5050600c54604080516371d597ad60e01b81526001600160a01b0386811660048301528b81166024830152604482018b9052606482018a905288811660848301529151600095509190921692506371d597ad9160a48082019260209290919082900301818787803b15801561219557600080fd5b505af11580156121a9573d6000803e3d6000fd5b505050506040513d60208110156121bf57600080fd5b5051604080516001600160a01b03851681526020810189905281519293506000805160206156b6833981519152929081900390910190a160016000559695505050505050565b6002600054141561224b576040805162461bcd60e51b815260206004820152601f60248201526000805160206152a3833981519152604482015290519081900360640190fd5b6002600055600e54604080516370a0823160e01b81526001600160a01b038481166004830152915191909216916370a08231916024808301926020929190829003018186803b15801561229d57600080fd5b505afa1580156122b1573d6000803e3d6000fd5b505050506040513d60208110156122c757600080fd5b5051156123055760405162461bcd60e51b81526004018080602001828103825260268152602001806152e36026913960400191505060405180910390fd5b600d54604080516370a0823160e01b81526001600160a01b038481166004830152915191909216916370a08231916024808301926020929190829003018186803b15801561235257600080fd5b505afa158015612366573d6000803e3d6000fd5b505050506040513d602081101561237c57600080fd5b5051156123ba5760405162461bcd60e51b81526004018080602001828103825260268152602001806152e36026913960400191505060405180910390fd5b6001600160a01b038181166000908152600f602052604090205433911681146124145760405162461bcd60e51b81526004018080602001828103825260248152602001806154e16024913960400191505060405180910390fd5b6001600160a01b0382166000908152600f6020526040902080546001600160a01b0319169055612443816140d2565b61244c82613a35565b60075460035460408051637aeceb1f60e11b81526001600160a01b03868116600483015292831660248201529051600093929092169163f5d9d63e91604480820192602092909190829003018186803b1580156124a857600080fd5b505afa1580156124bc573d6000803e3d6000fd5b505050506040513d60208110156124d257600080fd5b505190508015612510576003546124f69084906001600160a01b0316836000613b90565b60035461251090849084906001600160a01b031684613826565b6007546004805460408051637aeceb1f60e11b81526001600160a01b0388811694820194909452918316602483015251600093929092169163f5d9d63e91604480820192602092909190829003018186803b15801561256e57600080fd5b505afa158015612582573d6000803e3d6000fd5b505050506040513d602081101561259857600080fd5b5051905080156125d6576004546125bc9085906001600160a01b0316836000613b90565b6004546125d690859085906001600160a01b031684613826565b60095460055460408051637aeceb1f60e11b81526001600160a01b03888116600483015292831660248201529051600093929092169163f5d9d63e91604480820192602092909190829003018186803b15801561263257600080fd5b505afa158015612646573d6000803e3d6000fd5b505050506040513d602081101561265c57600080fd5b505190508015612769576009546005546040805163098bf59d60e01b81526001600160a01b038981166004830181905293811660248301526044820186905260648201939093529051919092169163098bf59d91608480830192600092919082900301818387803b1580156126d057600080fd5b505af11580156126e4573d6000803e3d6000fd5b505060095460055460408051631e42d69b60e21b81526001600160a01b038b811660048301528a81166024830152928316604482015260648101879052905191909216935063790b5a6c9250608480830192600092919082900301818387803b15801561275057600080fd5b505af1158015612764573d6000803e3d6000fd5b505050505b6000600460009054906101000a90046001600160a01b03166001600160a01b03166370a08231876040518263ffffffff1660e01b815260040180826001600160a01b0316815260200191505060206040518083038186803b1580156127cd57600080fd5b505afa1580156127e1573d6000803e3d6000fd5b505050506040513d60208110156127f757600080fd5b5051905080156128905760048054604080516323b872dd60e01b81526001600160a01b038a811694820194909452888416602482015260448101859052905192909116916323b872dd916064808201926020929091908290030181600087803b15801561286357600080fd5b505af1158015612877573d6000803e3d6000fd5b505050506040513d602081101561288d57600080fd5b50505b600b5460065460408051637aeceb1f60e11b81526001600160a01b038a8116600483015292831660248201529051600093929092169163f5d9d63e91604480820192602092909190829003018186803b1580156128ec57600080fd5b505afa158015612900573d6000803e3d6000fd5b505050506040513d602081101561291657600080fd5b505190508015612b2457600a54600b546040805163098bf59d60e01b81526001600160a01b038b81166004830181905293811660248301526044820186905260648201939093529051919092169163098bf59d91608480830192600092919082900301818387803b15801561298a57600080fd5b505af115801561299e573d6000803e3d6000fd5b5050600b546006546040805163098bf59d60e01b81526001600160a01b038d8116600483018190529381166024830152604482018890526064820193909352905191909216935063098bf59d9250608480830192600092919082900301818387803b158015612a0c57600080fd5b505af1158015612a20573d6000803e3d6000fd5b5050600b5460065460408051631e42d69b60e21b81526001600160a01b038d811660048301528c81166024830152928316604482015260648101879052905191909216935063790b5a6c9250608480830192600092919082900301818387803b158015612a8c57600080fd5b505af1158015612aa0573d6000803e3d6000fd5b5050600a54600b5460408051631e42d69b60e21b81526001600160a01b038c8116600483018190526024830152928316604482015260648101879052905191909216935063790b5a6c9250608480830192600092919082900301818387803b158015612b0b57600080fd5b505af1158015612b1f573d6000803e3d6000fd5b505050505b600e5460408051630f713c2360e41b81526001600160a01b038a8116600483015289811660248301529151919092169163f713c23091604480830192600092919082900301818387803b158015612b7a57600080fd5b505af1158015612b8e573d6000803e3d6000fd5b5050600d5460408051630f713c2360e41b81526001600160a01b038c811660048301528b81166024830152915191909216935063f713c2309250604480830192600092919082900301818387803b158015612be857600080fd5b505af1158015611934573d6000803e3d6000fd5b60026000541415612c42576040805162461bcd60e51b815260206004820152601f60248201526000805160206152a3833981519152604482015290519081900360640190fd5b6002600055600454610d6b90339081906001600160a01b031684613826565b6005546001600160a01b031681565b6009546001600160a01b031681565b6003546001600160a01b031681565b600060026000541415612cd6576040805162461bcd60e51b815260206004820152601f60248201526000805160206152a3833981519152604482015290519081900360640190fd5b600260005534612d2d576040805162461bcd60e51b815260206004820152601f60248201527f526577617264526f757465723a20696e76616c6964206d73672e76616c756500604482015290519081900360640190fd5b600260009054906101000a90046001600160a01b03166001600160a01b031663d0e30db0346040518263ffffffff1660e01b81526004016000604051808303818588803b158015612d7d57600080fd5b505af1158015612d91573d6000803e3d6000fd5b5050600254600c546040805163095ea7b360e01b81526001600160a01b039283166004820152346024820152905191909216945063095ea7b39350604480830193506020928290030181600087803b158015612dec57600080fd5b505af1158015612e00573d6000803e3d6000fd5b505050506040513d6020811015612e1657600080fd5b5050600c54600254604080516317eb2a1560e01b815230600482015233602482018190526001600160a01b0393841660448301523460648301526084820188905260a482018790529151919360009316916317eb2a159160c48082019260209290919082900301818787803b158015612e8e57600080fd5b505af1158015612ea2573d6000803e3d6000fd5b505050506040513d6020811015612eb857600080fd5b5051600b5460065460408051631e42d69b60e21b81526001600160a01b03878116600483018190526024830152928316604482015260648101859052905193945091169163790b5a6c9160848082019260009290919082900301818387803b158015612f2357600080fd5b505af1158015612f37573d6000803e3d6000fd5b5050600a54600b5460408051631e42d69b60e21b81526001600160a01b03888116600483018190526024830152928316604482015260648101879052905191909216935063790b5a6c9250608480830192600092919082900301818387803b158015612fa257600080fd5b505af1158015612fb6573d6000803e3d6000fd5b5050604080516001600160a01b03861681526020810185905281516000805160206152c38339815191529450908190039091019150a16001600055949350505050565b600d546001600160a01b031681565b6002600054141561304e576040805162461bcd60e51b815260206004820152601f60248201526000805160206152a3833981519152604482015290519081900360640190fd5b6002600055600454610d6b9033906001600160a01b0316836001613b90565b600c546001600160a01b031681565b6001546001600160a01b031633146130c9576040805162461bcd60e51b81526020600482015260156024820152600080516020615309833981519152604482015290519081900360640190fd5b600180546001600160a01b0319166001600160a01b0392909216919091179055565b60026000541415613131576040805162461bcd60e51b815260206004820152601f60248201526000805160206152a3833981519152604482015290519081900360640190fd5b60026000908155600954604080516309f4173d60e11b8152336004820181905260248201819052915191936001600160a01b03909316926313e82e7a926044808401936020939083900390910190829087803b15801561319057600080fd5b505af11580156131a4573d6000803e3d6000fd5b505050506040513d60208110156131ba57600080fd5b5050600b54604080516309f4173d60e11b81526001600160a01b03848116600483018190526024830152915191909216916313e82e7a9160448083019260209291908290030181600087803b158015611c7857600080fd5b600a546001600160a01b031681565b6008546001600160a01b031681565b6004546001600160a01b031681565b600f602052600090815260409020546001600160a01b031681565b600260005414156132a0576040805162461bcd60e51b815260206004820152601f60248201526000805160206152a3833981519152604482015290519081900360640190fd5b60026000908155600754604080516309f4173d60e11b8152336004820181905260248201819052915191936001600160a01b03909316926313e82e7a926044808401936020939083900390910190829087803b158015611bf657600080fd5b60026000541415613345576040805162461bcd60e51b815260206004820152601f60248201526000805160206152a3833981519152604482015290519081900360640190fd5b6002600055600e54604080516370a0823160e01b815233600482015290516001600160a01b03909216916370a0823191602480820192602092909190829003018186803b15801561339557600080fd5b505afa1580156133a9573d6000803e3d6000fd5b505050506040513d60208110156133bf57600080fd5b5051156133fd5760405162461bcd60e51b81526004018080602001828103825260268152602001806152e36026913960400191505060405180910390fd5b600d54604080516370a0823160e01b815233600482015290516001600160a01b03909216916370a0823191602480820192602092909190829003018186803b15801561344857600080fd5b505afa15801561345c573d6000803e3d6000fd5b505050506040513d602081101561347257600080fd5b5051156134b05760405162461bcd60e51b81526004018080602001828103825260268152602001806152e36026913960400191505060405180910390fd5b6134b9816140d2565b336000908152600f6020526040812080546001600160a01b0319166001600160a01b03939093169290921790915560019055565b600060026000541415613535576040805162461bcd60e51b815260206004820152601f60248201526000805160206152a3833981519152604482015290519081900360640190fd5b60026000558361357a576040805162461bcd60e51b815260206004820152601d60248201526000805160206156d6833981519152604482015290519081900360640190fd5b600c54604080516317eb2a1560e01b81523360048201819052602482018190526001600160a01b038981166044840152606483018990526084830188905260a483018790529251909360009316916317eb2a159160c480830192602092919082900301818787803b1580156135ee57600080fd5b505af1158015613602573d6000803e3d6000fd5b505050506040513d602081101561361857600080fd5b5051600b5460065460408051631e42d69b60e21b81526001600160a01b03878116600483018190526024830152928316604482015260648101859052905193945091169163790b5a6c9160848082019260009290919082900301818387803b15801561368357600080fd5b505af1158015613697573d6000803e3d6000fd5b5050600a54600b5460408051631e42d69b60e21b81526001600160a01b03888116600483018190526024830152928316604482015260648101879052905191909216935063790b5a6c9250608480830192600092919082900301818387803b15801561370257600080fd5b505af1158015613716573d6000803e3d6000fd5b5050604080516001600160a01b03861681526020810185905281516000805160206152c38339815191529450908190039091019150a160016000559695505050505050565b600260005414156137a1576040805162461bcd60e51b815260206004820152601f60248201526000805160206152a3833981519152604482015290519081900360640190fd5b60026000556137af33613a35565b6001600055565b6007546001600160a01b031681565b600b546001600160a01b031681565b604080516001600160a01b038416602482015260448082018490528251808303909101815260649091019091526020810180516001600160e01b031663a9059cbb60e01b179052610a3e908490614c22565b60008111613869576040805162461bcd60e51b815260206004820152601d60248201526000805160206156d6833981519152604482015290519081900360640190fd5b60075460408051631e42d69b60e21b81526001600160a01b03878116600483015286811660248301528581166044830152606482018590529151919092169163790b5a6c91608480830192600092919082900301818387803b1580156138ce57600080fd5b505af11580156138e2573d6000803e3d6000fd5b505060085460075460408051631e42d69b60e21b81526001600160a01b03898116600483018190526024830152928316604482015260648101879052905191909216935063790b5a6c9250608480830192600092919082900301818387803b15801561394d57600080fd5b505af1158015613961573d6000803e3d6000fd5b505060095460085460408051631e42d69b60e21b81526001600160a01b03898116600483018190526024830152928316604482015260648101879052905191909216935063790b5a6c9250608480830192600092919082900301818387803b1580156139cc57600080fd5b505af11580156139e0573d6000803e3d6000fd5b5050604080516001600160a01b0380881682528616602082015280820185905290517fb2ad2d224e99c91da39bb252ac0fbd284bbd037a10c1e2618c0b69bf8509a66f9350908190036060019150a150505050565b613a3e81614cd3565b613a4781614e8b565b50565b600082820183811015613aa2576040805162461bcd60e51b815260206004820152601b60248201527a536166654d6174683a206164646974696f6e206f766572666c6f7760281b604482015290519081900360640190fd5b90505b92915050565b80471015613b00576040805162461bcd60e51b815260206004820152601d60248201527f416464726573733a20696e73756666696369656e742062616c616e6365000000604482015290519081900360640190fd5b6040516000906001600160a01b0384169083908381818185875af1925050503d8060008114613b4b576040519150601f19603f3d011682016040523d82523d6000602084013e613b50565b606091505b5050905080610a3e5760405162461bcd60e51b815260040180806020018281038252603a815260200180615429603a913960400191505060405180910390fd5b60008211613bd3576040805162461bcd60e51b815260206004820152601d60248201526000805160206156d6833981519152604482015290519081900360640190fd5b600754604080516310c1c10360e01b81526001600160a01b038781166004830152915160009392909216916310c1c10391602480820192602092909190829003018186803b158015613c2457600080fd5b505afa158015613c38573d6000803e3d6000fd5b505050506040513d6020811015613c4e57600080fd5b50516009546008546040805163098bf59d60e01b81526001600160a01b038a8116600483018190529381166024830152604482018990526064820193909352905193945091169163098bf59d9160848082019260009290919082900301818387803b158015613cbc57600080fd5b505af1158015613cd0573d6000803e3d6000fd5b50506008546007546040805163098bf59d60e01b81526001600160a01b038b8116600483018190529381166024830152604482018a90526064820193909352905191909216935063098bf59d9250608480830192600092919082900301818387803b158015613d3e57600080fd5b505af1158015613d52573d6000803e3d6000fd5b50506007546040805163098bf59d60e01b81526001600160a01b038a8116600483018190528a82166024840152604483018a90526064830152915191909216935063098bf59d9250608480830192600092919082900301818387803b158015613dba57600080fd5b505af1158015613dce573d6000803e3d6000fd5b50505050811561408157600854604080516309f4173d60e11b81526001600160a01b03888116600483018190526024830152915160009392909216916313e82e7a9160448082019260209290919082900301818787803b158015613e3157600080fd5b505af1158015613e45573d6000803e3d6000fd5b505050506040513d6020811015613e5b57600080fd5b505190508015613ee55760095460055460408051631e42d69b60e21b81526001600160a01b038a81166004830181905260248301529283166044820152606481018590529051919092169163790b5a6c91608480830192600092919082900301818387803b158015613ecc57600080fd5b505af1158015613ee0573d6000803e3d6000fd5b505050505b60095460055460408051637aeceb1f60e11b81526001600160a01b038a8116600483015292831660248201529051600093929092169163f5d9d63e91604480820192602092909190829003018186803b158015613f4157600080fd5b505afa158015613f55573d6000803e3d6000fd5b505050506040513d6020811015613f6b57600080fd5b50519050801561407e576000613f8b84613f858489614f36565b90614f8f565b6009546005546040805163098bf59d60e01b81526001600160a01b038d8116600483018190529381166024830152604482018690526064820193909352905193945091169163098bf59d9160848082019260009290919082900301818387803b158015613ff757600080fd5b505af115801561400b573d6000803e3d6000fd5b505060055460408051632770a7eb60e21b81526001600160a01b038d81166004830152602482018790529151919092169350639dc29fac9250604480830192600092919082900301818387803b15801561406457600080fd5b505af1158015614078573d6000803e3d6000fd5b50505050505b50505b604080516001600160a01b0380881682528616602082015280820185905290517f53db4328bb4bf5c5e46932d3ab2da63d3751d824b10d4f1f3f7a652f590956d09181900360600190a15050505050565b6007546040805163a318021760e01b81526001600160a01b0384811660048301529151919092169163a3180217916024808301926020929190829003018186803b15801561411f57600080fd5b505afa158015614133573d6000803e3d6000fd5b505050506040513d602081101561414957600080fd5b5051156141875760405162461bcd60e51b81526004018080602001828103825260378152602001806155286037913960400191505060405180910390fd5b60075460408051633792def360e01b81526001600160a01b03848116600483015291519190921691633792def3916024808301926020929190829003018186803b1580156141d457600080fd5b505afa1580156141e8573d6000803e3d6000fd5b505050506040513d60208110156141fe57600080fd5b50511561423c5760405162461bcd60e51b81526004018080602001828103825260348152602001806156586034913960400191505060405180910390fd5b6008546040805163a318021760e01b81526001600160a01b0384811660048301529151919092169163a3180217916024808301926020929190829003018186803b15801561428957600080fd5b505afa15801561429d573d6000803e3d6000fd5b505050506040513d60208110156142b357600080fd5b5051156142f15760405162461bcd60e51b815260040180806020018281038252603681526020018061535d6036913960400191505060405180910390fd5b60085460408051633792def360e01b81526001600160a01b03848116600483015291519190921691633792def3916024808301926020929190829003018186803b15801561433e57600080fd5b505afa158015614352573d6000803e3d6000fd5b505050506040513d602081101561436857600080fd5b5051156143a65760405162461bcd60e51b815260040180806020018281038252603381526020018061572a6033913960400191505060405180910390fd5b6009546040805163a318021760e01b81526001600160a01b0384811660048301529151919092169163a3180217916024808301926020929190829003018186803b1580156143f357600080fd5b505afa158015614407573d6000803e3d6000fd5b505050506040513d602081101561441d57600080fd5b50511561445b5760405162461bcd60e51b81526004018080602001828103825260348152602001806155806034913960400191505060405180910390fd5b60095460408051633792def360e01b81526001600160a01b03848116600483015291519190921691633792def3916024808301926020929190829003018186803b1580156144a857600080fd5b505afa1580156144bc573d6000803e3d6000fd5b505050506040513d60208110156144d257600080fd5b5051156145105760405162461bcd60e51b81526004018080602001828103825260318152602001806152526031913960400191505060405180910390fd5b600e5460408051631ccdc0d760e21b81526001600160a01b03848116600483015291519190921691637337035c916024808301926020929190829003018186803b15801561455d57600080fd5b505afa158015614571573d6000803e3d6000fd5b505050506040513d602081101561458757600080fd5b5051156145c55760405162461bcd60e51b815260040180806020018281038252603b8152602001806153ee603b913960400191505060405180910390fd5b600e5460408051635b8de71560e11b81526001600160a01b0384811660048301529151919092169163b71bce2a916024808301926020929190829003018186803b15801561461257600080fd5b505afa158015614626573d6000803e3d6000fd5b505050506040513d602081101561463c57600080fd5b50511561467a5760405162461bcd60e51b81526004018080602001828103825260388152602001806155ef6038913960400191505060405180910390fd5b600a546040805163a318021760e01b81526001600160a01b0384811660048301529151919092169163a3180217916024808301926020929190829003018186803b1580156146c757600080fd5b505afa1580156146db573d6000803e3d6000fd5b505050506040513d60208110156146f157600080fd5b50511561472f5760405162461bcd60e51b81526004018080602001828103825260378152602001806154aa6037913960400191505060405180910390fd5b600a5460408051633792def360e01b81526001600160a01b03848116600483015291519190921691633792def3916024808301926020929190829003018186803b15801561477c57600080fd5b505afa158015614790573d6000803e3d6000fd5b505050506040513d60208110156147a657600080fd5b5051156147e45760405162461bcd60e51b81526004018080602001828103825260348152602001806153296034913960400191505060405180910390fd5b600b546040805163a318021760e01b81526001600160a01b0384811660048301529151919092169163a3180217916024808301926020929190829003018186803b15801561483157600080fd5b505afa158015614845573d6000803e3d6000fd5b505050506040513d602081101561485b57600080fd5b5051156148995760405162461bcd60e51b81526004018080602001828103825260348152602001806156f66034913960400191505060405180910390fd5b600b5460408051633792def360e01b81526001600160a01b03848116600483015291519190921691633792def3916024808301926020929190829003018186803b1580156148e657600080fd5b505afa1580156148fa573d6000803e3d6000fd5b505050506040513d602081101561491057600080fd5b50511561494e5760405162461bcd60e51b81526004018080602001828103825260318152602001806156276031913960400191505060405180910390fd5b600d5460408051631ccdc0d760e21b81526001600160a01b03848116600483015291519190921691637337035c916024808301926020929190829003018186803b15801561499b57600080fd5b505afa1580156149af573d6000803e3d6000fd5b505050506040513d60208110156149c557600080fd5b505115614a035760405162461bcd60e51b815260040180806020018281038252603b8152602001806155b4603b913960400191505060405180910390fd5b600d5460408051635b8de71560e11b81526001600160a01b0384811660048301529151919092169163b71bce2a916024808301926020929190829003018186803b158015614a5057600080fd5b505afa158015614a64573d6000803e3d6000fd5b505050506040513d6020811015614a7a57600080fd5b505115614ab85760405162461bcd60e51b81526004018080602001828103825260388152602001806153b66038913960400191505060405180910390fd5b600e54604080516370a0823160e01b81526001600160a01b038481166004830152915191909216916370a08231916024808301926020929190829003018186803b158015614b0557600080fd5b505afa158015614b19573d6000803e3d6000fd5b505050506040513d6020811015614b2f57600080fd5b505115614b6d5760405162461bcd60e51b81526004018080602001828103825260238152602001806155056023913960400191505060405180910390fd5b600d54604080516370a0823160e01b81526001600160a01b038481166004830152915191909216916370a08231916024808301926020929190829003018186803b158015614bba57600080fd5b505afa158015614bce573d6000803e3d6000fd5b505050506040513d6020811015614be457600080fd5b505115613a475760405162461bcd60e51b81526004018080602001828103825260238152602001806153936023913960400191505060405180910390fd5b6060614c77826040518060400160405280602081526020017f5361666545524332303a206c6f772d6c6576656c2063616c6c206661696c6564815250856001600160a01b0316614fce9092919063ffffffff16565b805190915015610a3e57808060200190516020811015614c9657600080fd5b5051610a3e5760405162461bcd60e51b815260040180806020018281038252602a81526020018061568c602a913960400191505060405180910390fd5b600754604080516309f4173d60e11b81526001600160a01b03848116600483018190526024830152915160009392909216916313e82e7a9160448082019260209290919082900301818787803b158015614d2c57600080fd5b505af1158015614d40573d6000803e3d6000fd5b505050506040513d6020811015614d5657600080fd5b505190508015614d7a57600454614d7a90839081906001600160a01b031684613826565b600854604080516309f4173d60e11b81526001600160a01b03858116600483018190526024830152915160009392909216916313e82e7a9160448082019260209290919082900301818787803b158015614dd357600080fd5b505af1158015614de7573d6000803e3d6000fd5b505050506040513d6020811015614dfd57600080fd5b505190508015610a3e5760095460055460408051631e42d69b60e21b81526001600160a01b038781166004830181905260248301529283166044820152606481018590529051919092169163790b5a6c91608480830192600092919082900301818387803b158015614e6e57600080fd5b505af1158015614e82573d6000803e3d6000fd5b50505050505050565b600a54604080516309f4173d60e11b81526001600160a01b03848116600483018190526024830152915160009392909216916313e82e7a9160448082019260209290919082900301818787803b158015614ee457600080fd5b505af1158015614ef8573d6000803e3d6000fd5b505050506040513d6020811015614f0e57600080fd5b505190508015614f3257600454614f3290839081906001600160a01b031684613826565b5050565b600082614f4557506000613aa5565b82820282848281614f5257fe5b0414613aa25760405162461bcd60e51b815260040180806020018281038252602181526020018061555f6021913960400191505060405180910390fd5b6000613aa283836040518060400160405280601a815260200179536166654d6174683a206469766973696f6e206279207a65726f60301b815250614fe7565b6060614fdd8484600085615089565b90505b9392505050565b600081836150735760405162461bcd60e51b81526004018080602001828103825283818151815260200191508051906020019080838360005b83811015615038578181015183820152602001615020565b50505050905090810190601f1680156150655780820380516001836020036101000a031916815260200191505b509250505060405180910390fd5b50600083858161507f57fe5b0495945050505050565b6060824710156150ca5760405162461bcd60e51b81526004018080602001828103825260268152602001806154846026913960400191505060405180910390fd5b6150d3856151e5565b615124576040805162461bcd60e51b815260206004820152601d60248201527f416464726573733a2063616c6c20746f206e6f6e2d636f6e7472616374000000604482015290519081900360640190fd5b60006060866001600160a01b031685876040518082805190602001908083835b602083106151635780518252601f199092019160209182019101615144565b6001836020036101000a03801982511681845116808217855250505050505090500191505060006040518083038185875af1925050503d80600081146151c5576040519150601f19603f3d011682016040523d82523d6000602084013e6151ca565b606091505b50915091506151da8282866151eb565b979650505050505050565b3b151590565b606083156151fa575081614fe0565b82511561520a5782518084602001fd5b60405162461bcd60e51b815260206004820181815284516024840152845185939192839260440191908501908083836000831561503857818101518382015260200161502056fe526577617264526f757465723a206665654d7963547261636b65722e63756d756c617469766552657761726473203e2030526577617264526f757465723a20696e76616c6964205f6d6c70416d6f756e745265656e7472616e637947756172643a207265656e7472616e742063616c6c007d6d7cfda37a857e91ee28f4cd0b7aa06fe8be7a7f3c4fed676140a76365a542526577617264526f757465723a2073656e646572206861732076657374656420746f6b656e73476f7665726e61626c653a20666f7262696464656e0000000000000000000000526577617264526f757465723a207374616b65644d6c70547261636b65722e63756d756c617469766552657761726473203e2030526577617264526f757465723a20626f6e75734d7963547261636b65722e617665726167655374616b6564416d6f756e7473203e2030526577617264526f757465723a206d6c705665737465722e62616c616e6365203e2030526577617264526f757465723a206d6c705665737465722e7472616e7366657272656443756d756c617469766552657761726473203e2030526577617264526f757465723a206d79635665737465722e7472616e73666572726564417665726167655374616b6564416d6f756e7473203e2030416464726573733a20756e61626c6520746f2073656e642076616c75652c20726563697069656e74206d61792068617665207265766572746564526577617264526f757465723a20616c726561647920696e697469616c697a6564416464726573733a20696e73756666696369656e742062616c616e636520666f722063616c6c526577617264526f757465723a207374616b65644d6c70547261636b65722e617665726167655374616b6564416d6f756e7473203e2030526577617264526f757465723a207472616e73666572206e6f74207369676e616c6c6564526577617264526f757465723a206d79635665737465722e62616c616e6365203e2030526577617264526f757465723a207374616b65644d7963547261636b65722e617665726167655374616b6564416d6f756e7473203e2030536166654d6174683a206d756c7469706c69636174696f6e206f766572666c6f77526577617264526f757465723a206665654d7963547261636b65722e617665726167655374616b6564416d6f756e7473203e2030526577617264526f757465723a206d6c705665737465722e7472616e73666572726564417665726167655374616b6564416d6f756e7473203e2030526577617264526f757465723a206d79635665737465722e7472616e7366657272656443756d756c617469766552657761726473203e2030526577617264526f757465723a206665654d6c70547261636b65722e63756d756c617469766552657761726473203e2030526577617264526f757465723a207374616b65644d7963547261636b65722e63756d756c617469766552657761726473203e20305361666545524332303a204552433230206f7065726174696f6e20646964206e6f742073756363656564cc7cb940d1fa10f6c95397bd7355aef0bad1b89bfc9cd922162720bff9110094526577617264526f757465723a20696e76616c6964205f616d6f756e74000000526577617264526f757465723a206665654d6c70547261636b65722e617665726167655374616b6564416d6f756e7473203e2030526577617264526f757465723a20626f6e75734d7963547261636b65722e63756d756c617469766552657761726473203e2030a2646970667358221220bca65db260041209710797aa3d03a6b874c75f3723bffc88322953f1b956760564736f6c634300060c0033",
  "linkReferences": {},
  "deployedLinkReferences": {}
}