{
  "_format": "hh-sol-artifact-1",
  "contractName": "RewardRouterV2",
  "sourceName": "contracts/staking/RewardRouterV2.sol",
  "abi": [
    {
      "anonymous": false,
      "inputs": [
        {
          "indexed": false,
          "internalType": "address",
          "name": "account",
          "type": "address"
        },
        {
          "indexed": false,
          "internalType": "uint256",
          "name": "amount",
          "type": "uint256"
        }
      ],
      "name": "StakeGlp",
      "type": "event"
    },
    {
      "anonymous": false,
      "inputs": [
        {
          "indexed": false,
          "internalType": "address",
          "name": "account",
          "type": "address"
        },
        {
          "indexed": false,
          "internalType": "address",
          "name": "token",
          "type": "address"
        },
        {
          "indexed": false,
          "internalType": "uint256",
          "name": "amount",
          "type": "uint256"
        }
      ],
      "name": "StakeGmx",
      "type": "event"
    },
    {
      "anonymous": false,
      "inputs": [
        {
          "indexed": false,
          "internalType": "address",
          "name": "account",
          "type": "address"
        },
        {
          "indexed": false,
          "internalType": "uint256",
          "name": "amount",
          "type": "uint256"
        }
      ],
      "name": "UnstakeGlp",
      "type": "event"
    },
    {
      "anonymous": false,
      "inputs": [
        {
          "indexed": false,
          "internalType": "address",
          "name": "account",
          "type": "address"
        },
        {
          "indexed": false,
          "internalType": "address",
          "name": "token",
          "type": "address"
        },
        {
          "indexed": false,
          "internalType": "uint256",
          "name": "amount",
          "type": "uint256"
        }
      ],
      "name": "UnstakeGmx",
      "type": "event"
    },
    {
      "inputs": [
        {
          "internalType": "address",
          "name": "_sender",
          "type": "address"
        }
      ],
      "name": "acceptTransfer",
      "outputs": [],
      "stateMutability": "nonpayable",
      "type": "function"
    },
    {
      "inputs": [
        {
          "internalType": "address[]",
          "name": "_accounts",
          "type": "address[]"
        }
      ],
      "name": "batchCompoundForAccounts",
      "outputs": [],
      "stateMutability": "nonpayable",
      "type": "function"
    },
    {
      "inputs": [
        {
          "internalType": "address[]",
          "name": "_accounts",
          "type": "address[]"
        },
        {
          "internalType": "uint256[]",
          "name": "_amounts",
          "type": "uint256[]"
        }
      ],
      "name": "batchStakeGmxForAccount",
      "outputs": [],
      "stateMutability": "nonpayable",
      "type": "function"
    },
    {
      "inputs": [],
      "name": "bnGmx",
      "outputs": [
        {
          "internalType": "address",
          "name": "",
          "type": "address"
        }
      ],
      "stateMutability": "view",
      "type": "function"
    },
    {
      "inputs": [],
      "name": "bonusGmxTracker",
      "outputs": [
        {
          "internalType": "address",
          "name": "",
          "type": "address"
        }
      ],
      "stateMutability": "view",
      "type": "function"
    },
    {
      "inputs": [],
      "name": "claim",
      "outputs": [],
      "stateMutability": "nonpayable",
      "type": "function"
    },
    {
      "inputs": [],
      "name": "claimEsGmx",
      "outputs": [],
      "stateMutability": "nonpayable",
      "type": "function"
    },
    {
      "inputs": [],
      "name": "claimFees",
      "outputs": [],
      "stateMutability": "nonpayable",
      "type": "function"
    },
    {
      "inputs": [],
      "name": "compound",
      "outputs": [],
      "stateMutability": "nonpayable",
      "type": "function"
    },
    {
      "inputs": [
        {
          "internalType": "address",
          "name": "_account",
          "type": "address"
        }
      ],
      "name": "compoundForAccount",
      "outputs": [],
      "stateMutability": "nonpayable",
      "type": "function"
    },
    {
      "inputs": [],
      "name": "esGmx",
      "outputs": [
        {
          "internalType": "address",
          "name": "",
          "type": "address"
        }
      ],
      "stateMutability": "view",
      "type": "function"
    },
    {
      "inputs": [],
      "name": "feeGlpTracker",
      "outputs": [
        {
          "internalType": "address",
          "name": "",
          "type": "address"
        }
      ],
      "stateMutability": "view",
      "type": "function"
    },
    {
      "inputs": [],
      "name": "feeGmxTracker",
      "outputs": [
        {
          "internalType": "address",
          "name": "",
          "type": "address"
        }
      ],
      "stateMutability": "view",
      "type": "function"
    },
    {
      "inputs": [],
      "name": "glp",
      "outputs": [
        {
          "internalType": "address",
          "name": "",
          "type": "address"
        }
      ],
      "stateMutability": "view",
      "type": "function"
    },
    {
      "inputs": [],
      "name": "glpManager",
      "outputs": [
        {
          "internalType": "address",
          "name": "",
          "type": "address"
        }
      ],
      "stateMutability": "view",
      "type": "function"
    },
    {
      "inputs": [],
      "name": "glpVester",
      "outputs": [
        {
          "internalType": "address",
          "name": "",
          "type": "address"
        }
      ],
      "stateMutability": "view",
      "type": "function"
    },
    {
      "inputs": [],
      "name": "gmx",
      "outputs": [
        {
          "internalType": "address",
          "name": "",
          "type": "address"
        }
      ],
      "stateMutability": "view",
      "type": "function"
    },
    {
      "inputs": [],
      "name": "gmxVester",
      "outputs": [
        {
          "internalType": "address",
          "name": "",
          "type": "address"
        }
      ],
      "stateMutability": "view",
      "type": "function"
    },
    {
      "inputs": [],
      "name": "gov",
      "outputs": [
        {
          "internalType": "address",
          "name": "",
          "type": "address"
        }
      ],
      "stateMutability": "view",
      "type": "function"
    },
    {
      "inputs": [
        {
          "internalType": "bool",
          "name": "_shouldClaimGmx",
          "type": "bool"
        },
        {
          "internalType": "bool",
          "name": "_shouldStakeGmx",
          "type": "bool"
        },
        {
          "internalType": "bool",
          "name": "_shouldClaimEsGmx",
          "type": "bool"
        },
        {
          "internalType": "bool",
          "name": "_shouldStakeEsGmx",
          "type": "bool"
        },
        {
          "internalType": "bool",
          "name": "_shouldStakeMultiplierPoints",
          "type": "bool"
        },
        {
          "internalType": "bool",
          "name": "_shouldClaimWeth",
          "type": "bool"
        },
        {
          "internalType": "bool",
          "name": "_shouldConvertWethToEth",
          "type": "bool"
        },
        {
          "internalType": "bool",
          "name": "_shouldBuyGlpWithWeth",
          "type": "bool"
        }
      ],
      "name": "handleRewards",
      "outputs": [],
      "stateMutability": "nonpayable",
      "type": "function"
    },
    {
      "inputs": [
        {
          "internalType": "address",
          "name": "_weth",
          "type": "address"
        },
        {
          "internalType": "address",
          "name": "_gmx",
          "type": "address"
        },
        {
          "internalType": "address",
          "name": "_esGmx",
          "type": "address"
        },
        {
          "internalType": "address",
          "name": "_bnGmx",
          "type": "address"
        },
        {
          "internalType": "address",
          "name": "_glp",
          "type": "address"
        },
        {
          "internalType": "address",
          "name": "_stakedGmxTracker",
          "type": "address"
        },
        {
          "internalType": "address",
          "name": "_bonusGmxTracker",
          "type": "address"
        },
        {
          "internalType": "address",
          "name": "_feeGmxTracker",
          "type": "address"
        },
        {
          "internalType": "address",
          "name": "_feeGlpTracker",
          "type": "address"
        },
        {
          "internalType": "address",
          "name": "_stakedGlpTracker",
          "type": "address"
        },
        {
          "internalType": "address",
          "name": "_glpManager",
          "type": "address"
        },
        {
          "internalType": "address",
          "name": "_gmxVester",
          "type": "address"
        },
        {
          "internalType": "address",
          "name": "_glpVester",
          "type": "address"
        }
      ],
      "name": "initialize",
      "outputs": [],
      "stateMutability": "nonpayable",
      "type": "function"
    },
    {
      "inputs": [],
      "name": "isInitialized",
      "outputs": [
        {
          "internalType": "bool",
          "name": "",
          "type": "bool"
        }
      ],
      "stateMutability": "view",
      "type": "function"
    },
    {
      "inputs": [
        {
          "internalType": "address",
          "name": "_token",
          "type": "address"
        },
        {
          "internalType": "uint256",
          "name": "_amount",
          "type": "uint256"
        },
        {
          "internalType": "uint256",
          "name": "_minUsdg",
          "type": "uint256"
        },
        {
          "internalType": "uint256",
          "name": "_minGlp",
          "type": "uint256"
        }
      ],
      "name": "mintAndStakeGlp",
      "outputs": [
        {
          "internalType": "uint256",
          "name": "",
          "type": "uint256"
        }
      ],
      "stateMutability": "nonpayable",
      "type": "function"
    },
    {
      "inputs": [
        {
          "internalType": "uint256",
          "name": "_minUsdg",
          "type": "uint256"
        },
        {
          "internalType": "uint256",
          "name": "_minGlp",
          "type": "uint256"
        }
      ],
      "name": "mintAndStakeGlpETH",
      "outputs": [
        {
          "internalType": "uint256",
          "name": "",
          "type": "uint256"
        }
      ],
      "stateMutability": "payable",
      "type": "function"
    },
    {
      "inputs": [
        {
          "internalType": "address",
          "name": "",
          "type": "address"
        }
      ],
      "name": "pendingReceivers",
      "outputs": [
        {
          "internalType": "address",
          "name": "",
          "type": "address"
        }
      ],
      "stateMutability": "view",
      "type": "function"
    },
    {
      "inputs": [
        {
          "internalType": "address",
          "name": "_gov",
          "type": "address"
        }
      ],
      "name": "setGov",
      "outputs": [],
      "stateMutability": "nonpayable",
      "type": "function"
    },
    {
      "inputs": [
        {
          "internalType": "address",
          "name": "_receiver",
          "type": "address"
        }
      ],
      "name": "signalTransfer",
      "outputs": [],
      "stateMutability": "nonpayable",
      "type": "function"
    },
    {
      "inputs": [
        {
          "internalType": "uint256",
          "name": "_amount",
          "type": "uint256"
        }
      ],
      "name": "stakeEsGmx",
      "outputs": [],
      "stateMutability": "nonpayable",
      "type": "function"
    },
    {
      "inputs": [
        {
          "internalType": "uint256",
          "name": "_amount",
          "type": "uint256"
        }
      ],
      "name": "stakeGmx",
      "outputs": [],
      "stateMutability": "nonpayable",
      "type": "function"
    },
    {
      "inputs": [
        {
          "internalType": "address",
          "name": "_account",
          "type": "address"
        },
        {
          "internalType": "uint256",
          "name": "_amount",
          "type": "uint256"
        }
      ],
      "name": "stakeGmxForAccount",
      "outputs": [],
      "stateMutability": "nonpayable",
      "type": "function"
    },
    {
      "inputs": [],
      "name": "stakedGlpTracker",
      "outputs": [
        {
          "internalType": "address",
          "name": "",
          "type": "address"
        }
      ],
      "stateMutability": "view",
      "type": "function"
    },
    {
      "inputs": [],
      "name": "stakedGmxTracker",
      "outputs": [
        {
          "internalType": "address",
          "name": "",
          "type": "address"
        }
      ],
      "stateMutability": "view",
      "type": "function"
    },
    {
      "inputs": [
        {
          "internalType": "address",
          "name": "_tokenOut",
          "type": "address"
        },
        {
          "internalType": "uint256",
          "name": "_glpAmount",
          "type": "uint256"
        },
        {
          "internalType": "uint256",
          "name": "_minOut",
          "type": "uint256"
        },
        {
          "internalType": "address",
          "name": "_receiver",
          "type": "address"
        }
      ],
      "name": "unstakeAndRedeemGlp",
      "outputs": [
        {
          "internalType": "uint256",
          "name": "",
          "type": "uint256"
        }
      ],
      "stateMutability": "nonpayable",
      "type": "function"
    },
    {
      "inputs": [
        {
          "internalType": "uint256",
          "name": "_glpAmount",
          "type": "uint256"
        },
        {
          "internalType": "uint256",
          "name": "_minOut",
          "type": "uint256"
        },
        {
          "internalType": "address payable",
          "name": "_receiver",
          "type": "address"
        }
      ],
      "name": "unstakeAndRedeemGlpETH",
      "outputs": [
        {
          "internalType": "uint256",
          "name": "",
          "type": "uint256"
        }
      ],
      "stateMutability": "nonpayable",
      "type": "function"
    },
    {
      "inputs": [
        {
          "internalType": "uint256",
          "name": "_amount",
          "type": "uint256"
        }
      ],
      "name": "unstakeEsGmx",
      "outputs": [],
      "stateMutability": "nonpayable",
      "type": "function"
    },
    {
      "inputs": [
        {
          "internalType": "uint256",
          "name": "_amount",
          "type": "uint256"
        }
      ],
      "name": "unstakeGmx",
      "outputs": [],
      "stateMutability": "nonpayable",
      "type": "function"
    },
    {
      "inputs": [],
      "name": "weth",
      "outputs": [
        {
          "internalType": "address",
          "name": "",
          "type": "address"
        }
      ],
      "stateMutability": "view",
      "type": "function"
    },
    {
      "inputs": [
        {
          "internalType": "address",
          "name": "_token",
          "type": "address"
        },
        {
          "internalType": "address",
          "name": "_account",
          "type": "address"
        },
        {
          "internalType": "uint256",
          "name": "_amount",
          "type": "uint256"
        }
      ],
      "name": "withdrawToken",
      "outputs": [],
      "stateMutability": "nonpayable",
      "type": "function"
    },
    {
      "stateMutability": "payable",
      "type": "receive"
    }
  ],
  "bytecode": "0x608060405234801561001057600080fd5b506001600081905580546001600160a01b0319163317905561571f806100376000396000f3fe6080604052600436106101b95760003560e01c806301e336671461021d578063078580d2146102605780630ce4018a1461028a5780630db79e52146102bb5780630f3aa554146103eb57806312d43a51146104445780631af276a6146104595780631fcd60e5146105075780632a9f40831461051c5780632fdd983d1461054f57806331e67c71146105ea578063364e2311146105ff5780633671df25146106445780633864c4fa14610659578063392e53cd146106be5780633fc8cef3146106e757806341d315b4146106fc5780634e71d92d1461071157806351c3e3b41461072657806353a8aa031461073b5780635da4b8dd1461075e5780635fe3945f1461079757806364f64467146107ac578063655603a4146107d65780636a192a781461080957806378a207ee1461081e578063abb5e5e214610833578063af394d0014610872578063cfad57a214610887578063d294f093146108ba578063e102f564146108cf578063e1b9db89146108e4578063e1c363b714610917578063ef8c59941461092c578063ef9aacfd14610956578063f3daeacc14610989578063f69e2046146109b3578063fa6db1bc146109c857610218565b36610218576002546001600160a01b03163314610216576040805162461bcd60e51b81526020600482015260166024820152752937baba32b91d1034b73b30b634b21039b2b73232b960511b604482015290519081900360640190fd5b005b600080fd5b34801561022957600080fd5b506102166004803603606081101561024057600080fd5b506001600160a01b038135811691602081013590911690604001356109dd565b34801561026c57600080fd5b506102166004803603602081101561028357600080fd5b5035610a43565b34801561029657600080fd5b5061029f610ab0565b604080516001600160a01b039092168252519081900360200190f35b3480156102c757600080fd5b50610216600480360360408110156102de57600080fd5b810190602081018135600160201b8111156102f857600080fd5b82018360208201111561030a57600080fd5b803590602001918460208302840111600160201b8311171561032b57600080fd5b9190808060200260200160405190810160405280939291908181526020018383602002808284376000920191909152509295949360208101935035915050600160201b81111561037a57600080fd5b82018360208201111561038c57600080fd5b803590602001918460208302840111600160201b831117156103ad57600080fd5b919080806020026020016040519081016040528093929190818152602001838360200280828437600092019190915250929550610abf945050505050565b3480156103f757600080fd5b506104326004803603608081101561040e57600080fd5b506001600160a01b0381358116916020810135916040820135916060013516610bb4565b60408051918252519081900360200190f35b34801561045057600080fd5b5061029f610e24565b34801561046557600080fd5b506102166004803603602081101561047c57600080fd5b810190602081018135600160201b81111561049657600080fd5b8201836020820111156104a857600080fd5b803590602001918460208302840111600160201b831117156104c957600080fd5b919080806020026020016040519081016040528093929190818152602001838360200280828437600092019190915250929550610e33945050505050565b34801561051357600080fd5b5061029f610f04565b34801561052857600080fd5b506102166004803603602081101561053f57600080fd5b50356001600160a01b0316610f13565b34801561055b57600080fd5b5061021660048036036101a081101561057357600080fd5b506001600160a01b038135811691602081013582169160408201358116916060810135821691608082013581169160a081013582169160c082013581169160e08101358216916101008201358116916101208101358216916101408201358116916101608101358216916101809091013516610fb4565b3480156105f657600080fd5b5061029f611141565b34801561060b57600080fd5b506104326004803603608081101561062257600080fd5b506001600160a01b038135169060208101359060408101359060600135611150565b34801561065057600080fd5b5061029f6113be565b34801561066557600080fd5b50610216600480360361010081101561067d57600080fd5b508035151590602081013515159060408101351515906060810135151590608081013515159060a081013515159060c081013515159060e0013515156113cd565b3480156106ca57600080fd5b506106d3611e13565b604080519115158252519081900360200190f35b3480156106f357600080fd5b5061029f611e23565b34801561070857600080fd5b5061029f611e32565b34801561071d57600080fd5b50610216611e41565b34801561073257600080fd5b5061029f6120a0565b6104326004803603604081101561075157600080fd5b50803590602001356120af565b34801561076a57600080fd5b506102166004803603604081101561078157600080fd5b506001600160a01b03813516906020013561241a565b3480156107a357600080fd5b506102166124cc565b3480156107b857600080fd5b50610216600480360360208110156107cf57600080fd5b5035612571565b3480156107e257600080fd5b50610216600480360360208110156107f957600080fd5b50356001600160a01b03166125d6565b34801561081557600080fd5b5061029f612fcd565b34801561082a57600080fd5b5061029f612fdc565b34801561083f57600080fd5b506104326004803603606081101561085657600080fd5b50803590602081013590604001356001600160a01b0316612feb565b34801561087e57600080fd5b5061029f6132d4565b34801561089357600080fd5b50610216600480360360208110156108aa57600080fd5b50356001600160a01b03166132e3565b3480156108c657600080fd5b50610216613352565b3480156108db57600080fd5b5061029f613479565b3480156108f057600080fd5b5061029f6004803603602081101561090757600080fd5b50356001600160a01b0316613488565b34801561092357600080fd5b5061029f6134a3565b34801561093857600080fd5b506102166004803603602081101561094f57600080fd5b50356134b2565b34801561096257600080fd5b506102166004803603602081101561097957600080fd5b50356001600160a01b0316613517565b34801561099557600080fd5b50610216600480360360208110156109ac57600080fd5b5035613705565b3480156109bf57600080fd5b5061021661376a565b3480156109d457600080fd5b5061029f6137c5565b6001546001600160a01b03163314610a2a576040805162461bcd60e51b815260206004820152601560248201526000805160206152cc833981519152604482015290519081900360640190fd5b610a3e6001600160a01b03841683836137d4565b505050565b60026000541415610a89576040805162461bcd60e51b815260206004820152601f6024820152600080516020615286833981519152604482015290519081900360640190fd5b6002600055600354610aa89033906001600160a01b0316836001613826565b506001600055565b6007546001600160a01b031681565b60026000541415610b05576040805162461bcd60e51b815260206004820152601f6024820152600080516020615286833981519152604482015290519081900360640190fd5b60026000556001546001600160a01b03163314610b57576040805162461bcd60e51b815260206004820152601560248201526000805160206152cc833981519152604482015290519081900360640190fd5b6003546001600160a01b031660005b8351811015610ba957610ba133858381518110610b7f57fe5b602002602001015184868581518110610b9457fe5b6020026020010151613d68565b600101610b66565b505060016000555050565b600060026000541415610bfc576040805162461bcd60e51b815260206004820152601f6024820152600080516020615286833981519152604482015290519081900360640190fd5b600260005583610c41576040805162461bcd60e51b81526020600482018190526024820152600080516020615633833981519152604482015290519081900360640190fd5b600a54600b546040805163098bf59d60e01b815233600482018190526001600160a01b039384166024830152604482018990526064820181905291519193929092169163098bf59d91608480830192600092919082900301818387803b158015610caa57600080fd5b505af1158015610cbe573d6000803e3d6000fd5b5050600b546006546040805163098bf59d60e01b81526001600160a01b03878116600483018190529381166024830152604482018c90526064820193909352905191909216935063098bf59d9250608480830192600092919082900301818387803b158015610d2c57600080fd5b505af1158015610d40573d6000803e3d6000fd5b5050600c54604080516371d597ad60e01b81526001600160a01b0386811660048301528b81166024830152604482018b9052606482018a905288811660848301529151600095509190921692506371d597ad9160a48082019260209290919082900301818787803b158015610db457600080fd5b505af1158015610dc8573d6000803e3d6000fd5b505050506040513d6020811015610dde57600080fd5b5051604080516001600160a01b038516815260208101899052815192935060008051602061554c833981519152929081900390910190a160016000559695505050505050565b6001546001600160a01b031681565b60026000541415610e79576040805162461bcd60e51b815260206004820152601f6024820152600080516020615286833981519152604482015290519081900360640190fd5b60026000556001546001600160a01b03163314610ecb576040805162461bcd60e51b815260206004820152601560248201526000805160206152cc833981519152604482015290519081900360640190fd5b60005b8151811015610efb57610ef3828281518110610ee657fe5b6020026020010151613f77565b600101610ece565b50506001600055565b6008546001600160a01b031681565b60026000541415610f59576040805162461bcd60e51b815260206004820152601f6024820152600080516020615286833981519152604482015290519081900360640190fd5b60026000556001546001600160a01b03163314610fab576040805162461bcd60e51b815260206004820152601560248201526000805160206152cc833981519152604482015290519081900360640190fd5b610aa881613f77565b6001546001600160a01b03163314611001576040805162461bcd60e51b815260206004820152601560248201526000805160206152cc833981519152604482015290519081900360640190fd5b600154600160a01b900460ff161561104a5760405162461bcd60e51b815260040180806020018281038252602181526020018061535d6021913960400191505060405180910390fd5b6001805460ff60a01b1916600160a01b179055600280546001600160a01b039e8f166001600160a01b031991821617909155600380549d8f169d82169d909d17909c55600480549b8e169b8d169b909b17909a5560058054998d16998c169990991790985560068054978c16978b169790971790965560078054958b16958a169590951790945560088054938a169389169390931790925560098054918916918816919091179055600b8054918816918716919091179055600a8054918716918616919091179055600c8054918616918516919091179055600d8054918516918416919091179055600e8054919093169116179055565b6003546001600160a01b031681565b600060026000541415611198576040805162461bcd60e51b815260206004820152601f6024820152600080516020615286833981519152604482015290519081900360640190fd5b6002600055836111dd576040805162461bcd60e51b815260206004820152601d6024820152600080516020615676833981519152604482015290519081900360640190fd5b600c54604080516317eb2a1560e01b81523360048201819052602482018190526001600160a01b038981166044840152606483018990526084830188905260a483018790529251909360009316916317eb2a159160c480830192602092919082900301818787803b15801561125157600080fd5b505af1158015611265573d6000803e3d6000fd5b505050506040513d602081101561127b57600080fd5b5051600b5460065460408051631e42d69b60e21b81526001600160a01b03878116600483018190526024830152928316604482015260648101859052905193945091169163790b5a6c9160848082019260009290919082900301818387803b1580156112e657600080fd5b505af11580156112fa573d6000803e3d6000fd5b5050600a54600b5460408051631e42d69b60e21b81526001600160a01b03888116600483018190526024830152928316604482015260648101879052905191909216935063790b5a6c9250608480830192600092919082900301818387803b15801561136557600080fd5b505af1158015611379573d6000803e3d6000fd5b5050604080516001600160a01b03861681526020810185905281516000805160206154f88339815191529450908190039091019150a160016000559695505050505050565b600e546001600160a01b031681565b60026000541415611413576040805162461bcd60e51b815260206004820152601f6024820152600080516020615286833981519152604482015290519081900360640190fd5b600260009081553390891561153f57600d54604080516309f4173d60e11b81526001600160a01b03858116600483018190526024830152915160009392909216916313e82e7a9160448082019260209290919082900301818787803b15801561147b57600080fd5b505af115801561148f573d6000803e3d6000fd5b505050506040513d60208110156114a557600080fd5b5051600e54604080516309f4173d60e11b81526001600160a01b03878116600483018190526024830152915193945060009391909216916313e82e7a91604480830192602092919082900301818787803b15801561150257600080fd5b505af1158015611516573d6000803e3d6000fd5b505050506040513d602081101561152c57600080fd5b5051905061153a8282613f8c565b925050505b88801561154c5750600081115b1561156b5760035461156b90839081906001600160a01b031684613d68565b6000881561169057600754604080516309f4173d60e11b81526001600160a01b03868116600483018190526024830152915160009392909216916313e82e7a9160448082019260209290919082900301818787803b1580156115cc57600080fd5b505af11580156115e0573d6000803e3d6000fd5b505050506040513d60208110156115f657600080fd5b5051600a54604080516309f4173d60e11b81526001600160a01b03888116600483018190526024830152915193945060009391909216916313e82e7a91604480830192602092919082900301818787803b15801561165357600080fd5b505af1158015611667573d6000803e3d6000fd5b505050506040513d602081101561167d57600080fd5b5051905061168b8282613f8c565b925050505b87801561169d5750600081115b156116bc576004546116bc90849081906001600160a01b031684613d68565b86156117d157600854604080516309f4173d60e11b81526001600160a01b03868116600483018190526024830152915160009392909216916313e82e7a9160448082019260209290919082900301818787803b15801561171b57600080fd5b505af115801561172f573d6000803e3d6000fd5b505050506040513d602081101561174557600080fd5b5051905080156117cf5760095460055460408051631e42d69b60e21b81526001600160a01b038881166004830181905260248301529283166044820152606481018590529051919092169163790b5a6c91608480830192600092919082900301818387803b1580156117b657600080fd5b505af11580156117ca573d6000803e3d6000fd5b505050505b505b8515611e01578315611b6257600954604080516309f4173d60e11b81526001600160a01b038681166004830152306024830152915160009392909216916313e82e7a9160448082019260209290919082900301818787803b15801561183557600080fd5b505af1158015611849573d6000803e3d6000fd5b505050506040513d602081101561185f57600080fd5b5051600b54604080516309f4173d60e11b81526001600160a01b038881166004830152306024830152915193945060009391909216916313e82e7a91604480830192602092919082900301818787803b1580156118bb57600080fd5b505af11580156118cf573d6000803e3d6000fd5b505050506040513d60208110156118e557600080fd5b5051905060006118f58383613f8c565b90508015611b5a57600254600c546040805163095ea7b360e01b81526001600160a01b039283166004820152602481018590529051919092169163095ea7b39160448083019260209291908290030181600087803b15801561195657600080fd5b505af115801561196a573d6000803e3d6000fd5b505050506040513d602081101561198057600080fd5b5050600c54600254604080516317eb2a1560e01b81523060048201526001600160a01b038a8116602483015292831660448201526064810185905260006084820181905260a482018190529151919392909216916317eb2a159160c480830192602092919082900301818787803b1580156119fa57600080fd5b505af1158015611a0e573d6000803e3d6000fd5b505050506040513d6020811015611a2457600080fd5b5051600b5460065460408051631e42d69b60e21b81526001600160a01b038c8116600483018190526024830152928316604482015260648101859052905193945091169163790b5a6c9160848082019260009290919082900301818387803b158015611a8f57600080fd5b505af1158015611aa3573d6000803e3d6000fd5b5050600a54600b5460408051631e42d69b60e21b81526001600160a01b038d8116600483018190526024830152928316604482015260648101879052905191909216935063790b5a6c9250608480830192600092919082900301818387803b158015611b0e57600080fd5b505af1158015611b22573d6000803e3d6000fd5b5050604080516001600160a01b038b1681526020810185905281516000805160206154f88339815191529450908190039091019150a1505b505050611e01565b8415611cfc57600954604080516309f4173d60e11b81526001600160a01b038681166004830152306024830152915160009392909216916313e82e7a9160448082019260209290919082900301818787803b158015611bc057600080fd5b505af1158015611bd4573d6000803e3d6000fd5b505050506040513d6020811015611bea57600080fd5b5051600b54604080516309f4173d60e11b81526001600160a01b038881166004830152306024830152915193945060009391909216916313e82e7a91604480830192602092919082900301818787803b158015611c4657600080fd5b505af1158015611c5a573d6000803e3d6000fd5b505050506040513d6020811015611c7057600080fd5b505190506000611c808383613f8c565b60025460408051632e1a7d4d60e01b81526004810184905290519293506001600160a01b0390911691632e1a7d4d9160248082019260009290919082900301818387803b158015611cd057600080fd5b505af1158015611ce4573d6000803e3d6000fd5b50611b5a925050506001600160a01b03871682613fed565b600954604080516309f4173d60e11b81526001600160a01b03868116600483018190526024830152915191909216916313e82e7a9160448083019260209291908290030181600087803b158015611d5257600080fd5b505af1158015611d66573d6000803e3d6000fd5b505050506040513d6020811015611d7c57600080fd5b5050600b54604080516309f4173d60e11b81526001600160a01b03868116600483018190526024830152915191909216916313e82e7a9160448083019260209291908290030181600087803b158015611dd457600080fd5b505af1158015611de8573d6000803e3d6000fd5b505050506040513d6020811015611dfe57600080fd5b50505b50506001600055505050505050505050565b600154600160a01b900460ff1681565b6002546001600160a01b031681565b600d546001600160a01b031681565b60026000541415611e87576040805162461bcd60e51b815260206004820152601f6024820152600080516020615286833981519152604482015290519081900360640190fd5b60026000908155600954604080516309f4173d60e11b8152336004820181905260248201819052915191936001600160a01b03909316926313e82e7a926044808401936020939083900390910190829087803b158015611ee657600080fd5b505af1158015611efa573d6000803e3d6000fd5b505050506040513d6020811015611f1057600080fd5b5050600b54604080516309f4173d60e11b81526001600160a01b03848116600483018190526024830152915191909216916313e82e7a9160448083019260209291908290030181600087803b158015611f6857600080fd5b505af1158015611f7c573d6000803e3d6000fd5b505050506040513d6020811015611f9257600080fd5b5050600754604080516309f4173d60e11b81526001600160a01b03848116600483018190526024830152915191909216916313e82e7a9160448083019260209291908290030181600087803b158015611fea57600080fd5b505af1158015611ffe573d6000803e3d6000fd5b505050506040513d602081101561201457600080fd5b5050600a54604080516309f4173d60e11b81526001600160a01b03848116600483018190526024830152915191909216916313e82e7a9160448083019260209291908290030181600087803b15801561206c57600080fd5b505af1158015612080573d6000803e3d6000fd5b505050506040513d602081101561209657600080fd5b5050600160005550565b6009546001600160a01b031681565b6000600260005414156120f7576040805162461bcd60e51b815260206004820152601f6024820152600080516020615286833981519152604482015290519081900360640190fd5b60026000553461214e576040805162461bcd60e51b815260206004820152601f60248201527f526577617264526f757465723a20696e76616c6964206d73672e76616c756500604482015290519081900360640190fd5b600260009054906101000a90046001600160a01b03166001600160a01b031663d0e30db0346040518263ffffffff1660e01b81526004016000604051808303818588803b15801561219e57600080fd5b505af11580156121b2573d6000803e3d6000fd5b5050600254600c546040805163095ea7b360e01b81526001600160a01b039283166004820152346024820152905191909216945063095ea7b39350604480830193506020928290030181600087803b15801561220d57600080fd5b505af1158015612221573d6000803e3d6000fd5b505050506040513d602081101561223757600080fd5b5050600c54600254604080516317eb2a1560e01b815230600482015233602482018190526001600160a01b0393841660448301523460648301526084820188905260a482018790529151919360009316916317eb2a159160c48082019260209290919082900301818787803b1580156122af57600080fd5b505af11580156122c3573d6000803e3d6000fd5b505050506040513d60208110156122d957600080fd5b5051600b5460065460408051631e42d69b60e21b81526001600160a01b03878116600483018190526024830152928316604482015260648101859052905193945091169163790b5a6c9160848082019260009290919082900301818387803b15801561234457600080fd5b505af1158015612358573d6000803e3d6000fd5b5050600a54600b5460408051631e42d69b60e21b81526001600160a01b03888116600483018190526024830152928316604482015260648101879052905191909216935063790b5a6c9250608480830192600092919082900301818387803b1580156123c357600080fd5b505af11580156123d7573d6000803e3d6000fd5b5050604080516001600160a01b03861681526020810185905281516000805160206154f88339815191529450908190039091019150a16001600055949350505050565b60026000541415612460576040805162461bcd60e51b815260206004820152601f6024820152600080516020615286833981519152604482015290519081900360640190fd5b60026000556001546001600160a01b031633146124b2576040805162461bcd60e51b815260206004820152601560248201526000805160206152cc833981519152604482015290519081900360640190fd5b600354610efb90339084906001600160a01b031684613d68565b60026000541415612512576040805162461bcd60e51b815260206004820152601f6024820152600080516020615286833981519152604482015290519081900360640190fd5b60026000908155600754604080516309f4173d60e11b8152336004820181905260248201819052915191936001600160a01b03909316926313e82e7a926044808401936020939083900390910190829087803b158015611fea57600080fd5b600260005414156125b7576040805162461bcd60e51b815260206004820152601f6024820152600080516020615286833981519152604482015290519081900360640190fd5b6002600055600454610aa89033906001600160a01b0316836001613826565b6002600054141561261c576040805162461bcd60e51b815260206004820152601f6024820152600080516020615286833981519152604482015290519081900360640190fd5b6002600055600d54604080516370a0823160e01b81526001600160a01b038481166004830152915191909216916370a08231916024808301926020929190829003018186803b15801561266e57600080fd5b505afa158015612682573d6000803e3d6000fd5b505050506040513d602081101561269857600080fd5b5051156126d65760405162461bcd60e51b81526004018080602001828103825260268152602001806152a66026913960400191505060405180910390fd5b600e54604080516370a0823160e01b81526001600160a01b038481166004830152915191909216916370a08231916024808301926020929190829003018186803b15801561272357600080fd5b505afa158015612737573d6000803e3d6000fd5b505050506040513d602081101561274d57600080fd5b50511561278b5760405162461bcd60e51b81526004018080602001828103825260268152602001806152a66026913960400191505060405180910390fd5b6001600160a01b038181166000908152600f602052604090205433911681146127e55760405162461bcd60e51b81526004018080602001828103825260248152602001806153a46024913960400191505060405180910390fd5b6001600160a01b0382166000908152600f6020526040902080546001600160a01b0319169055612814816140d2565b61281d82613f77565b60075460035460408051637aeceb1f60e11b81526001600160a01b03868116600483015292831660248201529051600093929092169163f5d9d63e91604480820192602092909190829003018186803b15801561287957600080fd5b505afa15801561288d573d6000803e3d6000fd5b505050506040513d60208110156128a357600080fd5b5051905080156128e1576003546128c79084906001600160a01b0316836000613826565b6003546128e190849084906001600160a01b031684613d68565b6007546004805460408051637aeceb1f60e11b81526001600160a01b0388811694820194909452918316602483015251600093929092169163f5d9d63e91604480820192602092909190829003018186803b15801561293f57600080fd5b505afa158015612953573d6000803e3d6000fd5b505050506040513d602081101561296957600080fd5b5051905080156129a75760045461298d9085906001600160a01b0316836000613826565b6004546129a790859085906001600160a01b031684613d68565b60095460055460408051637aeceb1f60e11b81526001600160a01b03888116600483015292831660248201529051600093929092169163f5d9d63e91604480820192602092909190829003018186803b158015612a0357600080fd5b505afa158015612a17573d6000803e3d6000fd5b505050506040513d6020811015612a2d57600080fd5b505190508015612b3a576009546005546040805163098bf59d60e01b81526001600160a01b038981166004830181905293811660248301526044820186905260648201939093529051919092169163098bf59d91608480830192600092919082900301818387803b158015612aa157600080fd5b505af1158015612ab5573d6000803e3d6000fd5b505060095460055460408051631e42d69b60e21b81526001600160a01b038b811660048301528a81166024830152928316604482015260648101879052905191909216935063790b5a6c9250608480830192600092919082900301818387803b158015612b2157600080fd5b505af1158015612b35573d6000803e3d6000fd5b505050505b6000600460009054906101000a90046001600160a01b03166001600160a01b03166370a08231876040518263ffffffff1660e01b815260040180826001600160a01b0316815260200191505060206040518083038186803b158015612b9e57600080fd5b505afa158015612bb2573d6000803e3d6000fd5b505050506040513d6020811015612bc857600080fd5b505190508015612c615760048054604080516323b872dd60e01b81526001600160a01b038a811694820194909452888416602482015260448101859052905192909116916323b872dd916064808201926020929091908290030181600087803b158015612c3457600080fd5b505af1158015612c48573d6000803e3d6000fd5b505050506040513d6020811015612c5e57600080fd5b50505b600b5460065460408051637aeceb1f60e11b81526001600160a01b038a8116600483015292831660248201529051600093929092169163f5d9d63e91604480820192602092909190829003018186803b158015612cbd57600080fd5b505afa158015612cd1573d6000803e3d6000fd5b505050506040513d6020811015612ce757600080fd5b505190508015612ef557600a54600b546040805163098bf59d60e01b81526001600160a01b038b81166004830181905293811660248301526044820186905260648201939093529051919092169163098bf59d91608480830192600092919082900301818387803b158015612d5b57600080fd5b505af1158015612d6f573d6000803e3d6000fd5b5050600b546006546040805163098bf59d60e01b81526001600160a01b038d8116600483018190529381166024830152604482018890526064820193909352905191909216935063098bf59d9250608480830192600092919082900301818387803b158015612ddd57600080fd5b505af1158015612df1573d6000803e3d6000fd5b5050600b5460065460408051631e42d69b60e21b81526001600160a01b038d811660048301528c81166024830152928316604482015260648101879052905191909216935063790b5a6c9250608480830192600092919082900301818387803b158015612e5d57600080fd5b505af1158015612e71573d6000803e3d6000fd5b5050600a54600b5460408051631e42d69b60e21b81526001600160a01b038c8116600483018190526024830152928316604482015260648101879052905191909216935063790b5a6c9250608480830192600092919082900301818387803b158015612edc57600080fd5b505af1158015612ef0573d6000803e3d6000fd5b505050505b600d5460408051630f713c2360e41b81526001600160a01b038a8116600483015289811660248301529151919092169163f713c23091604480830192600092919082900301818387803b158015612f4b57600080fd5b505af1158015612f5f573d6000803e3d6000fd5b5050600e5460408051630f713c2360e41b81526001600160a01b038c811660048301528b81166024830152915191909216935063f713c2309250604480830192600092919082900301818387803b158015612fb957600080fd5b505af1158015611e01573d6000803e3d6000fd5b6004546001600160a01b031681565b6006546001600160a01b031681565b600060026000541415613033576040805162461bcd60e51b815260206004820152601f6024820152600080516020615286833981519152604482015290519081900360640190fd5b600260005583613078576040805162461bcd60e51b81526020600482018190526024820152600080516020615633833981519152604482015290519081900360640190fd5b600a54600b546040805163098bf59d60e01b815233600482018190526001600160a01b039384166024830152604482018990526064820181905291519193929092169163098bf59d91608480830192600092919082900301818387803b1580156130e157600080fd5b505af11580156130f5573d6000803e3d6000fd5b5050600b546006546040805163098bf59d60e01b81526001600160a01b03878116600483018190529381166024830152604482018c90526064820193909352905191909216935063098bf59d9250608480830192600092919082900301818387803b15801561316357600080fd5b505af1158015613177573d6000803e3d6000fd5b5050600c54600254604080516371d597ad60e01b81526001600160a01b0387811660048301529283166024820152604481018b9052606481018a90523060848201529051600095509190921692506371d597ad9160a48082019260209290919082900301818787803b1580156131ec57600080fd5b505af1158015613200573d6000803e3d6000fd5b505050506040513d602081101561321657600080fd5b505160025460408051632e1a7d4d60e01b81526004810184905290519293506001600160a01b0390911691632e1a7d4d9160248082019260009290919082900301818387803b15801561326857600080fd5b505af115801561327c573d6000803e3d6000fd5b50613294925050506001600160a01b03851682613fed565b604080516001600160a01b038416815260208101889052815160008051602061554c833981519152929181900390910190a1600160005595945050505050565b600a546001600160a01b031681565b6001546001600160a01b03163314613330576040805162461bcd60e51b815260206004820152601560248201526000805160206152cc833981519152604482015290519081900360640190fd5b600180546001600160a01b0319166001600160a01b0392909216919091179055565b60026000541415613398576040805162461bcd60e51b815260206004820152601f6024820152600080516020615286833981519152604482015290519081900360640190fd5b60026000908155600954604080516309f4173d60e11b8152336004820181905260248201819052915191936001600160a01b03909316926313e82e7a926044808401936020939083900390910190829087803b1580156133f757600080fd5b505af115801561340b573d6000803e3d6000fd5b505050506040513d602081101561342157600080fd5b5050600b54604080516309f4173d60e11b81526001600160a01b03848116600483018190526024830152915191909216916313e82e7a9160448083019260209291908290030181600087803b15801561206c57600080fd5b6005546001600160a01b031681565b600f602052600090815260409020546001600160a01b031681565b600b546001600160a01b031681565b600260005414156134f8576040805162461bcd60e51b815260206004820152601f6024820152600080516020615286833981519152604482015290519081900360640190fd5b6002600055600454610aa890339081906001600160a01b031684613d68565b6002600054141561355d576040805162461bcd60e51b815260206004820152601f6024820152600080516020615286833981519152604482015290519081900360640190fd5b6002600055600d54604080516370a0823160e01b815233600482015290516001600160a01b03909216916370a0823191602480820192602092909190829003018186803b1580156135ad57600080fd5b505afa1580156135c1573d6000803e3d6000fd5b505050506040513d60208110156135d757600080fd5b5051156136155760405162461bcd60e51b81526004018080602001828103825260268152602001806152a66026913960400191505060405180910390fd5b600e54604080516370a0823160e01b815233600482015290516001600160a01b03909216916370a0823191602480820192602092909190829003018186803b15801561366057600080fd5b505afa158015613674573d6000803e3d6000fd5b505050506040513d602081101561368a57600080fd5b5051156136c85760405162461bcd60e51b81526004018080602001828103825260268152602001806152a66026913960400191505060405180910390fd5b6136d1816140d2565b336000908152600f6020526040812080546001600160a01b0319166001600160a01b03939093169290921790915560019055565b6002600054141561374b576040805162461bcd60e51b815260206004820152601f6024820152600080516020615286833981519152604482015290519081900360640190fd5b6002600055600354610aa890339081906001600160a01b031684613d68565b600260005414156137b0576040805162461bcd60e51b815260206004820152601f6024820152600080516020615286833981519152604482015290519081900360640190fd5b60026000556137be33613f77565b6001600055565b600c546001600160a01b031681565b604080516001600160a01b038416602482015260448082018490528251808303909101815260649091019091526020810180516001600160e01b031663a9059cbb60e01b179052610a3e908490614c22565b60008211613869576040805162461bcd60e51b815260206004820152601d6024820152600080516020615676833981519152604482015290519081900360640190fd5b600754604080516310c1c10360e01b81526001600160a01b038781166004830152915160009392909216916310c1c10391602480820192602092909190829003018186803b1580156138ba57600080fd5b505afa1580156138ce573d6000803e3d6000fd5b505050506040513d60208110156138e457600080fd5b50516009546008546040805163098bf59d60e01b81526001600160a01b038a8116600483018190529381166024830152604482018990526064820193909352905193945091169163098bf59d9160848082019260009290919082900301818387803b15801561395257600080fd5b505af1158015613966573d6000803e3d6000fd5b50506008546007546040805163098bf59d60e01b81526001600160a01b038b8116600483018190529381166024830152604482018a90526064820193909352905191909216935063098bf59d9250608480830192600092919082900301818387803b1580156139d457600080fd5b505af11580156139e8573d6000803e3d6000fd5b50506007546040805163098bf59d60e01b81526001600160a01b038a8116600483018190528a82166024840152604483018a90526064830152915191909216935063098bf59d9250608480830192600092919082900301818387803b158015613a5057600080fd5b505af1158015613a64573d6000803e3d6000fd5b505050508115613d1757600854604080516309f4173d60e11b81526001600160a01b03888116600483018190526024830152915160009392909216916313e82e7a9160448082019260209290919082900301818787803b158015613ac757600080fd5b505af1158015613adb573d6000803e3d6000fd5b505050506040513d6020811015613af157600080fd5b505190508015613b7b5760095460055460408051631e42d69b60e21b81526001600160a01b038a81166004830181905260248301529283166044820152606481018590529051919092169163790b5a6c91608480830192600092919082900301818387803b158015613b6257600080fd5b505af1158015613b76573d6000803e3d6000fd5b505050505b60095460055460408051637aeceb1f60e11b81526001600160a01b038a8116600483015292831660248201529051600093929092169163f5d9d63e91604480820192602092909190829003018186803b158015613bd757600080fd5b505afa158015613beb573d6000803e3d6000fd5b505050506040513d6020811015613c0157600080fd5b505190508015613d14576000613c2184613c1b8489614cd3565b90614d2c565b6009546005546040805163098bf59d60e01b81526001600160a01b038d8116600483018190529381166024830152604482018690526064820193909352905193945091169163098bf59d9160848082019260009290919082900301818387803b158015613c8d57600080fd5b505af1158015613ca1573d6000803e3d6000fd5b505060055460408051632770a7eb60e21b81526001600160a01b038d81166004830152602482018790529151919092169350639dc29fac9250604480830192600092919082900301818387803b158015613cfa57600080fd5b505af1158015613d0e573d6000803e3d6000fd5b50505050505b50505b604080516001600160a01b0380881682528616602082015280820185905290517fce8eb393006add0768cc6cefb3ca0fc4787015ce1ac86bd800e72a79993103459181900360600190a15050505050565b60008111613dab576040805162461bcd60e51b815260206004820152601d6024820152600080516020615676833981519152604482015290519081900360640190fd5b60075460408051631e42d69b60e21b81526001600160a01b03878116600483015286811660248301528581166044830152606482018590529151919092169163790b5a6c91608480830192600092919082900301818387803b158015613e1057600080fd5b505af1158015613e24573d6000803e3d6000fd5b505060085460075460408051631e42d69b60e21b81526001600160a01b03898116600483018190526024830152928316604482015260648101879052905191909216935063790b5a6c9250608480830192600092919082900301818387803b158015613e8f57600080fd5b505af1158015613ea3573d6000803e3d6000fd5b505060095460085460408051631e42d69b60e21b81526001600160a01b03898116600483018190526024830152928316604482015260648101879052905191909216935063790b5a6c9250608480830192600092919082900301818387803b158015613f0e57600080fd5b505af1158015613f22573d6000803e3d6000fd5b5050604080516001600160a01b0380881682528616602082015280820185905290517fad0723806aa1e5a8fb826fc9f0c5b589e585a6b60dc768a1b20691c95062d2d69350908190036060019150a150505050565b613f8081614d6b565b613f8981614f23565b50565b600082820183811015613fe4576040805162461bcd60e51b815260206004820152601b60248201527a536166654d6174683a206164646974696f6e206f766572666c6f7760281b604482015290519081900360640190fd5b90505b92915050565b80471015614042576040805162461bcd60e51b815260206004820152601d60248201527f416464726573733a20696e73756666696369656e742062616c616e6365000000604482015290519081900360640190fd5b6040516000906001600160a01b0384169083908381818185875af1925050503d806000811461408d576040519150601f19603f3d011682016040523d82523d6000602084013e614092565b606091505b5050905080610a3e5760405162461bcd60e51b815260040180806020018281038252603a815260200180615323603a913960400191505060405180910390fd5b6007546040805163a318021760e01b81526001600160a01b0384811660048301529151919092169163a3180217916024808301926020929190829003018186803b15801561411f57600080fd5b505afa158015614133573d6000803e3d6000fd5b505050506040513d602081101561414957600080fd5b5051156141875760405162461bcd60e51b81526004018080602001828103825260378152602001806152ec6037913960400191505060405180910390fd5b60075460408051633792def360e01b81526001600160a01b03848116600483015291519190921691633792def3916024808301926020929190829003018186803b1580156141d457600080fd5b505afa1580156141e8573d6000803e3d6000fd5b505050506040513d60208110156141fe57600080fd5b50511561423c5760405162461bcd60e51b81526004018080602001828103825260348152602001806154c46034913960400191505060405180910390fd5b6008546040805163a318021760e01b81526001600160a01b0384811660048301529151919092169163a3180217916024808301926020929190829003018186803b15801561428957600080fd5b505afa15801561429d573d6000803e3d6000fd5b505050506040513d60208110156142b357600080fd5b5051156142f15760405162461bcd60e51b815260040180806020018281038252603681526020018061545b6036913960400191505060405180910390fd5b60085460408051633792def360e01b81526001600160a01b03848116600483015291519190921691633792def3916024808301926020929190829003018186803b15801561433e57600080fd5b505afa158015614352573d6000803e3d6000fd5b505050506040513d602081101561436857600080fd5b5051156143a65760405162461bcd60e51b81526004018080602001828103825260338152602001806154916033913960400191505060405180910390fd5b6009546040805163a318021760e01b81526001600160a01b0384811660048301529151919092169163a3180217916024808301926020929190829003018186803b1580156143f357600080fd5b505afa158015614407573d6000803e3d6000fd5b505050506040513d602081101561441d57600080fd5b50511561445b5760405162461bcd60e51b81526004018080602001828103825260348152602001806155186034913960400191505060405180910390fd5b60095460408051633792def360e01b81526001600160a01b03848116600483015291519190921691633792def3916024808301926020929190829003018186803b1580156144a857600080fd5b505afa1580156144bc573d6000803e3d6000fd5b505050506040513d60208110156144d257600080fd5b5051156145105760405162461bcd60e51b81526004018080602001828103825260318152602001806155a06031913960400191505060405180910390fd5b600d5460408051631ccdc0d760e21b81526001600160a01b03848116600483015291519190921691637337035c916024808301926020929190829003018186803b15801561455d57600080fd5b505afa158015614571573d6000803e3d6000fd5b505050506040513d602081101561458757600080fd5b5051156145c55760405162461bcd60e51b815260040180806020018281038252603b815260200180615420603b913960400191505060405180910390fd5b600d5460408051635b8de71560e11b81526001600160a01b0384811660048301529151919092169163b71bce2a916024808301926020929190829003018186803b15801561461257600080fd5b505afa158015614626573d6000803e3d6000fd5b505050506040513d602081101561463c57600080fd5b50511561467a5760405162461bcd60e51b81526004018080602001828103825260388152602001806155fb6038913960400191505060405180910390fd5b600a546040805163a318021760e01b81526001600160a01b0384811660048301529151919092169163a3180217916024808301926020929190829003018186803b1580156146c757600080fd5b505afa1580156146db573d6000803e3d6000fd5b505050506040513d60208110156146f157600080fd5b50511561472f5760405162461bcd60e51b81526004018080602001828103825260378152602001806153c86037913960400191505060405180910390fd5b600a5460408051633792def360e01b81526001600160a01b03848116600483015291519190921691633792def3916024808301926020929190829003018186803b15801561477c57600080fd5b505afa158015614790573d6000803e3d6000fd5b505050506040513d60208110156147a657600080fd5b5051156147e45760405162461bcd60e51b81526004018080602001828103825260348152602001806152526034913960400191505060405180910390fd5b600b546040805163a318021760e01b81526001600160a01b0384811660048301529151919092169163a3180217916024808301926020929190829003018186803b15801561483157600080fd5b505afa158015614845573d6000803e3d6000fd5b505050506040513d602081101561485b57600080fd5b5051156148995760405162461bcd60e51b815260040180806020018281038252603481526020018061556c6034913960400191505060405180910390fd5b600b5460408051633792def360e01b81526001600160a01b03848116600483015291519190921691633792def3916024808301926020929190829003018186803b1580156148e657600080fd5b505afa1580156148fa573d6000803e3d6000fd5b505050506040513d602081101561491057600080fd5b50511561494e5760405162461bcd60e51b81526004018080602001828103825260318152602001806156b96031913960400191505060405180910390fd5b600e5460408051631ccdc0d760e21b81526001600160a01b03848116600483015291519190921691637337035c916024808301926020929190829003018186803b15801561499b57600080fd5b505afa1580156149af573d6000803e3d6000fd5b505050506040513d60208110156149c557600080fd5b505115614a035760405162461bcd60e51b815260040180806020018281038252603b815260200180615420603b913960400191505060405180910390fd5b600e5460408051635b8de71560e11b81526001600160a01b0384811660048301529151919092169163b71bce2a916024808301926020929190829003018186803b158015614a5057600080fd5b505afa158015614a64573d6000803e3d6000fd5b505050506040513d6020811015614a7a57600080fd5b505115614ab85760405162461bcd60e51b81526004018080602001828103825260388152602001806155fb6038913960400191505060405180910390fd5b600d54604080516370a0823160e01b81526001600160a01b038481166004830152915191909216916370a08231916024808301926020929190829003018186803b158015614b0557600080fd5b505afa158015614b19573d6000803e3d6000fd5b505050506040513d6020811015614b2f57600080fd5b505115614b6d5760405162461bcd60e51b81526004018080602001828103825260238152602001806156966023913960400191505060405180910390fd5b600e54604080516370a0823160e01b81526001600160a01b038481166004830152915191909216916370a08231916024808301926020929190829003018186803b158015614bba57600080fd5b505afa158015614bce573d6000803e3d6000fd5b505050506040513d6020811015614be457600080fd5b505115613f895760405162461bcd60e51b81526004018080602001828103825260238152602001806156536023913960400191505060405180910390fd5b6060614c77826040518060400160405280602081526020017f5361666545524332303a206c6f772d6c6576656c2063616c6c206661696c6564815250856001600160a01b0316614fce9092919063ffffffff16565b805190915015610a3e57808060200190516020811015614c9657600080fd5b5051610a3e5760405162461bcd60e51b815260040180806020018281038252602a8152602001806155d1602a913960400191505060405180910390fd5b600082614ce257506000613fe7565b82820282848281614cef57fe5b0414613fe45760405162461bcd60e51b81526004018080602001828103825260218152602001806153ff6021913960400191505060405180910390fd5b6000613fe483836040518060400160405280601a815260200179536166654d6174683a206469766973696f6e206279207a65726f60301b815250614fe7565b600754604080516309f4173d60e11b81526001600160a01b03848116600483018190526024830152915160009392909216916313e82e7a9160448082019260209290919082900301818787803b158015614dc457600080fd5b505af1158015614dd8573d6000803e3d6000fd5b505050506040513d6020811015614dee57600080fd5b505190508015614e1257600454614e1290839081906001600160a01b031684613d68565b600854604080516309f4173d60e11b81526001600160a01b03858116600483018190526024830152915160009392909216916313e82e7a9160448082019260209290919082900301818787803b158015614e6b57600080fd5b505af1158015614e7f573d6000803e3d6000fd5b505050506040513d6020811015614e9557600080fd5b505190508015610a3e5760095460055460408051631e42d69b60e21b81526001600160a01b038781166004830181905260248301529283166044820152606481018590529051919092169163790b5a6c91608480830192600092919082900301818387803b158015614f0657600080fd5b505af1158015614f1a573d6000803e3d6000fd5b50505050505050565b600a54604080516309f4173d60e11b81526001600160a01b03848116600483018190526024830152915160009392909216916313e82e7a9160448082019260209290919082900301818787803b158015614f7c57600080fd5b505af1158015614f90573d6000803e3d6000fd5b505050506040513d6020811015614fa657600080fd5b505190508015614fca57600454614fca90839081906001600160a01b031684613d68565b5050565b6060614fdd8484600085615089565b90505b9392505050565b600081836150735760405162461bcd60e51b81526004018080602001828103825283818151815260200191508051906020019080838360005b83811015615038578181015183820152602001615020565b50505050905090810190601f1680156150655780820380516001836020036101000a031916815260200191505b509250505060405180910390fd5b50600083858161507f57fe5b0495945050505050565b6060824710156150ca5760405162461bcd60e51b815260040180806020018281038252602681526020018061537e6026913960400191505060405180910390fd5b6150d3856151e5565b615124576040805162461bcd60e51b815260206004820152601d60248201527f416464726573733a2063616c6c20746f206e6f6e2d636f6e7472616374000000604482015290519081900360640190fd5b60006060866001600160a01b031685876040518082805190602001908083835b602083106151635780518252601f199092019160209182019101615144565b6001836020036101000a03801982511681845116808217855250505050505090500191505060006040518083038185875af1925050503d80600081146151c5576040519150601f19603f3d011682016040523d82523d6000602084013e6151ca565b606091505b50915091506151da8282866151eb565b979650505050505050565b3b151590565b606083156151fa575081614fe0565b82511561520a5782518084602001fd5b60405162461bcd60e51b815260206004820181815284516024840152845185939192839260440191908501908083836000831561503857818101518382015260200161502056fe526577617264526f757465723a207374616b6564476c70547261636b65722e63756d756c617469766552657761726473203e20305265656e7472616e637947756172643a207265656e7472616e742063616c6c00526577617264526f757465723a2073656e646572206861732076657374656420746f6b656e73476f7665726e61626c653a20666f7262696464656e0000000000000000000000526577617264526f757465723a207374616b6564476d78547261636b65722e617665726167655374616b6564416d6f756e7473203e2030416464726573733a20756e61626c6520746f2073656e642076616c75652c20726563697069656e74206d61792068617665207265766572746564526577617264526f757465723a20616c726561647920696e697469616c697a6564416464726573733a20696e73756666696369656e742062616c616e636520666f722063616c6c526577617264526f757465723a207472616e73666572206e6f74207369676e616c6c6564526577617264526f757465723a207374616b6564476c70547261636b65722e617665726167655374616b6564416d6f756e7473203e2030536166654d6174683a206d756c7469706c69636174696f6e206f766572666c6f77526577617264526f757465723a20676d785665737465722e7472616e73666572726564417665726167655374616b6564416d6f756e7473203e2030526577617264526f757465723a20626f6e7573476d78547261636b65722e617665726167655374616b6564416d6f756e7473203e2030526577617264526f757465723a20626f6e7573476d78547261636b65722e63756d756c617469766552657761726473203e2030526577617264526f757465723a207374616b6564476d78547261636b65722e63756d756c617469766552657761726473203e2030a4725d47fa458d9222498e4d63f34527cf7318c1506f89d9092b35fdbcb64f3a526577617264526f757465723a20666565476d78547261636b65722e617665726167655374616b6564416d6f756e7473203e20301cb6202519b6b6c72ba5ed11e2c3f53af3cea010f96bfc705584e53e75cf034c526577617264526f757465723a20666565476c70547261636b65722e617665726167655374616b6564416d6f756e7473203e2030526577617264526f757465723a20666565476d78547261636b65722e63756d756c617469766552657761726473203e20305361666545524332303a204552433230206f7065726174696f6e20646964206e6f742073756363656564526577617264526f757465723a20676d785665737465722e7472616e7366657272656443756d756c617469766552657761726473203e2030526577617264526f757465723a20696e76616c6964205f676c70416d6f756e74526577617264526f757465723a20676c705665737465722e62616c616e6365203e2030526577617264526f757465723a20696e76616c6964205f616d6f756e74000000526577617264526f757465723a20676d785665737465722e62616c616e6365203e2030526577617264526f757465723a20666565476c70547261636b65722e63756d756c617469766552657761726473203e2030a2646970667358221220f617c25d11a978448031f20ac70694e1409b1ab15374408b60ebb66de865a04e64736f6c634300060c0033",
  "linkReferences": {},
  "deployedLinkReferences": {}
}